{
  "contractName": "CreditorProxy",
  "abi": [
    {
      "constant": false,
      "inputs": [],
      "name": "unpause",
      "outputs": [],
      "payable": false,
      "stateMutability": "nonpayable",
      "type": "function"
    },
    {
      "constant": true,
      "inputs": [],
      "name": "paused",
      "outputs": [
        {
          "name": "",
          "type": "bool"
        }
      ],
      "payable": false,
      "stateMutability": "view",
      "type": "function"
    },
    {
      "constant": true,
      "inputs": [
        {
          "name": "",
          "type": "bytes32"
        }
      ],
      "name": "orderRemain",
      "outputs": [
        {
          "name": "recorded",
          "type": "bool"
        },
        {
          "name": "remain",
          "type": "uint256"
        }
      ],
      "payable": false,
      "stateMutability": "view",
      "type": "function"
    },
    {
      "constant": false,
      "inputs": [],
      "name": "pause",
      "outputs": [],
      "payable": false,
      "stateMutability": "nonpayable",
      "type": "function"
    },
    {
      "constant": true,
      "inputs": [],
      "name": "owner",
      "outputs": [
        {
          "name": "",
          "type": "address"
        }
      ],
      "payable": false,
      "stateMutability": "view",
      "type": "function"
    },
    {
      "constant": true,
      "inputs": [
        {
          "name": "",
          "type": "bytes32"
        }
      ],
      "name": "debtOfferCancelled",
      "outputs": [
        {
          "name": "",
          "type": "bool"
        }
      ],
      "payable": false,
      "stateMutability": "view",
      "type": "function"
    },
    {
      "constant": true,
      "inputs": [],
      "name": "contractRegistry",
      "outputs": [
        {
          "name": "",
          "type": "address"
        }
      ],
      "payable": false,
      "stateMutability": "view",
      "type": "function"
    },
    {
      "constant": true,
      "inputs": [],
      "name": "NULL_ISSUANCE_HASH",
      "outputs": [
        {
          "name": "",
          "type": "bytes32"
        }
      ],
      "payable": false,
      "stateMutability": "view",
      "type": "function"
    },
    {
      "constant": true,
      "inputs": [],
      "name": "EXTERNAL_QUERY_GAS_LIMIT",
      "outputs": [
        {
          "name": "",
          "type": "uint16"
        }
      ],
      "payable": false,
      "stateMutability": "view",
      "type": "function"
    },
    {
      "constant": false,
      "inputs": [
        {
          "name": "newOwner",
          "type": "address"
        }
      ],
      "name": "transferOwnership",
      "outputs": [],
      "payable": false,
      "stateMutability": "nonpayable",
      "type": "function"
    },
    {
      "inputs": [
        {
          "name": "_contractRegistry",
          "type": "address"
        }
      ],
      "payable": false,
      "stateMutability": "nonpayable",
      "type": "constructor"
    },
    {
      "anonymous": false,
      "inputs": [
        {
          "indexed": true,
          "name": "_creditor",
          "type": "address"
        },
        {
          "indexed": true,
          "name": "_creditorCommitmentHash",
          "type": "bytes32"
        }
      ],
      "name": "LogDebtOfferCancelledAsCreditor",
      "type": "event"
    },
    {
      "anonymous": false,
      "inputs": [
        {
          "indexed": true,
          "name": "_creditor",
          "type": "address"
        },
        {
          "indexed": true,
          "name": "_creditorCommitmentHash",
          "type": "bytes32"
        },
        {
          "indexed": true,
          "name": "_orderRemain",
          "type": "uint256"
        }
      ],
      "name": "LogDebtOfferFilled",
      "type": "event"
    },
    {
      "anonymous": false,
      "inputs": [
        {
          "indexed": true,
          "name": "_errorId",
          "type": "uint8"
        },
        {
          "indexed": true,
          "name": "_creditor",
          "type": "address"
        },
        {
          "indexed": true,
          "name": "_creditorCommitmentHash",
          "type": "bytes32"
        }
      ],
      "name": "LogError",
      "type": "event"
    },
    {
      "anonymous": false,
      "inputs": [
        {
          "indexed": false,
          "name": "data",
          "type": "bytes32"
        }
      ],
      "name": "LogByte",
      "type": "event"
    },
    {
      "anonymous": false,
      "inputs": [
        {
          "indexed": false,
          "name": "data",
          "type": "bytes"
        }
      ],
      "name": "LogBytes",
      "type": "event"
    },
    {
      "anonymous": false,
      "inputs": [
        {
          "indexed": false,
          "name": "data",
          "type": "uint256"
        }
      ],
      "name": "LogUint",
      "type": "event"
    },
    {
      "anonymous": false,
      "inputs": [],
      "name": "Pause",
      "type": "event"
    },
    {
      "anonymous": false,
      "inputs": [],
      "name": "Unpause",
      "type": "event"
    },
    {
      "anonymous": false,
      "inputs": [
        {
          "indexed": true,
          "name": "previousOwner",
          "type": "address"
        },
        {
          "indexed": true,
          "name": "newOwner",
          "type": "address"
        }
      ],
      "name": "OwnershipTransferred",
      "type": "event"
    },
    {
      "constant": false,
      "inputs": [
        {
          "name": "debtor",
          "type": "address"
        },
        {
          "name": "orderAddresses",
          "type": "address[6]"
        },
        {
          "name": "orderValues",
          "type": "uint256[9]"
        },
        {
          "name": "orderBytes32",
          "type": "bytes32[1]"
        },
        {
          "name": "fillAmount",
          "type": "uint256"
        },
        {
          "name": "fillSalt",
          "type": "uint256"
        },
        {
          "name": "signaturesV",
          "type": "uint8[3]"
        },
        {
          "name": "signaturesR",
          "type": "bytes32[3]"
        },
        {
          "name": "signaturesS",
          "type": "bytes32[3]"
        }
      ],
      "name": "fillAsDebtor",
      "outputs": [
        {
          "name": "_agreementId",
          "type": "bytes32"
        }
      ],
      "payable": false,
      "stateMutability": "nonpayable",
      "type": "function"
    },
    {
      "constant": false,
      "inputs": [
        {
          "name": "orderAddresses",
          "type": "address[6]"
        },
        {
          "name": "orderValues",
          "type": "uint256[9]"
        },
        {
          "name": "orderBytes32",
          "type": "bytes32[1]"
        }
      ],
      "name": "cancelDebtOfferAsCreditor",
      "outputs": [],
      "payable": false,
      "stateMutability": "nonpayable",
      "type": "function"
    }
  ],
  "bytecode": "0x608060405260008060146101000a81548160ff02191690831515021790555034801561002a57600080fd5b5060405160208061221783398101806040528101908080519060200190929190505050336000806101000a81548173ffffffffffffffffffffffffffffffffffffffff021916908373ffffffffffffffffffffffffffffffffffffffff16021790555080600160006101000a81548173ffffffffffffffffffffffffffffffffffffffff021916908373ffffffffffffffffffffffffffffffffffffffff16021790555050612139806100de6000396000f3006080604052600436106100ba576000357c0100000000000000000000000000000000000000000000000000000000900463ffffffff1680633f4ba83a146100bf5780635c975abb146100d657806362c0779a146101055780636c6eb11b146101b657806383ae95e4146103445780638456cb59146103945780638da5cb5b146103ab578063a318b5f714610402578063abf410e51461044b578063e283040d146104a2578063f06bbf75146104d5578063f2fde38b14610508575b600080fd5b3480156100cb57600080fd5b506100d461054b565b005b3480156100e257600080fd5b506100eb610609565b604051808215151515815260200191505060405180910390f35b34801561011157600080fd5b506101b46004803603810190808060c00190600680602002604051908101604052809291908260066020028082843782019150505050509192919290806101200190600980602002604051908101604052809291908260096020028082843782019150505050509192919290806020019060018060200260405190810160405280929190826001602002808284378201915050505050919291929050505061061c565b005b3480156101c257600080fd5b50610326600480360381019080803573ffffffffffffffffffffffffffffffffffffffff1690602001909291908060c0019060068060200260405190810160405280929190826006602002808284378201915050505050919291929080610120019060098060200260405190810160405280929190826009602002808284378201915050505050919291929080602001906001806020026040519081016040528092919082600160200280828437820191505050505091929192908035906020019092919080359060200190929190806060019060038060200260405190810160405280929190826003602002808284378201915050505050919291929080606001906003806020026040519081016040528092919082600360200280828437820191505050505091929192908060600190600380602002604051908101604052809291908260036020028082843782019150505050509192919290505050610728565b60405180826000191660001916815260200191505060405180910390f35b34801561035057600080fd5b506103736004803603810190808035600019169060200190929190505050610c05565b60405180831515151581526020018281526020019250505060405180910390f35b3480156103a057600080fd5b506103a9610c36565b005b3480156103b757600080fd5b506103c0610cf6565b604051808273ffffffffffffffffffffffffffffffffffffffff1673ffffffffffffffffffffffffffffffffffffffff16815260200191505060405180910390f35b34801561040e57600080fd5b506104316004803603810190808035600019169060200190929190505050610d1b565b604051808215151515815260200191505060405180910390f35b34801561045757600080fd5b50610460610d3b565b604051808273ffffffffffffffffffffffffffffffffffffffff1673ffffffffffffffffffffffffffffffffffffffff16815260200191505060405180910390f35b3480156104ae57600080fd5b506104b7610d61565b60405180826000191660001916815260200191505060405180910390f35b3480156104e157600080fd5b506104ea610d69565b604051808261ffff1661ffff16815260200191505060405180910390f35b34801561051457600080fd5b50610549600480360381019080803573ffffffffffffffffffffffffffffffffffffffff169060200190929190505050610d6f565b005b6000809054906101000a900473ffffffffffffffffffffffffffffffffffffffff1673ffffffffffffffffffffffffffffffffffffffff163373ffffffffffffffffffffffffffffffffffffffff161415156105a657600080fd5b600060149054906101000a900460ff1615156105c157600080fd5b60008060146101000a81548160ff0219169083151502179055507f7805862f689e2f13df9f062ff482ad3ad112aca9e0847911ed832e158c525b3360405160405180910390a1565b600060149054906101000a900460ff1681565b60008060149054906101000a900460ff1615151561063957600080fd5b83600160068110151561064857fe5b602002015173ffffffffffffffffffffffffffffffffffffffff163373ffffffffffffffffffffffffffffffffffffffff1614151561068657600080fd5b610691848484610ec4565b9050600160026000836000191660001916815260200190815260200160002060006101000a81548160ff02191690831515021790555080600019168460016006811015156106db57fe5b602002015173ffffffffffffffffffffffffffffffffffffffff167f1bb5cd893870720e582d2adaae6d69c50883f53eabbe5a2130e1261cfaf0192560405160405180910390a350505050565b600080600080600060149054906101000a900460ff1615151561074a57600080fd5b6107558c8c8c610ec4565b925060026000846000191660001916815260200190815260200160002060009054906101000a900460ff16156107fc5782600019168c600160068110151561079957fe5b602002015173ffffffffffffffffffffffffffffffffffffffff16600060048111156107c157fe5b60ff167f2ced8b4371717a8c6ce644dc517a7eaf4c7c0b52e5ab304c4c7472b15588b10260405160405180910390a460006001029350610bf5565b6108558c600160068110151561080e57fe5b60200201518489600160038110151561082357fe5b602002015189600160038110151561083757fe5b602002015189600160038110151561084b57fe5b60200201516112e0565b15156108d25782600019168c600160068110151561086f57fe5b602002015173ffffffffffffffffffffffffffffffffffffffff166003600481111561089757fe5b60ff167f2ced8b4371717a8c6ce644dc517a7eaf4c7c0b52e5ab304c4c7472b15588b10260405160405180910390a460006001029350610bf5565b6000151560036000856000191660001916815260200190815260200160002060000160009054906101000a900460ff161515141561097e5760408051908101604052806001151581526020018c600260098110151561092d57fe5b602002015181525060036000856000191660001916815260200190815260200160002060008201518160000160006101000a81548160ff021916908315150217905550602082015181600101559050505b88600360008560001916600019168152602001908152602001600020600101541015610a1b5782600019168c60016006811015156109b857fe5b602002015173ffffffffffffffffffffffffffffffffffffffff16600160048111156109e057fe5b60ff167f2ced8b4371717a8c6ce644dc517a7eaf4c7c0b52e5ab304c4c7472b15588b10260405160405180910390a460006001029350610bf5565b888b6008600981101515610a2b57fe5b60200201511115610aad5782600019168c6001600681101515610a4a57fe5b602002015173ffffffffffffffffffffffffffffffffffffffff1660026004811115610a7257fe5b60ff167f2ced8b4371717a8c6ce644dc517a7eaf4c7c0b52e5ab304c4c7472b15588b10260405160405180910390a460006001029350610bf5565b610ad38b6005600981101515610abf57fe5b60200201518a6113e190919063ffffffff16565b9150610b068c6001600681101515610ae757fe5b60200201518d6004600681101515610afb57fe5b6020020151846113ff565b1515610b825782600019168c6001600681101515610b2057fe5b602002015173ffffffffffffffffffffffffffffffffffffffff16600480811115610b4757fe5b60ff167f2ced8b4371717a8c6ce644dc517a7eaf4c7c0b52e5ab304c4c7472b15588b10260405160405180910390a460006001029350610bf5565b6000821115610bc957610bbd8c6004600681101515610b9d57fe5b60200201518d6001600681101515610bb157fe5b60200201513085611461565b1515610bc857600080fd5b5b610bef8d8d6001600681101515610bdc57fe5b60200201518e8e8e8e8e8a8f8f8f611673565b90508093505b5050509998505050505050505050565b60036020528060005260406000206000915090508060000160009054906101000a900460ff16908060010154905082565b6000809054906101000a900473ffffffffffffffffffffffffffffffffffffffff1673ffffffffffffffffffffffffffffffffffffffff163373ffffffffffffffffffffffffffffffffffffffff16141515610c9157600080fd5b600060149054906101000a900460ff16151515610cad57600080fd5b6001600060146101000a81548160ff0219169083151502179055507f6985a02210a168e66602d3235cb6db0e70f92b3ba4d376a33c0f3d9434bff62560405160405180910390a1565b6000809054906101000a900473ffffffffffffffffffffffffffffffffffffffff1681565b60026020528060005260406000206000915054906101000a900460ff1681565b600160009054906101000a900473ffffffffffffffffffffffffffffffffffffffff1681565b600060010281565b611f4081565b6000809054906101000a900473ffffffffffffffffffffffffffffffffffffffff1673ffffffffffffffffffffffffffffffffffffffff163373ffffffffffffffffffffffffffffffffffffffff16141515610dca57600080fd5b600073ffffffffffffffffffffffffffffffffffffffff168173ffffffffffffffffffffffffffffffffffffffff1614151515610e0657600080fd5b8073ffffffffffffffffffffffffffffffffffffffff166000809054906101000a900473ffffffffffffffffffffffffffffffffffffffff1673ffffffffffffffffffffffffffffffffffffffff167f8be0079c531659141344cd1fd0a4f28419497f9722a3daafe3b4186f6b6457e060405160405180910390a3806000806101000a81548173ffffffffffffffffffffffffffffffffffffffff021916908373ffffffffffffffffffffffffffffffffffffffff16021790555050565b60006060806000866000600681101515610eda57fe5b6020020151876001600681101515610eee57fe5b6020020151886002600681101515610f0257fe5b6020020151896003600681101515610f1657fe5b60200201518a6004600681101515610f2a57fe5b60200201518b6005600681101515610f3e57fe5b6020020151604051602001808773ffffffffffffffffffffffffffffffffffffffff1673ffffffffffffffffffffffffffffffffffffffff166c010000000000000000000000000281526014018673ffffffffffffffffffffffffffffffffffffffff1673ffffffffffffffffffffffffffffffffffffffff166c010000000000000000000000000281526014018573ffffffffffffffffffffffffffffffffffffffff1673ffffffffffffffffffffffffffffffffffffffff166c010000000000000000000000000281526014018473ffffffffffffffffffffffffffffffffffffffff1673ffffffffffffffffffffffffffffffffffffffff166c010000000000000000000000000281526014018373ffffffffffffffffffffffffffffffffffffffff1673ffffffffffffffffffffffffffffffffffffffff166c010000000000000000000000000281526014018273ffffffffffffffffffffffffffffffffffffffff1673ffffffffffffffffffffffffffffffffffffffff166c01000000000000000000000000028152601401965050505050505060405160208183030381529060405292508560006009811015156110f857fe5b602002015186600160098110151561110c57fe5b602002015187600260098110151561112057fe5b602002015188600360098110151561113457fe5b602002015189600460098110151561114857fe5b60200201518a600560098110151561115c57fe5b60200201518b600660098110151561117057fe5b60200201518c600760098110151561118457fe5b60200201518d600860098110151561119857fe5b60200201518d60006001811015156111ac57fe5b6020020151604051602001808b81526020018a815260200189815260200188815260200187815260200186815260200185815260200184815260200183815260200182600019166000191681526020019a5050505050505050505050604051602081830303815290604052915082826040518083805190602001908083835b602083101515611250578051825260208201915060208101905060208303925061122b565b6001836020036101000a03801982511681845116808217855250505050505090500182805190602001908083835b6020831015156112a3578051825260208201915060208101905060208303925061127e565b6001836020036101000a03801982511681845116808217855250505050505090500192505050604051809103902090508093505050509392505050565b600060018560405180807f19457468657265756d205369676e6564204d6573736167653a0a333200000000815250601c0182600019166000191681526020019150506040518091039020858585604051600081526020016040526040518085600019166000191681526020018460ff1660ff1681526020018360001916600019168152602001826000191660001916815260200194505050505060206040516020810390808403906000865af115801561139e573d6000803e3d6000fd5b5050506020604051035173ffffffffffffffffffffffffffffffffffffffff168673ffffffffffffffffffffffffffffffffffffffff1614905095945050505050565b60008082840190508381101515156113f557fe5b8091505092915050565b60008161140c8486611c88565b108061142057508161141e8486611d70565b105b1561142e576000905061145a565b816114398430611d70565b1015611455576114498383611f4c565b151561145457600080fd5b5b600190505b9392505050565b6000600160009054906101000a900473ffffffffffffffffffffffffffffffffffffffff1673ffffffffffffffffffffffffffffffffffffffff16630eefdbad6040518163ffffffff167c0100000000000000000000000000000000000000000000000000000000028152600401602060405180830381600087803b1580156114e957600080fd5b505af11580156114fd573d6000803e3d6000fd5b505050506040513d602081101561151357600080fd5b810190808051906020019092919050505073ffffffffffffffffffffffffffffffffffffffff166315dacbea868686866040518563ffffffff167c0100000000000000000000000000000000000000000000000000000000028152600401808573ffffffffffffffffffffffffffffffffffffffff1673ffffffffffffffffffffffffffffffffffffffff1681526020018473ffffffffffffffffffffffffffffffffffffffff1673ffffffffffffffffffffffffffffffffffffffff1681526020018373ffffffffffffffffffffffffffffffffffffffff1673ffffffffffffffffffffffffffffffffffffffff168152602001828152602001945050505050602060405180830381600087803b15801561162e57600080fd5b505af1158015611642573d6000803e3d6000fd5b505050506040513d602081101561165857600080fd5b81019080805190602001909291905050509050949350505050565b6000808c8b600160068110151561168657fe5b602002019073ffffffffffffffffffffffffffffffffffffffff16908173ffffffffffffffffffffffffffffffffffffffff1681525050600160009054906101000a900473ffffffffffffffffffffffffffffffffffffffff1673ffffffffffffffffffffffffffffffffffffffff1663079dd4b76040518163ffffffff167c0100000000000000000000000000000000000000000000000000000000028152600401602060405180830381600087803b15801561174357600080fd5b505af1158015611757573d6000803e3d6000fd5b505050506040513d602081101561176d57600080fd5b810190808051906020019092919050505073ffffffffffffffffffffffffffffffffffffffff16634d4971b6308d610100604051908101604052808f60006009811015156117b757fe5b602002015181526020018c81526020018d81526020018f60036009811015156117dc57fe5b602002015181526020018f60046009811015156117f557fe5b602002015181526020018f600560098110151561180e57fe5b602002015181526020018f600660098110151561182757fe5b602002015181526020018f600760098110151561184057fe5b60200201518152508d8a8a8a6040518863ffffffff167c0100000000000000000000000000000000000000000000000000000000028152600401808873ffffffffffffffffffffffffffffffffffffffff1673ffffffffffffffffffffffffffffffffffffffff16815260200187600660200280838360005b838110156118d45780820151818401526020810190506118b9565b5050505090500186600860200280838360005b838110156119025780820151818401526020810190506118e7565b5050505090500185600160200280838360005b83811015611930578082015181840152602081019050611915565b5050505090500184600360200280838360005b8381101561195e578082015181840152602081019050611943565b5050505090500183600360200280838360005b8381101561198c578082015181840152602081019050611971565b5050505090500182600360200280838360005b838110156119ba57808201518184015260208101905061199f565b50505050905001975050505050505050602060405180830381600087803b1580156119e457600080fd5b505af11580156119f8573d6000803e3d6000fd5b505050506040513d6020811015611a0e57600080fd5b81019080805190602001909291905050509050600060010260001916816000191614151515611a3c57600080fd5b600160009054906101000a900473ffffffffffffffffffffffffffffffffffffffff1673ffffffffffffffffffffffffffffffffffffffff1663f8d898986040518163ffffffff167c0100000000000000000000000000000000000000000000000000000000028152600401602060405180830381600087803b158015611ac257600080fd5b505af1158015611ad6573d6000803e3d6000fd5b505050506040513d6020811015611aec57600080fd5b810190808051906020019092919050505073ffffffffffffffffffffffffffffffffffffffff1663a9059cbb8d83600190046040518363ffffffff167c0100000000000000000000000000000000000000000000000000000000028152600401808373ffffffffffffffffffffffffffffffffffffffff1673ffffffffffffffffffffffffffffffffffffffff16815260200182815260200192505050600060405180830381600087803b158015611ba357600080fd5b505af1158015611bb7573d6000803e3d6000fd5b50505050611bec88600360008960001916600019168152602001908152602001600020600101546120f490919063ffffffff16565b600360008860001916600019168152602001908152602001600020600101819055506003600087600019166000191681526020019081526020016000206001015486600019168d73ffffffffffffffffffffffffffffffffffffffff167f4e2e931af06c98123340426b6b061249d16a7835545a0cc192e3d9b02d23c8bd60405160405180910390a4809150509b9a5050505050505050505050565b60008273ffffffffffffffffffffffffffffffffffffffff166370a08231611f4061ffff16846040518363ffffffff167c0100000000000000000000000000000000000000000000000000000000028152600401808273ffffffffffffffffffffffffffffffffffffffff1673ffffffffffffffffffffffffffffffffffffffff168152602001915050602060405180830381600088803b158015611d2c57600080fd5b5087f1158015611d40573d6000803e3d6000fd5b50505050506040513d6020811015611d5757600080fd5b8101908080519060200190929190505050905092915050565b60008273ffffffffffffffffffffffffffffffffffffffff1663dd62ed3e611f4061ffff1684600160009054906101000a900473ffffffffffffffffffffffffffffffffffffffff1673ffffffffffffffffffffffffffffffffffffffff16630eefdbad6040518163ffffffff167c0100000000000000000000000000000000000000000000000000000000028152600401602060405180830381600087803b158015611e1c57600080fd5b505af1158015611e30573d6000803e3d6000fd5b505050506040513d6020811015611e4657600080fd5b81019080805190602001909291905050506040518463ffffffff167c0100000000000000000000000000000000000000000000000000000000028152600401808373ffffffffffffffffffffffffffffffffffffffff1673ffffffffffffffffffffffffffffffffffffffff1681526020018273ffffffffffffffffffffffffffffffffffffffff1673ffffffffffffffffffffffffffffffffffffffff16815260200192505050602060405180830381600088803b158015611f0857600080fd5b5087f1158015611f1c573d6000803e3d6000fd5b50505050506040513d6020811015611f3357600080fd5b8101908080519060200190929190505050905092915050565b60008273ffffffffffffffffffffffffffffffffffffffff1663095ea7b3600160009054906101000a900473ffffffffffffffffffffffffffffffffffffffff1673ffffffffffffffffffffffffffffffffffffffff16630eefdbad6040518163ffffffff167c0100000000000000000000000000000000000000000000000000000000028152600401602060405180830381600087803b158015611ff057600080fd5b505af1158015612004573d6000803e3d6000fd5b505050506040513d602081101561201a57600080fd5b8101908080519060200190929190505050846040518363ffffffff167c0100000000000000000000000000000000000000000000000000000000028152600401808373ffffffffffffffffffffffffffffffffffffffff1673ffffffffffffffffffffffffffffffffffffffff16815260200182815260200192505050602060405180830381600087803b1580156120b157600080fd5b505af11580156120c5573d6000803e3d6000fd5b505050506040513d60208110156120db57600080fd5b8101908080519060200190929190505050905092915050565b600082821115151561210257fe5b8183039050929150505600a165627a7a72305820994e5b299a0d9352dcdb33b3ce3e1b1be056c46476008f0c66b0ef0b5ac267b90029",
  "source": "pragma solidity 0.4.24;\n\nimport \"./ContractRegistry.sol\";\nimport \"zeppelin-solidity/contracts/lifecycle/Pausable.sol\";\nimport \"zeppelin-solidity/contracts/math/SafeMath.sol\";\nimport \"zeppelin-solidity/contracts/token/ERC20/ERC20.sol\";\n\n\ncontract CreditorProxy is Pausable {\n    using SafeMath for uint;\n\n    enum Errors {\n        DEBT_OFFER_CANCELLED,\n        DEBT_OFFER_REMAIN_NOT_ENOUGH,\n        DEBT_OFFER_LESS_THAN_MIN_FILL_AMOUNT,\n        DEBT_OFFER_NON_CONSENSUAL,\n        CREDITOR_BALANCE_OR_ALLOWANCE_INSUFFICIENT\n    }\n\n    ContractRegistry public contractRegistry;\n\n    bytes32 constant public NULL_ISSUANCE_HASH = bytes32(0);\n    uint16 constant public EXTERNAL_QUERY_GAS_LIMIT = 8000;\n\n    mapping (bytes32 => bool) public debtOfferCancelled;\n    mapping (bytes32 => Remain) public orderRemain;\n    struct Remain {\n        bool recorded;\n        uint remain;\n    }\n\n    event LogDebtOfferCancelledAsCreditor(\n        address indexed _creditor,\n        bytes32 indexed _creditorCommitmentHash\n    );\n\n    event LogDebtOfferFilled(\n        address indexed _creditor,\n        bytes32 indexed _creditorCommitmentHash,\n        uint indexed _orderRemain\n    );\n\n    event LogError(\n        uint8 indexed _errorId,\n        address indexed _creditor,\n        bytes32 indexed _creditorCommitmentHash\n    );\n\n\n\n    function CreditorProxy(address _contractRegistry)\n        public\n    {\n        contractRegistry = ContractRegistry(_contractRegistry);\n    }\n\n    event LogByte(bytes32 data);\n    event LogBytes(bytes data);\n    event LogUint(uint data);\n\n    /*\n     * Submit debt order to DebtKernel if it is consensual with creditor's request\n     * Creditor signature in arguments is only used internally,\n     * It will not be verified by the Debt Kernel.\n     *\n     * When fill as creditor, we will not check debtor's sig for the Simplicity.\n     */\n    function fillAsDebtor(\n        address debtor,\n        address[6] orderAddresses, // repayment-router, creditor, uw, tc, p-token, relayer\n        uint[9] orderValues, // rr, salt, pa, uwFee, rFee, cFee, dFee, expTime, minPa,\n        bytes32[1] orderBytes32, // tcParams\n        uint fillAmount,\n        uint fillSalt,\n        uint8[3] signaturesV, // debtV, credV, uw\n        bytes32[3] signaturesR,\n        bytes32[3] signaturesS\n    )\n        public\n        whenNotPaused\n        returns (bytes32 _agreementId)\n    {\n        // 1. validate creditor signature\n        bytes32 creditorCommitmentHash = getCreditorCommitmentHash(orderAddresses, orderValues, orderBytes32);\n\n        if (debtOfferCancelled[creditorCommitmentHash]) {\n            LogError(uint8(Errors.DEBT_OFFER_CANCELLED), orderAddresses[1], creditorCommitmentHash);\n            return NULL_ISSUANCE_HASH;\n        }\n\n        if (!isValidSignature(\n            orderAddresses[1],\n            creditorCommitmentHash,\n            signaturesV[1],\n            signaturesR[1],\n            signaturesS[1]\n        )) {\n            LogError(uint8(Errors.DEBT_OFFER_NON_CONSENSUAL), orderAddresses[1], creditorCommitmentHash);\n            return NULL_ISSUANCE_HASH;\n        }\n\n        // 2. Assert remain is enough for this fill\n        if (orderRemain[creditorCommitmentHash].recorded == false) {\n            orderRemain[creditorCommitmentHash] = Remain({\n                    recorded: true,\n                    remain: orderValues[2]\n                });\n        }\n        if ( orderRemain[creditorCommitmentHash].remain < fillAmount ) {\n            LogError(uint8(Errors.DEBT_OFFER_REMAIN_NOT_ENOUGH), orderAddresses[1], creditorCommitmentHash);\n            return NULL_ISSUANCE_HASH;\n        }\n        if ( orderValues[8] > fillAmount ) {\n            LogError(uint8(Errors.DEBT_OFFER_LESS_THAN_MIN_FILL_AMOUNT), orderAddresses[1], creditorCommitmentHash);\n            return NULL_ISSUANCE_HASH;\n        }\n\n        // 3. principle transfer: principal amount + creditor fee\n        uint totalCreditorPayment = fillAmount.add(orderValues[5]);\n\n        if (!assertExternalBalanceAndAllowanceInvariants(\n            orderAddresses[1],\n            orderAddresses[4],\n            totalCreditorPayment\n        )) {\n            LogError(\n                uint8(Errors.CREDITOR_BALANCE_OR_ALLOWANCE_INSUFFICIENT),\n                orderAddresses[1],\n                creditorCommitmentHash\n            );\n            return NULL_ISSUANCE_HASH;\n        }\n\n        // Transfer principal from creditor to creditorProxy\n        if (totalCreditorPayment > 0) {\n            require(transferTokensFrom(\n                orderAddresses[4],\n                orderAddresses[1],\n                address(this),\n                totalCreditorPayment\n            ));\n        }\n\n        // 4. Fill debt order with this contract playing the role of creditor\n        bytes32 agreementId = settleOrder(\n            debtor,\n            orderAddresses[1],\n            orderAddresses,\n            orderValues,\n            orderBytes32,\n            fillAmount,\n            fillSalt,\n            creditorCommitmentHash,\n            signaturesV,\n            signaturesR,\n            signaturesS\n        );\n        return agreementId;\n//        return creditorCommitmentHash;\n    }\n\n    function settleOrder(\n        address debtor,\n        address creditor,\n        address[6] orderAddresses, // repayment-router, creditor/debtor, uw, tc, p-token, relayer\n        uint[9] orderValues, // rr, salt, pa, uwFee, rFee, cFee, dFee, expTime, minPa,\n        bytes32[1] orderBytes32, // tcParams\n        uint fillAmount,\n        uint fillSalt,\n        bytes32 commitmentHash,\n        uint8[3] signaturesV, // debtV, credV, uw\n        bytes32[3] signaturesR,\n        bytes32[3] signaturesS\n    )\n        internal\n        returns (bytes32 _agreementId) {\n\n        orderAddresses[1] = debtor;\n\n        bytes32 agreementId = contractRegistry.debtKernel().fillDebtOrderAsProxy(\n            address(this),\n            orderAddresses,\n            [\n                orderValues[0],\n                fillSalt,\n                fillAmount,\n                orderValues[3],\n                orderValues[4],\n                orderValues[5],\n                orderValues[6],\n                orderValues[7]\n            ],\n            orderBytes32,\n            signaturesV,\n            signaturesR,\n            signaturesS\n        );\n\n//        LogByte(agreementId);\n        require(agreementId != NULL_ISSUANCE_HASH);\n\n//         5. transfer debt token to real creditor\n        contractRegistry.debtToken().transfer(creditor, uint256(agreementId));\n\n//         6. record the orderRemain\n        orderRemain[commitmentHash].remain = orderRemain[commitmentHash].remain.sub(fillAmount);\n\n//         7. log\n        LogDebtOfferFilled(creditor, commitmentHash, orderRemain[commitmentHash].remain);\n\n        return agreementId;\n\n\n//        return commitmentHash;\n    }\n\n    /**\n     * Allows creditor to prevent a debt offer from being used in the future\n     */\n    function cancelDebtOfferAsCreditor(\n        address[6] orderAddresses, // repayment-router, creditor, uw, tc, p-token, relayer\n        uint[9] orderValues, // rr, salt, pa, uwFee, rFee, cFee, dFee, expTime, minPa,\n        bytes32[1] orderBytes32 // tcParams\n    )\n        public\n        whenNotPaused\n    {\n        // sender must be the creditor\n        require(msg.sender == orderAddresses[1]);\n        bytes32 creditorCommitmentHash = getCreditorCommitmentHash(\n            orderAddresses,\n            orderValues,\n            orderBytes32\n        );\n        debtOfferCancelled[creditorCommitmentHash] = true;\n        LogDebtOfferCancelledAsCreditor(orderAddresses[1], creditorCommitmentHash);\n    }\n\n    ////////////////////////\n    // INTERNAL FUNCTIONS //\n    ////////////////////////\n\n    /**\n     * Returns the messaged signed by the creditor to indicate their commitment\n     */\n    function getCreditorCommitmentHash(\n        address[6] orderAddresses, // repayment-router, creditor, uw, tc, p-token, relayer\n        uint[9] orderValues, // riskRating, salt, pa, uwFee, rFee, cFee, dFee, expTime, minPa\n        bytes32[1] termsContractParameters\n    )\n        internal\n        returns (bytes32 _creditorCommitmentHash)\n    {\n        // the keccak256 method has a limited number of arguments, add debtorFee will make compiler complain about a too deep stack.\n        // so the debtorFee will not included\n\n        bytes memory c1 = abi.encodePacked(\n            orderAddresses[0],\n            orderAddresses[1],\n            orderAddresses[2],\n            orderAddresses[3],\n            orderAddresses[4],\n            orderAddresses[5]\n        );\n\n        bytes memory c2 = abi.encodePacked(\n            orderValues[0],\n            orderValues[1],\n            orderValues[2],\n            orderValues[3],\n            orderValues[4],\n            orderValues[5],\n            orderValues[6],\n            orderValues[7],\n            orderValues[8],\n            termsContractParameters[0]\n        );\n        bytes32 c3 = keccak256(c1, c2);\n        return c3;\n    }\n\n\n    /**\n     * Assert that the creditor has a sufficient token balance and has granted the token transfer\n     * proxy contract sufficient allowance to suffice for the principal and creditor fee.\n     */\n    function assertExternalBalanceAndAllowanceInvariants(\n        address creditor,\n        address principalToken,\n        uint totalCreditorPayment\n    )\n        internal\n        returns (bool _isBalanceAndAllowanceSufficient)\n    {\n        if (getBalance(principalToken, creditor) < totalCreditorPayment ||\n            getAllowance(principalToken, creditor) < totalCreditorPayment) {\n            return false;\n        }\n        // ensure the token transfer proxy can transfer tokens from the creditor proxy\n        if (getAllowance(principalToken, address(this)) < totalCreditorPayment) {\n            require(setAllowance(principalToken, totalCreditorPayment));\n        }\n        return true;\n    }\n\n    /**\n     * Given a hashed message, a signer's address, and a signature,\n     * returns whether the signature is valid.\n     */\n    function isValidSignature(\n        address signer,\n        bytes32 hash,\n        uint8 v,\n        bytes32 r,\n        bytes32 s\n    )\n        internal\n        pure\n        returns (bool _valid)\n    {\n        return signer == ecrecover(\n            keccak256(\"\\x19Ethereum Signed Message:\\n32\", hash),\n            v,\n            r,\n            s\n        );\n    }\n\n    /**\n     * Helper function for querying an address' balance on a given token.\n     */\n    function getBalance(\n        address token,\n        address owner\n    )\n        internal\n        view\n        returns (uint _balance)\n    {\n        // Limit gas to prevent reentrancy.\n        return ERC20(token).balanceOf.gas(EXTERNAL_QUERY_GAS_LIMIT)(owner);\n    }\n\n    /**\n     * Helper function for querying an address' allowance to the 0x transfer proxy.\n     */\n    function getAllowance(\n        address token,\n        address owner\n    )\n        internal\n        view\n        returns (uint _allowance)\n    {\n        // Limit gas to prevent reentrancy.\n        return ERC20(token).allowance.gas(EXTERNAL_QUERY_GAS_LIMIT)(\n            owner,\n            address(contractRegistry.tokenTransferProxy())\n        );\n    }\n\n    /**\n     * Helper function for approving this address' allowance to the 0x transfer proxy.\n     */\n    function setAllowance(\n        address token,\n        uint amount\n    )\n        internal\n        returns (bool _success)\n    {\n        return ERC20(token).approve(\n            address(contractRegistry.tokenTransferProxy()),\n            amount\n        );\n    }\n\n    /**\n     * Helper function for transfering a specified amount of tokens between two parties\n     * using the token transfer proxy contract.\n     */\n    function transferTokensFrom(\n        address token,\n        address from,\n        address to,\n        uint amount\n    )\n        internal\n        returns (bool _success)\n    {\n        return contractRegistry.tokenTransferProxy().transferFrom(\n            token,\n            from,\n            to,\n            amount\n        );\n    }\n}\n",
  "sourcePath": "/Users/lixianji/coding/chainboard/contract/contracts/CreditorProxy.sol",
  "compiler": {
    "name": "solc",
    "version": "0.4.24+commit.e67f0147.Emscripten.clang"
  },
  "schemaVersion": "2.0.1",
  "updatedAt": "2018-11-12T07:01:02.435Z"
}