{
  "contractName": "DharmaMultiSigWallet",
  "abi": [
    {
      "constant": true,
      "inputs": [
        {
          "name": "",
          "type": "uint256"
        }
      ],
      "name": "owners",
      "outputs": [
        {
          "name": "",
          "type": "address"
        }
      ],
      "payable": false,
      "stateMutability": "view",
      "type": "function"
    },
    {
      "constant": false,
      "inputs": [
        {
          "name": "owner",
          "type": "address"
        }
      ],
      "name": "removeOwner",
      "outputs": [],
      "payable": false,
      "stateMutability": "nonpayable",
      "type": "function"
    },
    {
      "constant": true,
      "inputs": [
        {
          "name": "",
          "type": "uint256"
        }
      ],
      "name": "transactionConfirmedBlockTimestamp",
      "outputs": [
        {
          "name": "",
          "type": "uint256"
        }
      ],
      "payable": false,
      "stateMutability": "view",
      "type": "function"
    },
    {
      "constant": true,
      "inputs": [
        {
          "name": "",
          "type": "address"
        }
      ],
      "name": "isOwner",
      "outputs": [
        {
          "name": "",
          "type": "bool"
        }
      ],
      "payable": false,
      "stateMutability": "view",
      "type": "function"
    },
    {
      "constant": true,
      "inputs": [
        {
          "name": "",
          "type": "uint256"
        },
        {
          "name": "",
          "type": "address"
        }
      ],
      "name": "confirmations",
      "outputs": [
        {
          "name": "",
          "type": "bool"
        }
      ],
      "payable": false,
      "stateMutability": "view",
      "type": "function"
    },
    {
      "constant": true,
      "inputs": [
        {
          "name": "pending",
          "type": "bool"
        },
        {
          "name": "executed",
          "type": "bool"
        }
      ],
      "name": "getTransactionCount",
      "outputs": [
        {
          "name": "count",
          "type": "uint256"
        }
      ],
      "payable": false,
      "stateMutability": "view",
      "type": "function"
    },
    {
      "constant": false,
      "inputs": [
        {
          "name": "owner",
          "type": "address"
        }
      ],
      "name": "addOwner",
      "outputs": [],
      "payable": false,
      "stateMutability": "nonpayable",
      "type": "function"
    },
    {
      "constant": true,
      "inputs": [],
      "name": "timelockInSeconds",
      "outputs": [
        {
          "name": "",
          "type": "uint256"
        }
      ],
      "payable": false,
      "stateMutability": "view",
      "type": "function"
    },
    {
      "constant": true,
      "inputs": [
        {
          "name": "transactionId",
          "type": "uint256"
        }
      ],
      "name": "isConfirmed",
      "outputs": [
        {
          "name": "",
          "type": "bool"
        }
      ],
      "payable": false,
      "stateMutability": "view",
      "type": "function"
    },
    {
      "constant": true,
      "inputs": [
        {
          "name": "transactionId",
          "type": "uint256"
        }
      ],
      "name": "getConfirmationCount",
      "outputs": [
        {
          "name": "count",
          "type": "uint256"
        }
      ],
      "payable": false,
      "stateMutability": "view",
      "type": "function"
    },
    {
      "constant": true,
      "inputs": [
        {
          "name": "",
          "type": "uint256"
        }
      ],
      "name": "transactions",
      "outputs": [
        {
          "name": "destination",
          "type": "address"
        },
        {
          "name": "value",
          "type": "uint256"
        },
        {
          "name": "data",
          "type": "bytes"
        },
        {
          "name": "executed",
          "type": "bool"
        }
      ],
      "payable": false,
      "stateMutability": "view",
      "type": "function"
    },
    {
      "constant": true,
      "inputs": [],
      "name": "getOwners",
      "outputs": [
        {
          "name": "",
          "type": "address[]"
        }
      ],
      "payable": false,
      "stateMutability": "view",
      "type": "function"
    },
    {
      "constant": true,
      "inputs": [
        {
          "name": "from",
          "type": "uint256"
        },
        {
          "name": "to",
          "type": "uint256"
        },
        {
          "name": "pending",
          "type": "bool"
        },
        {
          "name": "executed",
          "type": "bool"
        }
      ],
      "name": "getTransactionIds",
      "outputs": [
        {
          "name": "_transactionIds",
          "type": "uint256[]"
        }
      ],
      "payable": false,
      "stateMutability": "view",
      "type": "function"
    },
    {
      "constant": true,
      "inputs": [
        {
          "name": "transactionId",
          "type": "uint256"
        }
      ],
      "name": "getConfirmations",
      "outputs": [
        {
          "name": "_confirmations",
          "type": "address[]"
        }
      ],
      "payable": false,
      "stateMutability": "view",
      "type": "function"
    },
    {
      "constant": true,
      "inputs": [],
      "name": "transactionCount",
      "outputs": [
        {
          "name": "",
          "type": "uint256"
        }
      ],
      "payable": false,
      "stateMutability": "view",
      "type": "function"
    },
    {
      "constant": false,
      "inputs": [
        {
          "name": "_required",
          "type": "uint256"
        }
      ],
      "name": "changeRequirement",
      "outputs": [],
      "payable": false,
      "stateMutability": "nonpayable",
      "type": "function"
    },
    {
      "constant": false,
      "inputs": [
        {
          "name": "destination",
          "type": "address"
        },
        {
          "name": "value",
          "type": "uint256"
        },
        {
          "name": "data",
          "type": "bytes"
        }
      ],
      "name": "submitTransaction",
      "outputs": [
        {
          "name": "transactionId",
          "type": "uint256"
        }
      ],
      "payable": false,
      "stateMutability": "nonpayable",
      "type": "function"
    },
    {
      "constant": true,
      "inputs": [],
      "name": "MAX_OWNER_COUNT",
      "outputs": [
        {
          "name": "",
          "type": "uint256"
        }
      ],
      "payable": false,
      "stateMutability": "view",
      "type": "function"
    },
    {
      "constant": true,
      "inputs": [],
      "name": "required",
      "outputs": [
        {
          "name": "",
          "type": "uint256"
        }
      ],
      "payable": false,
      "stateMutability": "view",
      "type": "function"
    },
    {
      "constant": false,
      "inputs": [
        {
          "name": "owner",
          "type": "address"
        },
        {
          "name": "newOwner",
          "type": "address"
        }
      ],
      "name": "replaceOwner",
      "outputs": [],
      "payable": false,
      "stateMutability": "nonpayable",
      "type": "function"
    },
    {
      "inputs": [
        {
          "name": "_owners",
          "type": "address[]"
        },
        {
          "name": "_required",
          "type": "uint256"
        },
        {
          "name": "_timelockInSeconds",
          "type": "uint256"
        }
      ],
      "payable": false,
      "stateMutability": "nonpayable",
      "type": "constructor"
    },
    {
      "payable": true,
      "stateMutability": "payable",
      "type": "fallback"
    },
    {
      "anonymous": false,
      "inputs": [
        {
          "indexed": true,
          "name": "transactionId",
          "type": "uint256"
        },
        {
          "indexed": false,
          "name": "confirmationTime",
          "type": "uint256"
        }
      ],
      "name": "ConfirmationTimeSet",
      "type": "event"
    },
    {
      "anonymous": false,
      "inputs": [
        {
          "indexed": false,
          "name": "timelockInSeconds",
          "type": "uint256"
        }
      ],
      "name": "TimeLockChange",
      "type": "event"
    },
    {
      "anonymous": false,
      "inputs": [
        {
          "indexed": true,
          "name": "sender",
          "type": "address"
        },
        {
          "indexed": true,
          "name": "transactionId",
          "type": "uint256"
        }
      ],
      "name": "Confirmation",
      "type": "event"
    },
    {
      "anonymous": false,
      "inputs": [
        {
          "indexed": true,
          "name": "sender",
          "type": "address"
        },
        {
          "indexed": true,
          "name": "transactionId",
          "type": "uint256"
        }
      ],
      "name": "Revocation",
      "type": "event"
    },
    {
      "anonymous": false,
      "inputs": [
        {
          "indexed": true,
          "name": "transactionId",
          "type": "uint256"
        }
      ],
      "name": "Submission",
      "type": "event"
    },
    {
      "anonymous": false,
      "inputs": [
        {
          "indexed": true,
          "name": "transactionId",
          "type": "uint256"
        }
      ],
      "name": "Execution",
      "type": "event"
    },
    {
      "anonymous": false,
      "inputs": [
        {
          "indexed": true,
          "name": "transactionId",
          "type": "uint256"
        }
      ],
      "name": "ExecutionFailure",
      "type": "event"
    },
    {
      "anonymous": false,
      "inputs": [
        {
          "indexed": true,
          "name": "sender",
          "type": "address"
        },
        {
          "indexed": false,
          "name": "value",
          "type": "uint256"
        }
      ],
      "name": "Deposit",
      "type": "event"
    },
    {
      "anonymous": false,
      "inputs": [
        {
          "indexed": true,
          "name": "owner",
          "type": "address"
        }
      ],
      "name": "OwnerAddition",
      "type": "event"
    },
    {
      "anonymous": false,
      "inputs": [
        {
          "indexed": true,
          "name": "owner",
          "type": "address"
        }
      ],
      "name": "OwnerRemoval",
      "type": "event"
    },
    {
      "anonymous": false,
      "inputs": [
        {
          "indexed": false,
          "name": "required",
          "type": "uint256"
        }
      ],
      "name": "RequirementChange",
      "type": "event"
    },
    {
      "constant": false,
      "inputs": [
        {
          "name": "_timelockInSeconds",
          "type": "uint256"
        }
      ],
      "name": "changeTimeLock",
      "outputs": [],
      "payable": false,
      "stateMutability": "nonpayable",
      "type": "function"
    },
    {
      "constant": false,
      "inputs": [
        {
          "name": "transactionId",
          "type": "uint256"
        }
      ],
      "name": "confirmTransaction",
      "outputs": [],
      "payable": false,
      "stateMutability": "nonpayable",
      "type": "function"
    },
    {
      "constant": false,
      "inputs": [
        {
          "name": "transactionId",
          "type": "uint256"
        }
      ],
      "name": "revokeConfirmation",
      "outputs": [],
      "payable": false,
      "stateMutability": "nonpayable",
      "type": "function"
    },
    {
      "constant": false,
      "inputs": [
        {
          "name": "transactionId",
          "type": "uint256"
        }
      ],
      "name": "executeTransaction",
      "outputs": [],
      "payable": false,
      "stateMutability": "nonpayable",
      "type": "function"
    },
    {
      "constant": false,
      "inputs": [
        {
          "name": "transactionId",
          "type": "uint256"
        }
      ],
      "name": "executePauseTransactionImmediately",
      "outputs": [],
      "payable": false,
      "stateMutability": "nonpayable",
      "type": "function"
    }
  ],
  "bytecode": "0x60806040523480156200001157600080fd5b506040516200288c3803806200288c8339810180604052810190808051820192919060200180519060200190929190805190602001909291905050508282600082518260328211158015620000665750818111155b801562000074575060008114155b801562000082575060008214155b15156200008e57600080fd5b600092505b8451831015620001c957600260008685815181101515620000b057fe5b9060200190602002015173ffffffffffffffffffffffffffffffffffffffff1673ffffffffffffffffffffffffffffffffffffffff16815260200190815260200160002060009054906101000a900460ff161580156200013f5750600085848151811015156200011c57fe5b9060200190602002015173ffffffffffffffffffffffffffffffffffffffff1614155b15156200014b57600080fd5b60016002600087868151811015156200016057fe5b9060200190602002015173ffffffffffffffffffffffffffffffffffffffff1673ffffffffffffffffffffffffffffffffffffffff16815260200190815260200160002060006101000a81548160ff021916908315150217905550828060010193505062000093565b8460039080519060200190620001e1929190620001fe565b5083600481905550505050505080600681905550505050620002d3565b8280548282559060005260206000209081019282156200027a579160200282015b82811115620002795782518260006101000a81548173ffffffffffffffffffffffffffffffffffffffff021916908373ffffffffffffffffffffffffffffffffffffffff160217905550916020019190600101906200021f565b5b5090506200028991906200028d565b5090565b620002d091905b80821115620002cc57600081816101000a81549073ffffffffffffffffffffffffffffffffffffffff02191690555060010162000294565b5090565b90565b6125a980620002e36000396000f300608060405260043610610149576000357c0100000000000000000000000000000000000000000000000000000000900463ffffffff168063025e7c27146101a3578063173825d91461021057806319b83a7b1461025357806320ea8d8614610294578063215ff46f146102c15780632f54bf6e146102ee5780633411c81c1461034957806354741525146103ae5780637065cb48146103fd578063733e1b6814610440578063784547a71461046b5780637ad28c51146104b05780638b51d13f146104dd5780639ace38c21461051e578063a0e67e2b14610609578063a8abe69a14610675578063b5dc40c314610719578063b77bf6001461079b578063ba51a6df146107c6578063c01a8c84146107f3578063c642747414610820578063d74f8edd146108c7578063dc8452cd146108f2578063e20056e61461091d578063ee22610b14610980575b60003411156101a1573373ffffffffffffffffffffffffffffffffffffffff167fe1fffcc4923d04b559f4d29a8bfc6cda04eb5b0d3c460751c2402c5c5cc9109c346040518082815260200191505060405180910390a25b005b3480156101af57600080fd5b506101ce600480360381019080803590602001909291905050506109ad565b604051808273ffffffffffffffffffffffffffffffffffffffff1673ffffffffffffffffffffffffffffffffffffffff16815260200191505060405180910390f35b34801561021c57600080fd5b50610251600480360381019080803573ffffffffffffffffffffffffffffffffffffffff1690602001909291905050506109eb565b005b34801561025f57600080fd5b5061027e60048036038101908080359060200190929190505050610c84565b6040518082815260200191505060405180910390f35b3480156102a057600080fd5b506102bf60048036038101908080359060200190929190505050610c9c565b005b3480156102cd57600080fd5b506102ec60048036038101908080359060200190929190505050610e5b565b005b3480156102fa57600080fd5b5061032f600480360381019080803573ffffffffffffffffffffffffffffffffffffffff169060200190929190505050610f77565b604051808215151515815260200191505060405180910390f35b34801561035557600080fd5b5061039460048036038101908080359060200190929190803573ffffffffffffffffffffffffffffffffffffffff169060200190929190505050610f97565b604051808215151515815260200191505060405180910390f35b3480156103ba57600080fd5b506103e7600480360381019080803515159060200190929190803515159060200190929190505050610fc6565b6040518082815260200191505060405180910390f35b34801561040957600080fd5b5061043e600480360381019080803573ffffffffffffffffffffffffffffffffffffffff169060200190929190505050611058565b005b34801561044c57600080fd5b5061045561125d565b6040518082815260200191505060405180910390f35b34801561047757600080fd5b5061049660048036038101908080359060200190929190505050611263565b604051808215151515815260200191505060405180910390f35b3480156104bc57600080fd5b506104db60048036038101908080359060200190929190505050611348565b005b3480156104e957600080fd5b50610508600480360381019080803590602001909291905050506113c3565b6040518082815260200191505060405180910390f35b34801561052a57600080fd5b506105496004803603810190808035906020019092919050505061148e565b604051808573ffffffffffffffffffffffffffffffffffffffff1673ffffffffffffffffffffffffffffffffffffffff1681526020018481526020018060200183151515158152602001828103825284818151815260200191508051906020019080838360005b838110156105cb5780820151818401526020810190506105b0565b50505050905090810190601f1680156105f85780820380516001836020036101000a031916815260200191505b509550505050505060405180910390f35b34801561061557600080fd5b5061061e611583565b6040518080602001828103825283818151815260200191508051906020019060200280838360005b83811015610661578082015181840152602081019050610646565b505050509050019250505060405180910390f35b34801561068157600080fd5b506106c26004803603810190808035906020019092919080359060200190929190803515159060200190929190803515159060200190929190505050611611565b6040518080602001828103825283818151815260200191508051906020019060200280838360005b838110156107055780820151818401526020810190506106ea565b505050509050019250505060405180910390f35b34801561072557600080fd5b5061074460048036038101908080359060200190929190505050611791565b6040518080602001828103825283818151815260200191508051906020019060200280838360005b8381101561078757808201518184015260208101905061076c565b505050509050019250505060405180910390f35b3480156107a757600080fd5b506107b06119ce565b6040518082815260200191505060405180910390f35b3480156107d257600080fd5b506107f1600480360381019080803590602001909291905050506119d4565b005b3480156107ff57600080fd5b5061081e60048036038101908080359060200190929190505050611a8e565b005b34801561082c57600080fd5b506108b1600480360381019080803573ffffffffffffffffffffffffffffffffffffffff16906020019092919080359060200190929190803590602001908201803590602001908080601f0160208091040260200160405190810160405280939291908181526020018383808284378201915050505050509192919290505050611c92565b6040518082815260200191505060405180910390f35b3480156108d357600080fd5b506108dc611cb1565b6040518082815260200191505060405180910390f35b3480156108fe57600080fd5b50610907611cb6565b6040518082815260200191505060405180910390f35b34801561092957600080fd5b5061097e600480360381019080803573ffffffffffffffffffffffffffffffffffffffff169060200190929190803573ffffffffffffffffffffffffffffffffffffffff169060200190929190505050611cbc565b005b34801561098c57600080fd5b506109ab60048036038101908080359060200190929190505050611fd1565b005b6003818154811015156109bc57fe5b906000526020600020016000915054906101000a900473ffffffffffffffffffffffffffffffffffffffff1681565b60003073ffffffffffffffffffffffffffffffffffffffff163373ffffffffffffffffffffffffffffffffffffffff16141515610a2757600080fd5b81600260008273ffffffffffffffffffffffffffffffffffffffff1673ffffffffffffffffffffffffffffffffffffffff16815260200190815260200160002060009054906101000a900460ff161515610a8057600080fd5b6000600260008573ffffffffffffffffffffffffffffffffffffffff1673ffffffffffffffffffffffffffffffffffffffff16815260200190815260200160002060006101000a81548160ff021916908315150217905550600091505b600160038054905003821015610c05578273ffffffffffffffffffffffffffffffffffffffff16600383815481101515610b1357fe5b9060005260206000200160009054906101000a900473ffffffffffffffffffffffffffffffffffffffff1673ffffffffffffffffffffffffffffffffffffffff161415610bf8576003600160038054905003815481101515610b7157fe5b9060005260206000200160009054906101000a900473ffffffffffffffffffffffffffffffffffffffff16600383815481101515610bab57fe5b9060005260206000200160006101000a81548173ffffffffffffffffffffffffffffffffffffffff021916908373ffffffffffffffffffffffffffffffffffffffff160217905550610c05565b8180600101925050610add565b6001600381818054905003915081610c1d91906124ac565b506003805490506004541115610c3c57610c3b6003805490506119d4565b5b8273ffffffffffffffffffffffffffffffffffffffff167f8001553a916ef2f495d26a907cc54d96ed840d7bda71e73194bf5a9df7a76b9060405160405180910390a2505050565b60076020528060005260406000206000915090505481565b33600260008273ffffffffffffffffffffffffffffffffffffffff1673ffffffffffffffffffffffffffffffffffffffff16815260200190815260200160002060009054906101000a900460ff161515610cf557600080fd5b81336001600083815260200190815260200160002060008273ffffffffffffffffffffffffffffffffffffffff1673ffffffffffffffffffffffffffffffffffffffff16815260200190815260200160002060009054906101000a900460ff161515610d6057600080fd5b8360008082815260200190815260200160002060030160009054906101000a900460ff16151515610d9057600080fd5b84610d9a81611263565b151515610da657600080fd5b60006001600088815260200190815260200160002060003373ffffffffffffffffffffffffffffffffffffffff1673ffffffffffffffffffffffffffffffffffffffff16815260200190815260200160002060006101000a81548160ff021916908315150217905550853373ffffffffffffffffffffffffffffffffffffffff167ff6a317157440607f36269043eb55f1287a5a19ba2216afeab88cd46cbcfb88e960405160405180910390a3505050505050565b8060008082815260200190815260200160002060030160009054906101000a900460ff16151515610e8b57600080fd5b81610e9581611263565b1515610ea057600080fd5b8260008060008381526020019081526020016000209050610f5c816002018054600181600116156101000203166002900480601f016020809104026020016040519081016040528092919081815260200182805460018160011615610100020316600290048015610f525780601f10610f2757610100808354040283529160200191610f52565b820191906000526020600020905b815481529060010190602001808311610f3557829003601f168201915b505050505061204c565b1515610f6757600080fd5b610f708561218e565b5050505050565b60026020528060005260406000206000915054906101000a900460ff1681565b60016020528160005260406000206020528060005260406000206000915091509054906101000a900460ff1681565b600080600090505b60055481101561105157838015611005575060008082815260200190815260200160002060030160009054906101000a900460ff16155b806110385750828015611037575060008082815260200190815260200160002060030160009054906101000a900460ff165b5b15611044576001820191505b8080600101915050610fce565b5092915050565b3073ffffffffffffffffffffffffffffffffffffffff163373ffffffffffffffffffffffffffffffffffffffff1614151561109257600080fd5b80600260008273ffffffffffffffffffffffffffffffffffffffff1673ffffffffffffffffffffffffffffffffffffffff16815260200190815260200160002060009054906101000a900460ff161515156110ec57600080fd5b8160008173ffffffffffffffffffffffffffffffffffffffff161415151561111357600080fd5b600160038054905001600454603282111580156111305750818111155b801561113d575060008114155b801561114a575060008214155b151561115557600080fd5b6001600260008773ffffffffffffffffffffffffffffffffffffffff1673ffffffffffffffffffffffffffffffffffffffff16815260200190815260200160002060006101000a81548160ff02191690831515021790555060038590806001815401808255809150509060018203906000526020600020016000909192909190916101000a81548173ffffffffffffffffffffffffffffffffffffffff021916908373ffffffffffffffffffffffffffffffffffffffff160217905550508473ffffffffffffffffffffffffffffffffffffffff167ff39e6e1eb0edcf53c221607b54b00cd28f3196fed0a24994dc308b8f611b682d60405160405180910390a25050505050565b60065481565b6000806000809150600090505b600380549050811015611340576001600085815260200190815260200160002060006003838154811015156112a157fe5b9060005260206000200160009054906101000a900473ffffffffffffffffffffffffffffffffffffffff1673ffffffffffffffffffffffffffffffffffffffff1673ffffffffffffffffffffffffffffffffffffffff16815260200190815260200160002060009054906101000a900460ff1615611320576001820191505b6004548214156113335760019250611341565b8080600101915050611270565b5b5050919050565b3073ffffffffffffffffffffffffffffffffffffffff163373ffffffffffffffffffffffffffffffffffffffff1614151561138257600080fd5b806006819055507fd1c9101a34feff75cccef14a28785a0279cb0b49c1f321f21f5f422e746b4377816040518082815260200191505060405180910390a150565b600080600090505b600380549050811015611488576001600084815260200190815260200160002060006003838154811015156113fc57fe5b9060005260206000200160009054906101000a900473ffffffffffffffffffffffffffffffffffffffff1673ffffffffffffffffffffffffffffffffffffffff1673ffffffffffffffffffffffffffffffffffffffff16815260200190815260200160002060009054906101000a900460ff161561147b576001820191505b80806001019150506113cb565b50919050565b60006020528060005260406000206000915090508060000160009054906101000a900473ffffffffffffffffffffffffffffffffffffffff1690806001015490806002018054600181600116156101000203166002900480601f0160208091040260200160405190810160405280929190818152602001828054600181600116156101000203166002900480156115665780601f1061153b57610100808354040283529160200191611566565b820191906000526020600020905b81548152906001019060200180831161154957829003601f168201915b5050505050908060030160009054906101000a900460ff16905084565b6060600380548060200260200160405190810160405280929190818152602001828054801561160757602002820191906000526020600020905b8160009054906101000a900473ffffffffffffffffffffffffffffffffffffffff1673ffffffffffffffffffffffffffffffffffffffff16815260200190600101908083116115bd575b5050505050905090565b60608060008086881115151561162657600080fd5b6005546040519080825280602002602001820160405280156116575781602001602082028038833980820191505090505b50925060009150600090505b6005548110156117035785801561169a575060008082815260200190815260200160002060030160009054906101000a900460ff16155b806116cd57508480156116cc575060008082815260200190815260200160002060030160009054906101000a900460ff165b5b156116f6578083838151811015156116e157fe5b90602001906020020181815250506001820191505b8080600101915050611663565b8787036040519080825280602002602001820160405280156117345781602001602082028038833980820191505090505b5093508790505b8681101561178657828181518110151561175157fe5b906020019060200201518489830381518110151561176b57fe5b9060200190602002018181525050808060010191505061173b565b505050949350505050565b6060806000806003805490506040519080825280602002602001820160405280156117cb5781602001602082028038833980820191505090505b50925060009150600090505b6003805490508110156119185760016000868152602001908152602001600020600060038381548110151561180857fe5b9060005260206000200160009054906101000a900473ffffffffffffffffffffffffffffffffffffffff1673ffffffffffffffffffffffffffffffffffffffff1673ffffffffffffffffffffffffffffffffffffffff16815260200190815260200160002060009054906101000a900460ff161561190b5760038181548110151561188f57fe5b9060005260206000200160009054906101000a900473ffffffffffffffffffffffffffffffffffffffff1683838151811015156118c857fe5b9060200190602002019073ffffffffffffffffffffffffffffffffffffffff16908173ffffffffffffffffffffffffffffffffffffffff16815250506001820191505b80806001019150506117d7565b816040519080825280602002602001820160405280156119475781602001602082028038833980820191505090505b509350600090505b818110156119c657828181518110151561196557fe5b90602001906020020151848281518110151561197d57fe5b9060200190602002019073ffffffffffffffffffffffffffffffffffffffff16908173ffffffffffffffffffffffffffffffffffffffff1681525050808060010191505061194f565b505050919050565b60055481565b3073ffffffffffffffffffffffffffffffffffffffff163373ffffffffffffffffffffffffffffffffffffffff16141515611a0e57600080fd5b6003805490508160328211158015611a265750818111155b8015611a33575060008114155b8015611a40575060008214155b1515611a4b57600080fd5b826004819055507fa3f1ee9126a074d9326c682f561767f710e927faa811f7a99829d49dc421797a836040518082815260200191505060405180910390a1505050565b33600260008273ffffffffffffffffffffffffffffffffffffffff1673ffffffffffffffffffffffffffffffffffffffff16815260200190815260200160002060009054906101000a900460ff161515611ae757600080fd5b81600080600083815260200190815260200160002060000160009054906101000a900473ffffffffffffffffffffffffffffffffffffffff1673ffffffffffffffffffffffffffffffffffffffff1614151515611b4357600080fd5b82336001600083815260200190815260200160002060008273ffffffffffffffffffffffffffffffffffffffff1673ffffffffffffffffffffffffffffffffffffffff16815260200190815260200160002060009054906101000a900460ff16151515611baf57600080fd5b84611bb981611263565b151515611bc557600080fd5b600180600088815260200190815260200160002060003373ffffffffffffffffffffffffffffffffffffffff1673ffffffffffffffffffffffffffffffffffffffff16815260200190815260200160002060006101000a81548160ff021916908315150217905550853373ffffffffffffffffffffffffffffffffffffffff167f4a504a94899432a9846e1aa406dceb1bcfd538bb839071d49d1e5e23f5be30ef60405160405180910390a3611c7a86611263565b15611c8a57611c898642612306565b5b505050505050565b6000611c9f84848461235a565b9050611caa81611a8e565b9392505050565b603281565b60045481565b60003073ffffffffffffffffffffffffffffffffffffffff163373ffffffffffffffffffffffffffffffffffffffff16141515611cf857600080fd5b82600260008273ffffffffffffffffffffffffffffffffffffffff1673ffffffffffffffffffffffffffffffffffffffff16815260200190815260200160002060009054906101000a900460ff161515611d5157600080fd5b82600260008273ffffffffffffffffffffffffffffffffffffffff1673ffffffffffffffffffffffffffffffffffffffff16815260200190815260200160002060009054906101000a900460ff16151515611dab57600080fd5b600092505b600380549050831015611e94578473ffffffffffffffffffffffffffffffffffffffff16600384815481101515611de357fe5b9060005260206000200160009054906101000a900473ffffffffffffffffffffffffffffffffffffffff1673ffffffffffffffffffffffffffffffffffffffff161415611e875783600384815481101515611e3a57fe5b9060005260206000200160006101000a81548173ffffffffffffffffffffffffffffffffffffffff021916908373ffffffffffffffffffffffffffffffffffffffff160217905550611e94565b8280600101935050611db0565b6000600260008773ffffffffffffffffffffffffffffffffffffffff1673ffffffffffffffffffffffffffffffffffffffff16815260200190815260200160002060006101000a81548160ff0219169083151502179055506001600260008673ffffffffffffffffffffffffffffffffffffffff1673ffffffffffffffffffffffffffffffffffffffff16815260200190815260200160002060006101000a81548160ff0219169083151502179055508473ffffffffffffffffffffffffffffffffffffffff167f8001553a916ef2f495d26a907cc54d96ed840d7bda71e73194bf5a9df7a76b9060405160405180910390a28373ffffffffffffffffffffffffffffffffffffffff167ff39e6e1eb0edcf53c221607b54b00cd28f3196fed0a24994dc308b8f611b682d60405160405180910390a25050505050565b8060008082815260200190815260200160002060030160009054906101000a900460ff1615151561200157600080fd5b8161200b81611263565b151561201657600080fd5b82600654600760008381526020019081526020016000205401421015151561203d57600080fd5b6120468461218e565b50505050565b600080600060405180807f7061757365282900000000000000000000000000000000000000000000000000815250600701905060405180910390209150600090505b60048110156121825781816004811015156120a557fe5b1a7f0100000000000000000000000000000000000000000000000000000000000000027effffffffffffffffffffffffffffffffffffffffffffffffffffffffffffff191684828151811015156120f857fe5b9060200101517f010000000000000000000000000000000000000000000000000000000000000090047f0100000000000000000000000000000000000000000000000000000000000000027effffffffffffffffffffffffffffffffffffffffffffffffffffffffffffff19161415156121755760009250612187565b808060010191505061208e565b600192505b5050919050565b6000806000838152602001908152602001600020905060018160030160006101000a81548160ff0219169083151502179055508060000160009054906101000a900473ffffffffffffffffffffffffffffffffffffffff1673ffffffffffffffffffffffffffffffffffffffff16816001015482600201604051808280546001816001161561010002031660029004801561226a5780601f1061223f5761010080835404028352916020019161226a565b820191906000526020600020905b81548152906001019060200180831161224d57829003601f168201915b505091505060006040518083038185875af192505050156122b757817f33e13ecb54c3076d8e8bb8c2881800a4d972b792045ffae98fdf46df365fed7560405160405180910390a2612302565b817f526441bb6c1aba3c9a4a6ca1d6545da9c2333c8c48343ef398eb858d72b7923660405160405180910390a260008160030160006101000a81548160ff0219169083151502179055505b5050565b806007600084815260200190815260200160002081905550817f0b237afe65f1514fd7ea3f923ea4fe792bdd07000a912b6cd1602a8e7f573c8d826040518082815260200191505060405180910390a25050565b60008360008173ffffffffffffffffffffffffffffffffffffffff161415151561238357600080fd5b60055491506080604051908101604052808673ffffffffffffffffffffffffffffffffffffffff1681526020018581526020018481526020016000151581525060008084815260200190815260200160002060008201518160000160006101000a81548173ffffffffffffffffffffffffffffffffffffffff021916908373ffffffffffffffffffffffffffffffffffffffff1602179055506020820151816001015560408201518160020190805190602001906124429291906124d8565b5060608201518160030160006101000a81548160ff0219169083151502179055509050506001600560008282540192505081905550817fc0ba8fe4b176c1714197d43b9cc6bcf797a4a7461c5fe8d0ef6e184ae7601e5160405160405180910390a2509392505050565b8154818355818111156124d3578183600052602060002091820191016124d29190612558565b5b505050565b828054600181600116156101000203166002900490600052602060002090601f016020900481019282601f1061251957805160ff1916838001178555612547565b82800160010185558215612547579182015b8281111561254657825182559160200191906001019061252b565b5b5090506125549190612558565b5090565b61257a91905b8082111561257657600081600090555060010161255e565b5090565b905600a165627a7a723058209bc1758d4e92e7ba74d59b5a698dd5c5bad0ff43419bba03fdd949256354d4d80029",
  "source": "/*\n\n  Copyright 2018 Dharma Labs Inc.\n\n  Licensed under the Apache License, Version 2.0 (the \"License\");\n  you may not use this file except in compliance with the License.\n  You may obtain a copy of the License at\n\n    http://www.apache.org/licenses/LICENSE-2.0\n\n  Unless required by applicable law or agreed to in writing, software\n  distributed under the License is distributed on an \"AS IS\" BASIS,\n  WITHOUT WARRANTIES OR CONDITIONS OF ANY KIND, either express or implied.\n  See the License for the specific language governing permissions and\n  limitations under the License.\n\n*/\n\npragma solidity 0.4.24;\n\nimport \"./MultiSigWallet.sol\";\n\n\ncontract DharmaMultiSigWallet is MultiSigWallet {\n\n    event ConfirmationTimeSet(uint indexed transactionId, uint confirmationTime);\n    event TimeLockChange(uint timelockInSeconds);\n\n    uint public timelockInSeconds;\n\n    mapping (uint => uint) public transactionConfirmedBlockTimestamp;\n\n    modifier sufficientlyConfirmed(uint transactionId) {\n        require(isConfirmed(transactionId));\n        _;\n    }\n\n    modifier insufficientlyConfirmed(uint transactionId) {\n        require(!isConfirmed(transactionId));\n        _;\n    }\n\n    modifier pastTimeLock(uint transactionId) {\n        require(block.timestamp >= transactionConfirmedBlockTimestamp[transactionId] + timelockInSeconds);\n        _;\n    }\n\n    modifier validPauseTransaction(uint transactionId) {\n        Transaction storage txn = transactions[transactionId];\n\n        require(_isPauseFunctionTransaction(txn.data));\n        _;\n    }\n\n    function DharmaMultiSigWallet(\n        address[] _owners,\n        uint _required,\n        uint _timelockInSeconds\n    )\n        public\n        MultiSigWallet(_owners, _required)\n    {\n        timelockInSeconds = _timelockInSeconds;\n    }\n\n    ////////////////////////\n    // EXTERNAL FUNCTIONS //\n    ////////////////////////\n\n    /**\n     * Changes the duration of the time lock for transactions.  Can only be called by the wallet.\n     */\n    function changeTimeLock(uint _timelockInSeconds)\n        public\n        onlyWallet\n    {\n        timelockInSeconds = _timelockInSeconds;\n        TimeLockChange(_timelockInSeconds);\n    }\n\n    /**\n     * Allows an owner to confirm a transaction if the transaction has\n     * not yet received a sufficient threshold of confirmations.\n     */\n    function confirmTransaction(uint transactionId)\n        public\n        ownerExists(msg.sender)\n        transactionExists(transactionId)\n        notConfirmed(transactionId, msg.sender)\n        insufficientlyConfirmed(transactionId)\n    {\n        confirmations[transactionId][msg.sender] = true;\n        Confirmation(msg.sender, transactionId);\n\n        // If the transaction is now sufficiently confirmed, we record\n        // the timestamp in order to kick off the timelock period\n        if (isConfirmed(transactionId)) {\n            _setConfirmationTime(transactionId, block.timestamp);\n        }\n    }\n\n    /**\n     * Allows an owner to revoke a confirmation they've submitted\n     * previously for the transaction if the transaction has not\n     * already been sufficiently confirmed (and entered the timelock\n     * period).\n     */\n    function revokeConfirmation(uint transactionId)\n        public\n        ownerExists(msg.sender)\n        confirmed(transactionId, msg.sender)\n        notExecuted(transactionId)\n        insufficientlyConfirmed(transactionId)\n    {\n        confirmations[transactionId][msg.sender] = false;\n        Revocation(msg.sender, transactionId);\n    }\n\n    /**\n     * Allows anyone to execute a transaction if it has been\n     * confirmed and the timelock has passed.\n     */\n    function executeTransaction(uint transactionId)\n        public\n        notExecuted(transactionId)\n        sufficientlyConfirmed(transactionId)\n        pastTimeLock(transactionId)\n    {\n        _executeTransaction(transactionId);\n    }\n\n    /**\n     * In case of an emergency, allows anyone to execute a transaction if it has\n     * been confirmed and matches the \"pause\" function signature WITHOUT waiting\n     * for the timelock to pass.\n     */\n    function executePauseTransactionImmediately(uint transactionId)\n        public\n        notExecuted(transactionId)\n        sufficientlyConfirmed(transactionId)\n        validPauseTransaction(transactionId)\n    {\n        _executeTransaction(transactionId);\n    }\n\n    ////////////////////////\n    // INTERNAL FUNCTIONS //\n    ////////////////////////\n\n    /**\n     * Internal helper function that attempts to execute a confirmed transaction.\n     */\n    function _executeTransaction(uint transactionId)\n        internal\n    {\n        Transaction storage txn = transactions[transactionId];\n        txn.executed = true;\n        if (txn.destination.call.value(txn.value)(txn.data))\n            Execution(transactionId);\n        else {\n            ExecutionFailure(transactionId);\n            txn.executed = false;\n        }\n    }\n\n    /**\n     * Internal function that records the time at which\n     * a transaction reached the minimal threshold of\n     * confirmations.\n     */\n    function _setConfirmationTime(uint transactionId, uint confirmationTime)\n        internal\n    {\n        transactionConfirmedBlockTimestamp[transactionId] = confirmationTime;\n        ConfirmationTimeSet(transactionId, confirmationTime);\n    }\n\n    /**\n     * Returns true if the first four bytes of the given data matches\n     * the function selector Method ID for the \"pause\" method --\n     * for more information, see the Ethereum wiki's contract ABI specification:\n     * https://github.com/ethereum/wiki/wiki/Ethereum-Contract-ABI\n     */\n    function _isPauseFunctionTransaction(bytes data)\n        internal\n        view\n        returns (bool)\n    {\n        bytes4 pauseFunctionSignature = bytes4(keccak256(\"pause()\"));\n        for (uint i = 0; i < 4; i++) {\n            if (data[i] != pauseFunctionSignature[i]) {\n                return false;\n            }\n        }\n\n        return true;\n    }\n}\n",
  "sourcePath": "/Users/lixianji/coding/chainboard/contract/contracts/wallet/DharmaMultiSigWallet.sol",
  "compiler": {
    "name": "solc",
    "version": "0.4.24+commit.e67f0147.Emscripten.clang"
  },
  "schemaVersion": "2.0.1",
  "updatedAt": "2018-10-17T08:49:46.088Z"
}