{
  "contractName": "MockTermsContract",
  "abi": [
    {
      "constant": true,
      "inputs": [
        {
          "name": "functionName",
          "type": "string"
        },
        {
          "name": "argsSignature",
          "type": "bytes32"
        }
      ],
      "name": "getMockReturnValue",
      "outputs": [
        {
          "name": "_mockReturnValue",
          "type": "bytes32"
        }
      ],
      "payable": false,
      "stateMutability": "view",
      "type": "function"
    },
    {
      "constant": false,
      "inputs": [
        {
          "name": "functionName",
          "type": "string"
        },
        {
          "name": "argsSignature",
          "type": "bytes32"
        },
        {
          "name": "returnValue",
          "type": "bytes32"
        }
      ],
      "name": "mockReturnValue",
      "outputs": [],
      "payable": false,
      "stateMutability": "nonpayable",
      "type": "function"
    },
    {
      "constant": false,
      "inputs": [],
      "name": "reset",
      "outputs": [],
      "payable": false,
      "stateMutability": "nonpayable",
      "type": "function"
    },
    {
      "constant": false,
      "inputs": [
        {
          "name": "agreementId",
          "type": "bytes32"
        },
        {
          "name": "payer",
          "type": "address"
        },
        {
          "name": "beneficiary",
          "type": "address"
        },
        {
          "name": "unitsOfRepayment",
          "type": "uint256"
        },
        {
          "name": "tokenAddress",
          "type": "address"
        }
      ],
      "name": "registerRepayment",
      "outputs": [
        {
          "name": "_success",
          "type": "bool"
        }
      ],
      "payable": false,
      "stateMutability": "nonpayable",
      "type": "function"
    },
    {
      "constant": false,
      "inputs": [
        {
          "name": "success",
          "type": "bool"
        }
      ],
      "name": "mockRegisterRepaymentReturnValue",
      "outputs": [],
      "payable": false,
      "stateMutability": "nonpayable",
      "type": "function"
    },
    {
      "constant": false,
      "inputs": [
        {
          "name": "agreementId",
          "type": "bytes32"
        },
        {
          "name": "timestamp",
          "type": "uint256"
        }
      ],
      "name": "mockTermEndTimestamp",
      "outputs": [],
      "payable": false,
      "stateMutability": "nonpayable",
      "type": "function"
    },
    {
      "constant": true,
      "inputs": [
        {
          "name": "agreementId",
          "type": "bytes32"
        },
        {
          "name": "payer",
          "type": "address"
        },
        {
          "name": "beneficiary",
          "type": "address"
        },
        {
          "name": "unitsOfRepayment",
          "type": "uint256"
        },
        {
          "name": "tokenAddress",
          "type": "address"
        }
      ],
      "name": "wasRegisterRepaymentCalledWith",
      "outputs": [
        {
          "name": "wasCalled",
          "type": "bool"
        }
      ],
      "payable": false,
      "stateMutability": "view",
      "type": "function"
    },
    {
      "constant": false,
      "inputs": [
        {
          "name": "agreementId",
          "type": "bytes32"
        },
        {
          "name": "debtor",
          "type": "address"
        }
      ],
      "name": "registerTermStart",
      "outputs": [
        {
          "name": "_registered",
          "type": "bool"
        }
      ],
      "payable": false,
      "stateMutability": "nonpayable",
      "type": "function"
    },
    {
      "constant": false,
      "inputs": [
        {
          "name": "agreementId",
          "type": "bytes32"
        },
        {
          "name": "debtor",
          "type": "address"
        },
        {
          "name": "success",
          "type": "bool"
        }
      ],
      "name": "mockRegisterTermStartReturnValue",
      "outputs": [],
      "payable": false,
      "stateMutability": "nonpayable",
      "type": "function"
    },
    {
      "constant": true,
      "inputs": [
        {
          "name": "agreementId",
          "type": "bytes32"
        }
      ],
      "name": "getTermEndTimestamp",
      "outputs": [
        {
          "name": "",
          "type": "uint256"
        }
      ],
      "payable": false,
      "stateMutability": "view",
      "type": "function"
    },
    {
      "constant": true,
      "inputs": [
        {
          "name": "agreementId",
          "type": "bytes32"
        },
        {
          "name": "debtor",
          "type": "address"
        }
      ],
      "name": "wasRegisterTermStartCalledWith",
      "outputs": [
        {
          "name": "_wasCalled",
          "type": "bool"
        }
      ],
      "payable": false,
      "stateMutability": "view",
      "type": "function"
    }
  ],
  "bytecode": "0x608060405234801561001057600080fd5b506113a1806100206000396000f3006080604052600436106100af576000357c0100000000000000000000000000000000000000000000000000000000900463ffffffff16806304aa85fa146100b457806313101858146100e35780632762dd8c146101765780635f0280ba146101bb57806360a068611461026e5780637f8601a1146102cb57806380da20d41461037e578063977a5e6414610403578063b433022f1461046c578063c45d83ef146104a7578063d826f88f14610510575b600080fd5b3480156100c057600080fd5b506100e1600480360381019080803515159060200190929190505050610527565b005b3480156100ef57600080fd5b50610158600480360381019080803590602001908201803590602001908080601f01602080910402602001604051908101604052809392919081815260200183838082843782019150505050505091929192908035600019169060200190929190505050610581565b60405180826000191660001916815260200191505060405180910390f35b34801561018257600080fd5b506101a56004803603810190808035600019169060200190929190505050610610565b6040518082815260200191505060405180910390f35b3480156101c757600080fd5b506102546004803603810190808035600019169060200190929190803573ffffffffffffffffffffffffffffffffffffffff169060200190929190803573ffffffffffffffffffffffffffffffffffffffff16906020019092919080359060200190929190803573ffffffffffffffffffffffffffffffffffffffff169060200190929190505050610635565b604051808215151515815260200191505060405180910390f35b34801561027a57600080fd5b506102c96004803603810190808035600019169060200190929190803573ffffffffffffffffffffffffffffffffffffffff1690602001909291908035151590602001909291905050506107bf565b005b3480156102d757600080fd5b506103646004803603810190808035600019169060200190929190803573ffffffffffffffffffffffffffffffffffffffff169060200190929190803573ffffffffffffffffffffffffffffffffffffffff16906020019092919080359060200190929190803573ffffffffffffffffffffffffffffffffffffffff169060200190929190505050610877565b604051808215151515815260200191505060405180910390f35b34801561038a57600080fd5b50610401600480360381019080803590602001908201803590602001908080601f0160208091040260200160405190810160405280939291908181526020018383808284378201915050505050509192919290803560001916906020019092919080356000191690602001909291905050506109b1565b005b34801561040f57600080fd5b506104526004803603810190808035600019169060200190929190803573ffffffffffffffffffffffffffffffffffffffff169060200190929190505050610ade565b604051808215151515815260200191505060405180910390f35b34801561047857600080fd5b506104a5600480360381019080803560001916906020019092919080359060200190929190505050610c33565b005b3480156104b357600080fd5b506104f66004803603810190808035600019169060200190929190803573ffffffffffffffffffffffffffffffffffffffff169060200190929190505050610c57565b604051808215151515815260200191505060405180910390f35b34801561051c57600080fd5b50610525610d00565b005b61057e6040805190810160405280601181526020017f726567697374657252657061796d656e74000000000000000000000000000000815250600060010283610574576000600102610579565b600180025b6109b1565b50565b60006001836040518082805190602001908083835b6020831015156105bb5780518252602082019150602081019050602083039250610596565b6001836020036101000a03801982511681845116808217855250505050505090500191505090815260200160405180910390206000836000191660001916815260200190815260200160002054905092915050565b6000600360008360001916600019168152602001908152602001600020549050919050565b60006107646040805190810160405280601181526020017f726567697374657252657061796d656e7400000000000000000000000000000081525087878787876040518086600019166000191681526020018573ffffffffffffffffffffffffffffffffffffffff1673ffffffffffffffffffffffffffffffffffffffff166c010000000000000000000000000281526014018473ffffffffffffffffffffffffffffffffffffffff1673ffffffffffffffffffffffffffffffffffffffff166c010000000000000000000000000281526014018381526020018273ffffffffffffffffffffffffffffffffffffffff1673ffffffffffffffffffffffffffffffffffffffff166c01000000000000000000000000028152601401955050505050506040518091039020610ff0565b60018002600019166107af6040805190810160405280601181526020017f726567697374657252657061796d656e740000000000000000000000000000008152506000600102610581565b6000191614905095945050505050565b6108726040805190810160405280601181526020017f72656769737465725465726d537461727400000000000000000000000000000081525084846040518083600019166000191681526020018273ffffffffffffffffffffffffffffffffffffffff1673ffffffffffffffffffffffffffffffffffffffff166c010000000000000000000000000281526014019250505060405180910390208361086857600060010261086d565b600180025b6109b1565b505050565b60006109a66040805190810160405280601181526020017f726567697374657252657061796d656e7400000000000000000000000000000081525087878787876040518086600019166000191681526020018573ffffffffffffffffffffffffffffffffffffffff1673ffffffffffffffffffffffffffffffffffffffff166c010000000000000000000000000281526014018473ffffffffffffffffffffffffffffffffffffffff1673ffffffffffffffffffffffffffffffffffffffff166c010000000000000000000000000281526014018381526020018273ffffffffffffffffffffffffffffffffffffffff1673ffffffffffffffffffffffffffffffffffffffff166c0100000000000000000000000002815260140195505050505050604051809103902061112c565b905095945050505050565b6000836040518082805190602001908083835b6020831015156109e957805182526020820191506020810190506020830392506109c4565b6001836020036101000a0380198251168184511680821785525050505050509050019150509081526020016040518091039020829080600181540180825580915050906001820390600052602060002001600090919290919091509060001916905550806001846040518082805190602001908083835b602083101515610a855780518252602082019150602081019050602083039250610a60565b6001836020036101000a0380198251168184511680821785525050505050509050019150509081526020016040518091039020600084600019166000191681526020019081526020016000208160001916905550505050565b6000610b7f6040805190810160405280601181526020017f72656769737465725465726d537461727400000000000000000000000000000081525084846040518083600019166000191681526020018273ffffffffffffffffffffffffffffffffffffffff1673ffffffffffffffffffffffffffffffffffffffff166c01000000000000000000000000028152601401925050506040518091039020610ff0565b6001800260001916610c266040805190810160405280601181526020017f72656769737465725465726d537461727400000000000000000000000000000081525085856040518083600019166000191681526020018273ffffffffffffffffffffffffffffffffffffffff1673ffffffffffffffffffffffffffffffffffffffff166c01000000000000000000000000028152601401925050506040518091039020610581565b6000191614905092915050565b80600360008460001916600019168152602001908152602001600020819055505050565b6000610cf86040805190810160405280601181526020017f72656769737465725465726d537461727400000000000000000000000000000081525084846040518083600019166000191681526020018273ffffffffffffffffffffffffffffffffffffffff1673ffffffffffffffffffffffffffffffffffffffff166c0100000000000000000000000002815260140192505050604051809103902061112c565b905092915050565b60006060600080600093505b600a841015610fea57610d1d6111c8565b84600a81101515610d2a57fe5b6020020151925060008351141515610fdd57600091505b6000836040518082805190602001908083835b602083101515610d795780518252602082019150602081019050602083039250610d54565b6001836020036101000a038019825116818451168082178552505050505050905001915050908152602001604051809103902080549050821015610f65576000836040518082805190602001908083835b602083101515610def5780518252602082019150602081019050602083039250610dca565b6001836020036101000a038019825116818451168082178552505050505050905001915050908152602001604051809103902082815481101515610e2f57fe5b906000526020600020015490506002836040518082805190602001908083835b602083101515610e745780518252602082019150602081019050602083039250610e4f565b6001836020036101000a03801982511681845116808217855250505050505090500191505090815260200160405180910390206000826000191660001916815260200190815260200160002060006101000a81549060ff02191690556001836040518082805190602001908083835b602083101515610f085780518252602082019150602081019050602083039250610ee3565b6001836020036101000a038019825116818451168082178552505050505050905001915050908152602001604051809103902060008260001916600019168152602001908152602001600020600090558180600101925050610d41565b6000836040518082805190602001908083835b602083101515610f9d5780518252602082019150602081019050602083039250610f78565b6001836020036101000a03801982511681845116808217855250505050505090500191505090815260200160405180910390206000610fdc9190611306565b5b8380600101945050610d0c565b50505050565b60016002836040518082805190602001908083835b60208310151561102a5780518252602082019150602081019050602083039250611005565b6001836020036101000a03801982511681845116808217855250505050505090500191505090815260200160405180910390206000836000191660001916815260200190815260200160002060006101000a81548160ff0219169083151502179055506000826040518082805190602001908083835b6020831015156110c557805182526020820191506020810190506020830392506110a0565b6001836020036101000a03801982511681845116808217855250505050505090500191505090815260200160405180910390208190806001815401808255809150509060018203906000526020600020016000909192909190915090600019169055505050565b60006002836040518082805190602001908083835b6020831015156111665780518252602082019150602081019050602083039250611141565b6001836020036101000a03801982511681845116808217855250505050505090500191505090815260200160405180910390206000836000191660001916815260200190815260200160002060009054906101000a900460ff16905092915050565b6111d0611327565b610140604051908101604052806040805190810160405280601181526020017f726567697374657252657061796d656e7400000000000000000000000000000081525081526020016040805190810160405280601181526020017f72656769737465725465726d53746172740000000000000000000000000000008152508152602001602060405190810160405280600081525081526020016020604051908101604052806000815250815260200160206040519081016040528060008152508152602001602060405190810160405280600081525081526020016020604051908101604052806000815250815260200160206040519081016040528060008152508152602001602060405190810160405280600081525081526020016020604051908101604052806000815250815250905090565b50805460008255906000526020600020908101906113249190611350565b50565b61014060405190810160405280600a905b60608152602001906001900390816113385790505090565b61137291905b8082111561136e576000816000905550600101611356565b5090565b905600a165627a7a7230582092ae55d0083db59d01d55916e0d3c7a5e200cc48dfd140635fd63ba7c3cd9c4f0029",
  "source": "/*\n\n  Copyright 2017 Dharma Labs Inc.\n\n  Licensed under the Apache License, Version 2.0 (the \"License\");\n  you may not use this file except in compliance with the License.\n  You may obtain a copy of the License at\n\n    http://www.apache.org/licenses/LICENSE-2.0\n\n  Unless required by applicable law or agreed to in writing, software\n  distributed under the License is distributed on an \"AS IS\" BASIS,\n  WITHOUT WARRANTIES OR CONDITIONS OF ANY KIND, either express or implied.\n  See the License for the specific language governing permissions and\n  limitations under the License.\n\n*/\n\npragma solidity 0.4.24;\n\nimport \"./MockContract.sol\";\n\n\ncontract MockTermsContract is MockContract {\n    // Maps from agreementId's to the mocked term end timestamp\n    mapping (bytes32 => uint) internal termEndTimestamp;\n\n    function registerRepayment(\n        bytes32 agreementId,\n        address payer,\n        address beneficiary,\n        uint unitsOfRepayment,\n        address tokenAddress\n    )\n        public\n        returns (bool _success)\n    {\n        functionCalledWithArgs(\"registerRepayment\", keccak256(\n            agreementId,\n            payer,\n            beneficiary,\n            unitsOfRepayment,\n            tokenAddress\n        ));\n\n        return getMockReturnValue(\"registerRepayment\", DEFAULT_SIGNATURE_ARGS) == bytes32(1);\n    }\n\n    function mockRegisterRepaymentReturnValue(bool success)\n        public\n    {\n        mockReturnValue(\"registerRepayment\", DEFAULT_SIGNATURE_ARGS, success ? bytes32(1) : bytes32(0));\n    }\n\n    function mockTermEndTimestamp(\n        bytes32 agreementId,\n        uint timestamp\n    ) public {\n        termEndTimestamp[agreementId] = timestamp;\n    }\n\n    function wasRegisterRepaymentCalledWith(\n        bytes32 agreementId,\n        address payer,\n        address beneficiary,\n        uint unitsOfRepayment,\n        address tokenAddress\n    )\n        public\n        view\n        returns (bool wasCalled)\n    {\n        return wasFunctionCalledWithArgs(\"registerRepayment\", keccak256(\n            agreementId,\n            payer,\n            beneficiary,\n            unitsOfRepayment,\n            tokenAddress\n        ));\n    }\n\n    function registerTermStart(\n        bytes32 agreementId,\n        address debtor\n    )\n        public\n        returns (bool _registered)\n    {\n        functionCalledWithArgs(\"registerTermStart\", keccak256(agreementId, debtor));\n\n        return getMockReturnValue(\n            \"registerTermStart\",\n            keccak256(agreementId, debtor)\n        ) == bytes32(1);\n    }\n\n    function mockRegisterTermStartReturnValue(bytes32 agreementId, address debtor, bool success)\n        public\n    {\n        mockReturnValue(\n            \"registerTermStart\",\n            keccak256(agreementId, debtor),\n            success ? bytes32(1) : bytes32(0)\n        );\n    }\n\n    function getTermEndTimestamp(\n        bytes32 agreementId\n    ) public view returns (uint256) {\n        return termEndTimestamp[agreementId];\n    }\n\n    function wasRegisterTermStartCalledWith(bytes32 agreementId, address debtor)\n        public\n        view\n        returns (bool _wasCalled)\n    {\n        return wasFunctionCalledWithArgs(\"registerTermStart\", keccak256(agreementId, debtor));\n    }\n\n    function getFunctionList()\n        internal\n        returns (string[10] functionNames)\n    {\n        return [\"registerRepayment\", \"registerTermStart\", \"\", \"\", \"\", \"\", \"\", \"\", \"\", \"\"];\n    }\n}\n",
  "sourcePath": "/Users/lixianji/coding/chainboard/contract/contracts/test/mocks/MockTermsContract.sol",
  "compiler": {
    "name": "solc",
    "version": "0.4.24+commit.e67f0147.Emscripten.clang"
  },
  "schemaVersion": "2.0.1",
  "updatedAt": "2018-11-13T09:13:55.798Z"
}