{
  "contractName": "MockDebtRegistry",
  "abi": [
    {
      "constant": true,
      "inputs": [
        {
          "name": "functionName",
          "type": "string"
        },
        {
          "name": "argsSignature",
          "type": "bytes32"
        }
      ],
      "name": "getMockReturnValue",
      "outputs": [
        {
          "name": "_mockReturnValue",
          "type": "bytes32"
        }
      ],
      "payable": false,
      "stateMutability": "view",
      "type": "function"
    },
    {
      "constant": false,
      "inputs": [
        {
          "name": "functionName",
          "type": "string"
        },
        {
          "name": "argsSignature",
          "type": "bytes32"
        },
        {
          "name": "returnValue",
          "type": "bytes32"
        }
      ],
      "name": "mockReturnValue",
      "outputs": [],
      "payable": false,
      "stateMutability": "nonpayable",
      "type": "function"
    },
    {
      "constant": false,
      "inputs": [],
      "name": "reset",
      "outputs": [],
      "payable": false,
      "stateMutability": "nonpayable",
      "type": "function"
    },
    {
      "constant": false,
      "inputs": [
        {
          "name": "_version",
          "type": "address"
        },
        {
          "name": "_beneficiary",
          "type": "address"
        },
        {
          "name": "_debtor",
          "type": "address"
        },
        {
          "name": "_underwriter",
          "type": "address"
        },
        {
          "name": "_underwriterRiskRating",
          "type": "uint256"
        },
        {
          "name": "_termsContract",
          "type": "address"
        },
        {
          "name": "_termsContractParameters",
          "type": "bytes32"
        },
        {
          "name": "_salt",
          "type": "uint256"
        }
      ],
      "name": "insert",
      "outputs": [
        {
          "name": "_agreementId",
          "type": "bytes32"
        }
      ],
      "payable": false,
      "stateMutability": "nonpayable",
      "type": "function"
    },
    {
      "constant": false,
      "inputs": [
        {
          "name": "agreementId",
          "type": "bytes32"
        },
        {
          "name": "newBeneficiary",
          "type": "address"
        }
      ],
      "name": "modifyBeneficiary",
      "outputs": [],
      "payable": false,
      "stateMutability": "nonpayable",
      "type": "function"
    },
    {
      "constant": true,
      "inputs": [
        {
          "name": "agreementId",
          "type": "bytes32"
        }
      ],
      "name": "getBeneficiary",
      "outputs": [
        {
          "name": "_mockBeneficiary",
          "type": "address"
        }
      ],
      "payable": false,
      "stateMutability": "view",
      "type": "function"
    },
    {
      "constant": false,
      "inputs": [
        {
          "name": "agreementId",
          "type": "bytes32"
        }
      ],
      "name": "doesEntryExist",
      "outputs": [
        {
          "name": "",
          "type": "bool"
        }
      ],
      "payable": false,
      "stateMutability": "nonpayable",
      "type": "function"
    },
    {
      "constant": false,
      "inputs": [
        {
          "name": "agreementId",
          "type": "bytes32"
        },
        {
          "name": "exists",
          "type": "bool"
        }
      ],
      "name": "mockDoesEntryExist",
      "outputs": [],
      "payable": false,
      "stateMutability": "nonpayable",
      "type": "function"
    },
    {
      "constant": false,
      "inputs": [
        {
          "name": "agreementId",
          "type": "bytes32"
        }
      ],
      "name": "mockInsertReturnValue",
      "outputs": [],
      "payable": false,
      "stateMutability": "nonpayable",
      "type": "function"
    },
    {
      "constant": false,
      "inputs": [
        {
          "name": "agreementId",
          "type": "bytes32"
        },
        {
          "name": "beneficiary",
          "type": "address"
        }
      ],
      "name": "mockGetBeneficiaryReturnValueFor",
      "outputs": [],
      "payable": false,
      "stateMutability": "nonpayable",
      "type": "function"
    },
    {
      "constant": true,
      "inputs": [
        {
          "name": "agreementId",
          "type": "bytes32"
        }
      ],
      "name": "getTerms",
      "outputs": [
        {
          "name": "_termsContract",
          "type": "address"
        },
        {
          "name": "_termsContractParameters",
          "type": "bytes32"
        }
      ],
      "payable": false,
      "stateMutability": "view",
      "type": "function"
    },
    {
      "constant": false,
      "inputs": [
        {
          "name": "agreementId",
          "type": "bytes32"
        },
        {
          "name": "termsContract",
          "type": "address"
        },
        {
          "name": "termsContractParameters",
          "type": "bytes32"
        }
      ],
      "name": "mockGetTermsReturnValueFor",
      "outputs": [],
      "payable": false,
      "stateMutability": "nonpayable",
      "type": "function"
    },
    {
      "constant": true,
      "inputs": [
        {
          "name": "agreementId",
          "type": "bytes32"
        }
      ],
      "name": "getTermsContract",
      "outputs": [
        {
          "name": "_termsContract",
          "type": "address"
        }
      ],
      "payable": false,
      "stateMutability": "view",
      "type": "function"
    },
    {
      "constant": true,
      "inputs": [
        {
          "name": "agreementId",
          "type": "bytes32"
        }
      ],
      "name": "getIssuanceBlockTimestamp",
      "outputs": [
        {
          "name": "timestamp",
          "type": "uint256"
        }
      ],
      "payable": false,
      "stateMutability": "view",
      "type": "function"
    },
    {
      "constant": false,
      "inputs": [
        {
          "name": "agreementId",
          "type": "bytes32"
        },
        {
          "name": "timestamp",
          "type": "uint256"
        }
      ],
      "name": "mockGetIssuanceBlockTimestamp",
      "outputs": [],
      "payable": false,
      "stateMutability": "nonpayable",
      "type": "function"
    },
    {
      "constant": true,
      "inputs": [
        {
          "name": "agreementId",
          "type": "bytes32"
        }
      ],
      "name": "getTermsContractParameters",
      "outputs": [
        {
          "name": "",
          "type": "bytes32"
        }
      ],
      "payable": false,
      "stateMutability": "view",
      "type": "function"
    },
    {
      "constant": false,
      "inputs": [
        {
          "name": "agreementId",
          "type": "bytes32"
        },
        {
          "name": "params",
          "type": "bytes32"
        }
      ],
      "name": "mockGetTermsContractParameters",
      "outputs": [],
      "payable": false,
      "stateMutability": "nonpayable",
      "type": "function"
    },
    {
      "constant": false,
      "inputs": [
        {
          "name": "agreementId",
          "type": "bytes32"
        },
        {
          "name": "termsContract",
          "type": "address"
        }
      ],
      "name": "mockGetTermsContractReturnValueFor",
      "outputs": [],
      "payable": false,
      "stateMutability": "nonpayable",
      "type": "function"
    },
    {
      "constant": true,
      "inputs": [
        {
          "name": "_version",
          "type": "address"
        },
        {
          "name": "_beneficiary",
          "type": "address"
        },
        {
          "name": "_debtor",
          "type": "address"
        },
        {
          "name": "_underwriter",
          "type": "address"
        },
        {
          "name": "_underwriterRiskRating",
          "type": "uint256"
        },
        {
          "name": "_termsContract",
          "type": "address"
        },
        {
          "name": "_termsContractParameters",
          "type": "bytes32"
        },
        {
          "name": "_salt",
          "type": "uint256"
        }
      ],
      "name": "wasInsertCalledWith",
      "outputs": [
        {
          "name": "_wasCalled",
          "type": "bool"
        }
      ],
      "payable": false,
      "stateMutability": "view",
      "type": "function"
    },
    {
      "constant": true,
      "inputs": [
        {
          "name": "agreementId",
          "type": "bytes32"
        },
        {
          "name": "newBeneficiary",
          "type": "address"
        }
      ],
      "name": "wasModifyBeneficiaryCalledWith",
      "outputs": [
        {
          "name": "_wasCalled",
          "type": "bool"
        }
      ],
      "payable": false,
      "stateMutability": "view",
      "type": "function"
    }
  ],
  "bytecode": "0x608060405234801561001057600080fd5b50611c6c806100206000396000f300608060405260043610610112576000357c0100000000000000000000000000000000000000000000000000000000900463ffffffff168063131018581461011757806318d2efef146101aa578063212e5da1146101fb578063314a522e146102f85780635969549e146103455780636be39bda146103965780636ea5f93a1461041657806380da20d4146104555780638dc8a7b2146104da5780639758af1e146105155780639feff4cc1461055e578063a1bc7ef01461058f578063b4045ae9146105cc578063ba20dda41461062b578063cf9df5eb1461069c578063d69dbf631461079d578063d826f88f146107e2578063f0450a5c146107f9578063f6a618961461084a578063f6f494c9146108b3575b600080fd5b34801561012357600080fd5b5061018c600480360381019080803590602001908201803590602001908080601f01602080910402602001604051908101604052809392919081815260200183838082843782019150505050505091929192908035600019169060200190929190505050610924565b60405180826000191660001916815260200191505060405180910390f35b3480156101b657600080fd5b506101f96004803603810190808035600019169060200190929190803573ffffffffffffffffffffffffffffffffffffffff1690602001909291905050506109b3565b005b34801561020757600080fd5b506102de600480360381019080803573ffffffffffffffffffffffffffffffffffffffff169060200190929190803573ffffffffffffffffffffffffffffffffffffffff169060200190929190803573ffffffffffffffffffffffffffffffffffffffff169060200190929190803573ffffffffffffffffffffffffffffffffffffffff16906020019092919080359060200190929190803573ffffffffffffffffffffffffffffffffffffffff169060200190929190803560001916906020019092919080359060200190929190505050610a10565b604051808215151515815260200191505060405180910390f35b34801561030457600080fd5b506103276004803603810190808035600019169060200190929190505050610bdb565b60405180826000191660001916815260200191505060405180910390f35b34801561035157600080fd5b506103946004803603810190808035600019169060200190929190803573ffffffffffffffffffffffffffffffffffffffff169060200190929190505050610c23565b005b3480156103a257600080fd5b506103c56004803603810190808035600019169060200190929190505050610cd0565b604051808373ffffffffffffffffffffffffffffffffffffffff1673ffffffffffffffffffffffffffffffffffffffff16815260200182600019166000191681526020019250505060405180910390f35b34801561042257600080fd5b5061045360048036038101908080356000191690602001909291908035600019169060200190929190505050610d5e565b005b34801561046157600080fd5b506104d8600480360381019080803590602001908201803590602001908080601f016020809104026020016040519081016040528093929190818152602001838380828437820191505050505050919291929080356000191690602001909291908035600019169060200190929190505050610da2565b005b3480156104e657600080fd5b50610513600480360381019080803560001916906020019092919080359060200190929190505050610ecf565b005b34801561052157600080fd5b506105446004803603810190808035600019169060200190929190505050610f16565b604051808215151515815260200191505060405180910390f35b34801561056a57600080fd5b5061058d6004803603810190808035600019169060200190929190505050610f7f565b005b34801561059b57600080fd5b506105ca6004803603810190808035600019169060200190929190803515159060200190929190505050610fc6565b005b3480156105d857600080fd5b506106296004803603810190808035600019169060200190929190803573ffffffffffffffffffffffffffffffffffffffff169060200190929190803560001916906020019092919050505061101d565b005b34801561063757600080fd5b5061065a60048036038101908080356000191690602001909291905050506110bb565b604051808273ffffffffffffffffffffffffffffffffffffffff1673ffffffffffffffffffffffffffffffffffffffff16815260200191505060405180910390f35b3480156106a857600080fd5b5061077f600480360381019080803573ffffffffffffffffffffffffffffffffffffffff169060200190929190803573ffffffffffffffffffffffffffffffffffffffff169060200190929190803573ffffffffffffffffffffffffffffffffffffffff169060200190929190803573ffffffffffffffffffffffffffffffffffffffff16906020019092919080359060200190929190803573ffffffffffffffffffffffffffffffffffffffff169060200190929190803560001916906020019092919080359060200190929190505050611107565b60405180826000191660001916815260200191505060405180910390f35b3480156107a957600080fd5b506107cc600480360381019080803560001916906020019092919050505061132a565b6040518082815260200191505060405180910390f35b3480156107ee57600080fd5b506107f7611376565b005b34801561080557600080fd5b506108486004803603810190808035600019169060200190929190803573ffffffffffffffffffffffffffffffffffffffff169060200190929190505050611666565b005b34801561085657600080fd5b506108996004803603810190808035600019169060200190929190803573ffffffffffffffffffffffffffffffffffffffff1690602001909291905050506116c3565b604051808215151515815260200191505060405180910390f35b3480156108bf57600080fd5b506108e2600480360381019080803560001916906020019092919050505061176c565b604051808273ffffffffffffffffffffffffffffffffffffffff1673ffffffffffffffffffffffffffffffffffffffff16815260200191505060405180910390f35b60006001836040518082805190602001908083835b60208310151561095e5780518252602082019150602081019050602083039250610939565b6001836020036101000a03801982511681845116808217855250505050505090500191505090815260200160405180910390206000836000191660001916815260200190815260200160002054905092915050565b610a0c6040805190810160405280601081526020017f6765745465726d73436f6e747261637400000000000000000000000000000000815250838373ffffffffffffffffffffffffffffffffffffffff16600102610da2565b5050565b6000610bcd6040805190810160405280600681526020017f696e7365727400000000000000000000000000000000000000000000000000008152508a8a8a8a8a8a8a8a604051808973ffffffffffffffffffffffffffffffffffffffff1673ffffffffffffffffffffffffffffffffffffffff166c010000000000000000000000000281526014018873ffffffffffffffffffffffffffffffffffffffff1673ffffffffffffffffffffffffffffffffffffffff166c010000000000000000000000000281526014018773ffffffffffffffffffffffffffffffffffffffff1673ffffffffffffffffffffffffffffffffffffffff166c010000000000000000000000000281526014018673ffffffffffffffffffffffffffffffffffffffff1673ffffffffffffffffffffffffffffffffffffffff166c010000000000000000000000000281526014018581526020018473ffffffffffffffffffffffffffffffffffffffff1673ffffffffffffffffffffffffffffffffffffffff166c0100000000000000000000000002815260140183600019166000191681526020018281526020019850505050505050505060405180910390206117b8565b905098975050505050505050565b6000610c1c6040805190810160405280601a81526020017f6765745465726d73436f6e7472616374506172616d657465727300000000000081525083610924565b9050919050565b610cc26040805190810160405280601181526020017f6d6f6469667942656e656669636961727900000000000000000000000000000081525083836040518083600019166000191681526020018273ffffffffffffffffffffffffffffffffffffffff1673ffffffffffffffffffffffffffffffffffffffff166c01000000000000000000000000028152601401925050506040518091039020611854565b610ccc8282611666565b5050565b600080610d126040805190810160405280601681526020017f6765745465726d735f7465726d73436f6e74726163740000000000000000000081525084610924565b60019004610d556040805190810160405280602081526020017f6765745465726d735f7465726d73436f6e7472616374506172616d657465727381525085610924565b91509150915091565b610d9e6040805190810160405280601a81526020017f6765745465726d73436f6e7472616374506172616d65746572730000000000008152508383610da2565b5050565b6000836040518082805190602001908083835b602083101515610dda5780518252602082019150602081019050602083039250610db5565b6001836020036101000a0380198251168184511680821785525050505050509050019150509081526020016040518091039020829080600181540180825580915050906001820390600052602060002001600090919290919091509060001916905550806001846040518082805190602001908083835b602083101515610e765780518252602082019150602081019050602083039250610e51565b6001836020036101000a0380198251168184511680821785525050505050509050019150509081526020016040518091039020600084600019166000191681526020019081526020016000208160001916905550505050565b610f126040805190810160405280601981526020017f67657449737375616e6365426c6f636b54696d657374616d70000000000000008152508383600102610da2565b5050565b600080610f586040805190810160405280600e81526020017f646f6573456e747279457869737400000000000000000000000000000000000081525084610924565b9050600060010260001916816000191614610f74576001610f77565b60005b915050919050565b610fc36040805190810160405280600681526020017f696e736572740000000000000000000000000000000000000000000000000000815250600060010283610da2565b50565b6110196040805190810160405280600e81526020017f646f6573456e7472794578697374000000000000000000000000000000000000815250838361100f576000600102611014565b600180025b610da2565b5050565b6110766040805190810160405280601681526020017f6765745465726d735f7465726d73436f6e747261637400000000000000000000815250848473ffffffffffffffffffffffffffffffffffffffff16600102610da2565b6110b66040805190810160405280602081526020017f6765745465726d735f7465726d73436f6e7472616374506172616d65746572738152508483610da2565b505050565b60006110fc6040805190810160405280600e81526020017f67657442656e656669636961727900000000000000000000000000000000000081525083610924565b600190049050919050565b60008060008a8a8a8a8a8a8a8a604051808973ffffffffffffffffffffffffffffffffffffffff1673ffffffffffffffffffffffffffffffffffffffff166c010000000000000000000000000281526014018873ffffffffffffffffffffffffffffffffffffffff1673ffffffffffffffffffffffffffffffffffffffff166c010000000000000000000000000281526014018773ffffffffffffffffffffffffffffffffffffffff1673ffffffffffffffffffffffffffffffffffffffff166c010000000000000000000000000281526014018673ffffffffffffffffffffffffffffffffffffffff1673ffffffffffffffffffffffffffffffffffffffff166c010000000000000000000000000281526014018581526020018473ffffffffffffffffffffffffffffffffffffffff1673ffffffffffffffffffffffffffffffffffffffff166c01000000000000000000000000028152601401836000191660001916815260200182815260200198505050505050505050604051809103902091506112ca6040805190810160405280600681526020017f696e73657274000000000000000000000000000000000000000000000000000081525083611854565b61130d6040805190810160405280600681526020017f696e7365727400000000000000000000000000000000000000000000000000008152506000600102610924565b9050611319818b611666565b809250505098975050505050505050565b600061136b6040805190810160405280601981526020017f67657449737375616e6365426c6f636b54696d657374616d700000000000000081525083610924565b600190049050919050565b60006060600080600093505b600a84101561166057611393611990565b84600a811015156113a057fe5b602002015192506000835114151561165357600091505b6000836040518082805190602001908083835b6020831015156113ef57805182526020820191506020810190506020830392506113ca565b6001836020036101000a0380198251168184511680821785525050505050509050019150509081526020016040518091039020805490508210156115db576000836040518082805190602001908083835b6020831015156114655780518252602082019150602081019050602083039250611440565b6001836020036101000a0380198251168184511680821785525050505050509050019150509081526020016040518091039020828154811015156114a557fe5b906000526020600020015490506002836040518082805190602001908083835b6020831015156114ea57805182526020820191506020810190506020830392506114c5565b6001836020036101000a03801982511681845116808217855250505050505090500191505090815260200160405180910390206000826000191660001916815260200190815260200160002060006101000a81549060ff02191690556001836040518082805190602001908083835b60208310151561157e5780518252602082019150602081019050602083039250611559565b6001836020036101000a0380198251168184511680821785525050505050509050019150509081526020016040518091039020600082600019166000191681526020019081526020016000206000905581806001019250506113b7565b6000836040518082805190602001908083835b60208310151561161357805182526020820191506020810190506020830392506115ee565b6001836020036101000a038019825116818451168082178552505050505050905001915050908152602001604051809103902060006116529190611bd1565b5b8380600101945050611382565b50505050565b6116bf6040805190810160405280600e81526020017f67657442656e6566696369617279000000000000000000000000000000000000815250838373ffffffffffffffffffffffffffffffffffffffff16600102610da2565b5050565b60006117646040805190810160405280601181526020017f6d6f6469667942656e656669636961727900000000000000000000000000000081525084846040518083600019166000191681526020018273ffffffffffffffffffffffffffffffffffffffff1673ffffffffffffffffffffffffffffffffffffffff166c010000000000000000000000000281526014019250505060405180910390206117b8565b905092915050565b60006117ad6040805190810160405280601081526020017f6765745465726d73436f6e74726163740000000000000000000000000000000081525083610924565b600190049050919050565b60006002836040518082805190602001908083835b6020831015156117f257805182526020820191506020810190506020830392506117cd565b6001836020036101000a03801982511681845116808217855250505050505090500191505090815260200160405180910390206000836000191660001916815260200190815260200160002060009054906101000a900460ff16905092915050565b60016002836040518082805190602001908083835b60208310151561188e5780518252602082019150602081019050602083039250611869565b6001836020036101000a03801982511681845116808217855250505050505090500191505090815260200160405180910390206000836000191660001916815260200190815260200160002060006101000a81548160ff0219169083151502179055506000826040518082805190602001908083835b6020831015156119295780518252602082019150602081019050602083039250611904565b6001836020036101000a03801982511681845116808217855250505050505090500191505090815260200160405180910390208190806001815401808255809150509060018203906000526020600020016000909192909190915090600019169055505050565b611998611bf2565b610140604051908101604052806040805190810160405280600681526020017f696e73657274000000000000000000000000000000000000000000000000000081525081526020016040805190810160405280601181526020017f6d6f6469667942656e656669636961727900000000000000000000000000000081525081526020016040805190810160405280600e81526020017f67657442656e656669636961727900000000000000000000000000000000000081525081526020016040805190810160405280601681526020017f6765745465726d735f7465726d73436f6e74726163740000000000000000000081525081526020016040805190810160405280602081526020017f6765745465726d735f7465726d73436f6e7472616374506172616d657465727381525081526020016040805190810160405280601081526020017f6765745465726d73436f6e74726163740000000000000000000000000000000081525081526020016040805190810160405280601a81526020017f6765745465726d73436f6e7472616374506172616d657465727300000000000081525081526020016040805190810160405280601981526020017f67657449737375616e6365426c6f636b54696d657374616d700000000000000081525081526020016040805190810160405280600e81526020017f646f6573456e747279457869737400000000000000000000000000000000000081525081526020016020604051908101604052806000815250815250905090565b5080546000825590600052602060002090810190611bef9190611c1b565b50565b61014060405190810160405280600a905b6060815260200190600190039081611c035790505090565b611c3d91905b80821115611c39576000816000905550600101611c21565b5090565b905600a165627a7a723058201af372d94bd66c204e1033ab2ba006428f8118142edddbf9e15d86f6dff53bff0029",
  "source": "/*\n\n  Copyright 2017 Dharma Labs Inc.\n\n  Licensed under the Apache License, Version 2.0 (the \"License\");\n  you may not use this file except in compliance with the License.\n  You may obtain a copy of the License at\n\n    http://www.apache.org/licenses/LICENSE-2.0\n\n  Unless required by applicable law or agreed to in writing, software\n  distributed under the License is distributed on an \"AS IS\" BASIS,\n  WITHOUT WARRANTIES OR CONDITIONS OF ANY KIND, either express or implied.\n  See the License for the specific language governing permissions and\n  limitations under the License.\n\n*/\n\npragma solidity 0.4.24;\n\nimport \"./MockContract.sol\";\n\n\ncontract MockDebtRegistry is MockContract {\n    function insert(\n        address _version,\n        address _beneficiary,\n        address _debtor,\n        address _underwriter,\n        uint _underwriterRiskRating,\n        address _termsContract,\n        bytes32 _termsContractParameters,\n        uint _salt\n    )\n        public\n        returns (bytes32 _agreementId)\n    {\n        bytes32 argsSignature = keccak256(\n            _version,\n            _beneficiary,\n            _debtor,\n            _underwriter,\n            _underwriterRiskRating,\n            _termsContract,\n            _termsContractParameters,\n            _salt\n        );\n\n        functionCalledWithArgs(\"insert\", argsSignature);\n\n        bytes32 agreementId = getMockReturnValue(\"insert\", DEFAULT_SIGNATURE_ARGS);\n\n        mockGetBeneficiaryReturnValueFor(agreementId, _beneficiary);\n\n        return agreementId;\n    }\n\n    function modifyBeneficiary(bytes32 agreementId, address newBeneficiary)\n        public\n    {\n        functionCalledWithArgs(\"modifyBeneficiary\",\n            keccak256(agreementId, newBeneficiary));\n\n        mockGetBeneficiaryReturnValueFor(agreementId, newBeneficiary);\n    }\n\n    function getBeneficiary(bytes32 agreementId)\n        public\n        view\n        returns (address _mockBeneficiary)\n    {\n        return address(getMockReturnValue(\"getBeneficiary\", agreementId));\n    }\n\n    function doesEntryExist(bytes32 agreementId) public returns (bool) {\n        bytes32 mockReturnValue = getMockReturnValue(\"doesEntryExist\", agreementId);\n        return mockReturnValue == bytes32(0) ? false : true;\n    }\n\n    function mockDoesEntryExist(bytes32 agreementId, bool exists) public {\n        mockReturnValue(\"doesEntryExist\", agreementId, exists ? bytes32(1) : bytes32(0));\n    }\n\n    function mockInsertReturnValue(bytes32 agreementId) public {\n        mockReturnValue(\"insert\", DEFAULT_SIGNATURE_ARGS, agreementId);\n    }\n\n    function mockGetBeneficiaryReturnValueFor(bytes32 agreementId, address beneficiary)\n        public\n    {\n        mockReturnValue(\"getBeneficiary\", agreementId, bytes32(beneficiary));\n    }\n\n    function getTerms(bytes32 agreementId)\n        public\n        view\n        returns (address _termsContract, bytes32 _termsContractParameters)\n    {\n        return (\n            address(getMockReturnValue(\"getTerms_termsContract\", agreementId)),\n            getMockReturnValue(\"getTerms_termsContractParameters\", agreementId)\n        );\n    }\n\n    function mockGetTermsReturnValueFor(\n        bytes32 agreementId,\n        address termsContract,\n        bytes32 termsContractParameters\n    )\n        public\n    {\n        mockReturnValue(\"getTerms_termsContract\", agreementId, bytes32(termsContract));\n        mockReturnValue(\"getTerms_termsContractParameters\", agreementId, termsContractParameters);\n    }\n\n    function getTermsContract(bytes32 agreementId)\n        public\n        view\n        returns (address _termsContract)\n    {\n        return address(getMockReturnValue(\"getTermsContract\", agreementId));\n    }\n\n    function getIssuanceBlockTimestamp(bytes32 agreementId)\n        public\n        view\n        returns (uint timestamp)\n    {\n        return uint(getMockReturnValue(\"getIssuanceBlockTimestamp\", agreementId));\n    }\n\n    function mockGetIssuanceBlockTimestamp(\n        bytes32 agreementId,\n        uint timestamp\n    )\n        public\n    {\n        mockReturnValue(\"getIssuanceBlockTimestamp\", agreementId, bytes32(timestamp));\n    }\n\n    function getTermsContractParameters(bytes32 agreementId)\n        public\n        view\n        returns (bytes32)\n    {\n        return getMockReturnValue(\"getTermsContractParameters\", agreementId);\n    }\n\n    function mockGetTermsContractParameters(\n        bytes32 agreementId,\n        bytes32 params\n    )\n        public\n    {\n        mockReturnValue(\"getTermsContractParameters\", agreementId, params);\n    }\n\n    function mockGetTermsContractReturnValueFor(\n        bytes32 agreementId,\n        address termsContract\n    )\n        public\n    {\n        mockReturnValue(\"getTermsContract\", agreementId, bytes32(termsContract));\n    }\n\n    function wasInsertCalledWith(\n        address _version,\n        address _beneficiary,\n        address _debtor,\n        address _underwriter,\n        uint _underwriterRiskRating,\n        address _termsContract,\n        bytes32 _termsContractParameters,\n        uint _salt\n    )\n        public\n        view\n        returns (bool _wasCalled)\n    {\n        return wasFunctionCalledWithArgs(\"insert\", keccak256(\n            _version,\n            _beneficiary,\n            _debtor,\n            _underwriter,\n            _underwriterRiskRating,\n            _termsContract,\n            _termsContractParameters,\n            _salt\n        ));\n    }\n\n    function wasModifyBeneficiaryCalledWith(bytes32 agreementId, address newBeneficiary)\n        public\n        view\n        returns (bool _wasCalled)\n    {\n        return wasFunctionCalledWithArgs(\"modifyBeneficiary\",\n            keccak256(agreementId, newBeneficiary));\n    }\n\n    function getFunctionList()\n        internal\n        returns (string[10] functionNames)\n    {\n        return [\n            \"insert\",\n            \"modifyBeneficiary\",\n            \"getBeneficiary\",\n            \"getTerms_termsContract\",\n            \"getTerms_termsContractParameters\",\n            \"getTermsContract\",\n            \"getTermsContractParameters\",\n            \"getIssuanceBlockTimestamp\",\n            \"doesEntryExist\",\n            \"\"\n        ];\n    }\n}\n",
  "sourcePath": "/Users/lixianji/coding/chainboard/contract/contracts/test/mocks/MockDebtRegistry.sol",
  "compiler": {
    "name": "solc",
    "version": "0.4.24+commit.e67f0147.Emscripten.clang"
  },
  "schemaVersion": "2.0.1",
  "updatedAt": "2018-10-18T08:16:46.370Z"
}