{
  "contractName": "MockTokenTransferProxy",
  "abi": [
    {
      "constant": true,
      "inputs": [
        {
          "name": "functionName",
          "type": "string"
        },
        {
          "name": "argsSignature",
          "type": "bytes32"
        }
      ],
      "name": "getMockReturnValue",
      "outputs": [
        {
          "name": "_mockReturnValue",
          "type": "bytes32"
        }
      ],
      "payable": false,
      "stateMutability": "view",
      "type": "function"
    },
    {
      "constant": false,
      "inputs": [
        {
          "name": "functionName",
          "type": "string"
        },
        {
          "name": "argsSignature",
          "type": "bytes32"
        },
        {
          "name": "returnValue",
          "type": "bytes32"
        }
      ],
      "name": "mockReturnValue",
      "outputs": [],
      "payable": false,
      "stateMutability": "nonpayable",
      "type": "function"
    },
    {
      "constant": false,
      "inputs": [],
      "name": "reset",
      "outputs": [],
      "payable": false,
      "stateMutability": "nonpayable",
      "type": "function"
    },
    {
      "constant": false,
      "inputs": [
        {
          "name": "_token",
          "type": "address"
        },
        {
          "name": "_from",
          "type": "address"
        },
        {
          "name": "_to",
          "type": "address"
        },
        {
          "name": "_amount",
          "type": "uint256"
        }
      ],
      "name": "transferFrom",
      "outputs": [
        {
          "name": "_success",
          "type": "bool"
        }
      ],
      "payable": false,
      "stateMutability": "nonpayable",
      "type": "function"
    },
    {
      "constant": true,
      "inputs": [
        {
          "name": "_token",
          "type": "address"
        },
        {
          "name": "_from",
          "type": "address"
        },
        {
          "name": "_to",
          "type": "address"
        },
        {
          "name": "_amount",
          "type": "uint256"
        }
      ],
      "name": "wasTransferFromCalledWith",
      "outputs": [
        {
          "name": "_wasCalled",
          "type": "bool"
        }
      ],
      "payable": false,
      "stateMutability": "view",
      "type": "function"
    }
  ],
  "bytecode": "0x608060405234801561001057600080fd5b50610d77806100206000396000f30060806040526004361061006d576000357c0100000000000000000000000000000000000000000000000000000000900463ffffffff168063131018581461007257806315dacbea1461010557806329f5967c146101aa57806380da20d41461024f578063d826f88f146102d4575b600080fd5b34801561007e57600080fd5b506100e7600480360381019080803590602001908201803590602001908080601f016020809104026020016040519081016040528093929190818152602001838380828437820191505050505050919291929080356000191690602001909291905050506102eb565b60405180826000191660001916815260200191505060405180910390f35b34801561011157600080fd5b50610190600480360381019080803573ffffffffffffffffffffffffffffffffffffffff169060200190929190803573ffffffffffffffffffffffffffffffffffffffff169060200190929190803573ffffffffffffffffffffffffffffffffffffffff1690602001909291908035906020019092919050505061037a565b604051808215151515815260200191505060405180910390f35b3480156101b657600080fd5b50610235600480360381019080803573ffffffffffffffffffffffffffffffffffffffff169060200190929190803573ffffffffffffffffffffffffffffffffffffffff169060200190929190803573ffffffffffffffffffffffffffffffffffffffff169060200190929190803590602001909291905050506104a5565b604051808215151515815260200191505060405180910390f35b34801561025b57600080fd5b506102d2600480360381019080803590602001908201803590602001908080601f0160208091040260200160405190810160405280939291908181526020018383808284378201915050505050509192919290803560001916906020019092919080356000191690602001909291905050506105ce565b005b3480156102e057600080fd5b506102e96106fb565b005b60006001836040518082805190602001908083835b6020831015156103255780518252602082019150602081019050602083039250610300565b6001836020036101000a03801982511681845116808217855250505050505090500191505090815260200160405180910390206000836000191660001916815260200190815260200160002054905092915050565b60006104996040805190810160405280600c81526020017f7472616e7366657246726f6d000000000000000000000000000000000000000081525086868686604051808573ffffffffffffffffffffffffffffffffffffffff1673ffffffffffffffffffffffffffffffffffffffff166c010000000000000000000000000281526014018473ffffffffffffffffffffffffffffffffffffffff1673ffffffffffffffffffffffffffffffffffffffff166c010000000000000000000000000281526014018373ffffffffffffffffffffffffffffffffffffffff1673ffffffffffffffffffffffffffffffffffffffff166c0100000000000000000000000002815260140182815260200194505050505060405180910390206109eb565b60019050949350505050565b60006105c46040805190810160405280600c81526020017f7472616e7366657246726f6d000000000000000000000000000000000000000081525086868686604051808573ffffffffffffffffffffffffffffffffffffffff1673ffffffffffffffffffffffffffffffffffffffff166c010000000000000000000000000281526014018473ffffffffffffffffffffffffffffffffffffffff1673ffffffffffffffffffffffffffffffffffffffff166c010000000000000000000000000281526014018373ffffffffffffffffffffffffffffffffffffffff1673ffffffffffffffffffffffffffffffffffffffff166c010000000000000000000000000281526014018281526020019450505050506040518091039020610b27565b9050949350505050565b6000836040518082805190602001908083835b60208310151561060657805182526020820191506020810190506020830392506105e1565b6001836020036101000a0380198251168184511680821785525050505050509050019150509081526020016040518091039020829080600181540180825580915050906001820390600052602060002001600090919290919091509060001916905550806001846040518082805190602001908083835b6020831015156106a2578051825260208201915060208101905060208303925061067d565b6001836020036101000a0380198251168184511680821785525050505050509050019150509081526020016040518091039020600084600019166000191681526020019081526020016000208160001916905550505050565b60006060600080600093505b600a8410156109e557610718610bc3565b84600a8110151561072557fe5b60200201519250600083511415156109d857600091505b6000836040518082805190602001908083835b602083101515610774578051825260208201915060208101905060208303925061074f565b6001836020036101000a038019825116818451168082178552505050505050905001915050908152602001604051809103902080549050821015610960576000836040518082805190602001908083835b6020831015156107ea57805182526020820191506020810190506020830392506107c5565b6001836020036101000a03801982511681845116808217855250505050505090500191505090815260200160405180910390208281548110151561082a57fe5b906000526020600020015490506002836040518082805190602001908083835b60208310151561086f578051825260208201915060208101905060208303925061084a565b6001836020036101000a03801982511681845116808217855250505050505090500191505090815260200160405180910390206000826000191660001916815260200190815260200160002060006101000a81549060ff02191690556001836040518082805190602001908083835b60208310151561090357805182526020820191506020810190506020830392506108de565b6001836020036101000a03801982511681845116808217855250505050505090500191505090815260200160405180910390206000826000191660001916815260200190815260200160002060009055818060010192505061073c565b6000836040518082805190602001908083835b6020831015156109985780518252602082019150602081019050602083039250610973565b6001836020036101000a038019825116818451168082178552505050505050905001915050908152602001604051809103902060006109d79190610cdc565b5b8380600101945050610707565b50505050565b60016002836040518082805190602001908083835b602083101515610a255780518252602082019150602081019050602083039250610a00565b6001836020036101000a03801982511681845116808217855250505050505090500191505090815260200160405180910390206000836000191660001916815260200190815260200160002060006101000a81548160ff0219169083151502179055506000826040518082805190602001908083835b602083101515610ac05780518252602082019150602081019050602083039250610a9b565b6001836020036101000a03801982511681845116808217855250505050505090500191505090815260200160405180910390208190806001815401808255809150509060018203906000526020600020016000909192909190915090600019169055505050565b60006002836040518082805190602001908083835b602083101515610b615780518252602082019150602081019050602083039250610b3c565b6001836020036101000a03801982511681845116808217855250505050505090500191505090815260200160405180910390206000836000191660001916815260200190815260200160002060009054906101000a900460ff16905092915050565b610bcb610cfd565b610140604051908101604052806040805190810160405280600c81526020017f7472616e7366657246726f6d0000000000000000000000000000000000000000815250815260200160206040519081016040528060008152508152602001602060405190810160405280600081525081526020016020604051908101604052806000815250815260200160206040519081016040528060008152508152602001602060405190810160405280600081525081526020016020604051908101604052806000815250815260200160206040519081016040528060008152508152602001602060405190810160405280600081525081526020016020604051908101604052806000815250815250905090565b5080546000825590600052602060002090810190610cfa9190610d26565b50565b61014060405190810160405280600a905b6060815260200190600190039081610d0e5790505090565b610d4891905b80821115610d44576000816000905550600101610d2c565b5090565b905600a165627a7a723058205285bcbe05aeff3580348ea128e05f47ff2d4de1c816bb1dde19e0ee042492ea0029",
  "source": "/*\n\n  Copyright 2017 Dharma Labs Inc.\n\n  Licensed under the Apache License, Version 2.0 (the \"License\");\n  you may not use this file except in compliance with the License.\n  You may obtain a copy of the License at\n\n    http://www.apache.org/licenses/LICENSE-2.0\n\n  Unless required by applicable law or agreed to in writing, software\n  distributed under the License is distributed on an \"AS IS\" BASIS,\n  WITHOUT WARRANTIES OR CONDITIONS OF ANY KIND, either express or implied.\n  See the License for the specific language governing permissions and\n  limitations under the License.\n\n*/\n\npragma solidity 0.4.24;\n\nimport \"./MockContract.sol\";\n\n\ncontract MockTokenTransferProxy is MockContract {\n    function transferFrom(\n        address _token,\n        address _from,\n        address _to,\n        uint _amount\n    )\n        public\n        returns (bool _success)\n    {\n        functionCalledWithArgs(\"transferFrom\", keccak256(\n            _token,\n            _from,\n            _to,\n            _amount\n        ));\n\n        return true;\n    }\n\n    function wasTransferFromCalledWith(\n        address _token,\n        address _from,\n        address _to,\n        uint _amount\n    )\n        public\n        view\n        returns (bool _wasCalled)\n    {\n        return wasFunctionCalledWithArgs(\"transferFrom\", keccak256(\n            _token,\n            _from,\n            _to,\n            _amount\n        ));\n    }\n\n    function getFunctionList()\n        internal\n        returns (string[10] functionNames)\n    {\n        return [\"transferFrom\", \"\", \"\", \"\", \"\", \"\", \"\", \"\", \"\", \"\"];\n    }\n}\n",
  "sourcePath": "/Users/lixianji/coding/chainboard/contract/contracts/test/mocks/MockTokenTransferProxy.sol",
  "compiler": {
    "name": "solc",
    "version": "0.4.24+commit.e67f0147.Emscripten.clang"
  },
  "schemaVersion": "2.0.1",
  "updatedAt": "2018-11-14T08:05:16.302Z"
}