{
  "contractName": "MockCollateralizedTermsContract",
  "abi": [
    {
      "constant": true,
      "inputs": [
        {
          "name": "functionName",
          "type": "string"
        },
        {
          "name": "argsSignature",
          "type": "bytes32"
        }
      ],
      "name": "getMockReturnValue",
      "outputs": [
        {
          "name": "_mockReturnValue",
          "type": "bytes32"
        }
      ],
      "payable": false,
      "stateMutability": "view",
      "type": "function"
    },
    {
      "constant": false,
      "inputs": [
        {
          "name": "functionName",
          "type": "string"
        },
        {
          "name": "argsSignature",
          "type": "bytes32"
        },
        {
          "name": "returnValue",
          "type": "bytes32"
        }
      ],
      "name": "mockReturnValue",
      "outputs": [],
      "payable": false,
      "stateMutability": "nonpayable",
      "type": "function"
    },
    {
      "constant": false,
      "inputs": [
        {
          "name": "agreementId",
          "type": "bytes32"
        },
        {
          "name": "payer",
          "type": "address"
        },
        {
          "name": "beneficiary",
          "type": "address"
        },
        {
          "name": "unitsOfRepayment",
          "type": "uint256"
        },
        {
          "name": "tokenAddress",
          "type": "address"
        }
      ],
      "name": "registerRepayment",
      "outputs": [
        {
          "name": "_success",
          "type": "bool"
        }
      ],
      "payable": false,
      "stateMutability": "nonpayable",
      "type": "function"
    },
    {
      "constant": true,
      "inputs": [
        {
          "name": "agreementId",
          "type": "bytes32"
        },
        {
          "name": "timestamp",
          "type": "uint256"
        }
      ],
      "name": "getExpectedRepaymentValue",
      "outputs": [
        {
          "name": "",
          "type": "uint256"
        }
      ],
      "payable": false,
      "stateMutability": "view",
      "type": "function"
    },
    {
      "constant": true,
      "inputs": [
        {
          "name": "agreementId",
          "type": "bytes32"
        }
      ],
      "name": "getValueRepaidToDate",
      "outputs": [
        {
          "name": "",
          "type": "uint256"
        }
      ],
      "payable": false,
      "stateMutability": "view",
      "type": "function"
    },
    {
      "constant": false,
      "inputs": [
        {
          "name": "success",
          "type": "bool"
        }
      ],
      "name": "mockRegisterRepaymentReturnValue",
      "outputs": [],
      "payable": false,
      "stateMutability": "nonpayable",
      "type": "function"
    },
    {
      "constant": true,
      "inputs": [
        {
          "name": "agreementId",
          "type": "bytes32"
        },
        {
          "name": "payer",
          "type": "address"
        },
        {
          "name": "beneficiary",
          "type": "address"
        },
        {
          "name": "unitsOfRepayment",
          "type": "uint256"
        },
        {
          "name": "tokenAddress",
          "type": "address"
        }
      ],
      "name": "wasRegisterRepaymentCalledWith",
      "outputs": [
        {
          "name": "wasCalled",
          "type": "bool"
        }
      ],
      "payable": false,
      "stateMutability": "view",
      "type": "function"
    },
    {
      "constant": false,
      "inputs": [
        {
          "name": "agreementId",
          "type": "bytes32"
        },
        {
          "name": "debtor",
          "type": "address"
        }
      ],
      "name": "registerTermStart",
      "outputs": [
        {
          "name": "_registered",
          "type": "bool"
        }
      ],
      "payable": false,
      "stateMutability": "nonpayable",
      "type": "function"
    },
    {
      "constant": true,
      "inputs": [
        {
          "name": "agreementId",
          "type": "bytes32"
        }
      ],
      "name": "getTermEndTimestamp",
      "outputs": [
        {
          "name": "",
          "type": "uint256"
        }
      ],
      "payable": false,
      "stateMutability": "view",
      "type": "function"
    },
    {
      "constant": true,
      "inputs": [
        {
          "name": "agreementId",
          "type": "bytes32"
        },
        {
          "name": "debtor",
          "type": "address"
        }
      ],
      "name": "wasRegisterTermStartCalledWith",
      "outputs": [
        {
          "name": "_wasCalled",
          "type": "bool"
        }
      ],
      "payable": false,
      "stateMutability": "view",
      "type": "function"
    },
    {
      "constant": false,
      "inputs": [
        {
          "name": "agreementId",
          "type": "bytes32"
        },
        {
          "name": "timestamp",
          "type": "uint256"
        }
      ],
      "name": "mockTermEndTimestamp",
      "outputs": [],
      "payable": false,
      "stateMutability": "nonpayable",
      "type": "function"
    },
    {
      "constant": false,
      "inputs": [
        {
          "name": "agreementId",
          "type": "bytes32"
        },
        {
          "name": "amount",
          "type": "uint256"
        }
      ],
      "name": "mockDummyValueRepaid",
      "outputs": [],
      "payable": false,
      "stateMutability": "nonpayable",
      "type": "function"
    },
    {
      "constant": false,
      "inputs": [
        {
          "name": "agreementId",
          "type": "bytes32"
        },
        {
          "name": "timestamp",
          "type": "uint256"
        },
        {
          "name": "amount",
          "type": "uint256"
        }
      ],
      "name": "mockExpectedRepaymentValue",
      "outputs": [],
      "payable": false,
      "stateMutability": "nonpayable",
      "type": "function"
    },
    {
      "constant": false,
      "inputs": [],
      "name": "reset",
      "outputs": [],
      "payable": false,
      "stateMutability": "nonpayable",
      "type": "function"
    },
    {
      "constant": false,
      "inputs": [
        {
          "name": "agreementId",
          "type": "bytes32"
        }
      ],
      "name": "reset",
      "outputs": [],
      "payable": false,
      "stateMutability": "nonpayable",
      "type": "function"
    },
    {
      "constant": false,
      "inputs": [
        {
          "name": "_collateralizer",
          "type": "address"
        },
        {
          "name": "_agreementId",
          "type": "bytes32"
        },
        {
          "name": "_debtor",
          "type": "address"
        }
      ],
      "name": "mockCallCollateralize",
      "outputs": [],
      "payable": false,
      "stateMutability": "nonpayable",
      "type": "function"
    }
  ],
  "bytecode": "0x608060405234801561001057600080fd5b506117a6806100206000396000f3006080604052600436106100e6576000357c0100000000000000000000000000000000000000000000000000000000900463ffffffff16806303a896a1146100eb57806304aa85fa1461013057806306e9d7cd1461015f578063131018581461019a5780632762dd8c1461022d5780635f0280ba146102725780636dcea718146103255780637f8601a11461039657806380da20d414610449578063977a5e64146104ce57806399114d8414610537578063b433022f14610586578063c45d83ef146105c1578063c73e02b01461062a578063d826f88f1461066f578063ed3c7d4014610686575b600080fd5b3480156100f757600080fd5b5061011a60048036038101908080356000191690602001909291905050506106b7565b6040518082815260200191505060405180910390f35b34801561013c57600080fd5b5061015d6004803603810190808035151590602001909291905050506106dc565b005b34801561016b57600080fd5b50610198600480360381019080803560001916906020019092919080359060200190929190505050610736565b005b3480156101a657600080fd5b5061020f600480360381019080803590602001908201803590602001908080601f0160208091040260200160405190810160405280939291908181526020018383808284378201915050505050509192919290803560001916906020019092919050505061075a565b60405180826000191660001916815260200191505060405180910390f35b34801561023957600080fd5b5061025c60048036038101908080356000191690602001909291905050506107e9565b6040518082815260200191505060405180910390f35b34801561027e57600080fd5b5061030b6004803603810190808035600019169060200190929190803573ffffffffffffffffffffffffffffffffffffffff169060200190929190803573ffffffffffffffffffffffffffffffffffffffff16906020019092919080359060200190929190803573ffffffffffffffffffffffffffffffffffffffff16906020019092919050505061080e565b604051808215151515815260200191505060405180910390f35b34801561033157600080fd5b50610394600480360381019080803573ffffffffffffffffffffffffffffffffffffffff1690602001909291908035600019169060200190929190803573ffffffffffffffffffffffffffffffffffffffff169060200190929190505050610998565b005b3480156103a257600080fd5b5061042f6004803603810190808035600019169060200190929190803573ffffffffffffffffffffffffffffffffffffffff169060200190929190803573ffffffffffffffffffffffffffffffffffffffff16906020019092919080359060200190929190803573ffffffffffffffffffffffffffffffffffffffff169060200190929190505050610a8a565b604051808215151515815260200191505060405180910390f35b34801561045557600080fd5b506104cc600480360381019080803590602001908201803590602001908080601f016020809104026020016040519081016040528093929190818152602001838380828437820191505050505050919291929080356000191690602001909291908035600019169060200190929190505050610bc4565b005b3480156104da57600080fd5b5061051d6004803603810190808035600019169060200190929190803573ffffffffffffffffffffffffffffffffffffffff169060200190929190505050610cf1565b604051808215151515815260200191505060405180910390f35b34801561054357600080fd5b50610570600480360381019080803560001916906020019092919080359060200190929190505050610e46565b6040518082815260200191505060405180910390f35b34801561059257600080fd5b506105bf600480360381019080803560001916906020019092919080359060200190929190505050610ee3565b005b3480156105cd57600080fd5b506106106004803603810190808035600019169060200190929190803573ffffffffffffffffffffffffffffffffffffffff169060200190929190505050610f07565b604051808215151515815260200191505060405180910390f35b34801561063657600080fd5b5061066d60048036038101908080356000191690602001909291908035906020019092919080359060200190929190505050610fb0565b005b34801561067b57600080fd5b50610684611095565b005b34801561069257600080fd5b506106b56004803603810190808035600019169060200190929190505050611385565b005b6000600360008360001916600019168152602001908152602001600020549050919050565b6107336040805190810160405280601181526020017f726567697374657252657061796d656e7400000000000000000000000000000081525060006001028361072957600060010261072e565b600180025b610bc4565b50565b80600360008460001916600019168152602001908152602001600020819055505050565b60006001836040518082805190602001908083835b602083101515610794578051825260208201915060208101905060208303925061076f565b6001836020036101000a03801982511681845116808217855250505050505090500191505090815260200160405180910390206000836000191660001916815260200190815260200160002054905092915050565b6000600760008360001916600019168152602001908152602001600020549050919050565b600061093d6040805190810160405280601181526020017f726567697374657252657061796d656e7400000000000000000000000000000081525087878787876040518086600019166000191681526020018573ffffffffffffffffffffffffffffffffffffffff1673ffffffffffffffffffffffffffffffffffffffff166c010000000000000000000000000281526014018473ffffffffffffffffffffffffffffffffffffffff1673ffffffffffffffffffffffffffffffffffffffff166c010000000000000000000000000281526014018381526020018273ffffffffffffffffffffffffffffffffffffffff1673ffffffffffffffffffffffffffffffffffffffff166c010000000000000000000000000281526014019550505050505060405180910390206113f5565b60018002600019166109886040805190810160405280601181526020017f726567697374657252657061796d656e74000000000000000000000000000000815250600060010261075a565b6000191614905095945050505050565b60008390508073ffffffffffffffffffffffffffffffffffffffff1663649404bd84846040518363ffffffff167c01000000000000000000000000000000000000000000000000000000000281526004018083600019166000191681526020018273ffffffffffffffffffffffffffffffffffffffff1673ffffffffffffffffffffffffffffffffffffffff16815260200192505050602060405180830381600087803b158015610a4857600080fd5b505af1158015610a5c573d6000803e3d6000fd5b505050506040513d6020811015610a7257600080fd5b81019080805190602001909291905050505050505050565b6000610bb96040805190810160405280601181526020017f726567697374657252657061796d656e7400000000000000000000000000000081525087878787876040518086600019166000191681526020018573ffffffffffffffffffffffffffffffffffffffff1673ffffffffffffffffffffffffffffffffffffffff166c010000000000000000000000000281526014018473ffffffffffffffffffffffffffffffffffffffff1673ffffffffffffffffffffffffffffffffffffffff166c010000000000000000000000000281526014018381526020018273ffffffffffffffffffffffffffffffffffffffff1673ffffffffffffffffffffffffffffffffffffffff166c01000000000000000000000000028152601401955050505050506040518091039020611531565b905095945050505050565b6000836040518082805190602001908083835b602083101515610bfc5780518252602082019150602081019050602083039250610bd7565b6001836020036101000a0380198251168184511680821785525050505050509050019150509081526020016040518091039020829080600181540180825580915050906001820390600052602060002001600090919290919091509060001916905550806001846040518082805190602001908083835b602083101515610c985780518252602082019150602081019050602083039250610c73565b6001836020036101000a0380198251168184511680821785525050505050509050019150509081526020016040518091039020600084600019166000191681526020019081526020016000208160001916905550505050565b6000610d926040805190810160405280601181526020017f72656769737465725465726d537461727400000000000000000000000000000081525084846040518083600019166000191681526020018273ffffffffffffffffffffffffffffffffffffffff1673ffffffffffffffffffffffffffffffffffffffff166c010000000000000000000000000281526014019250505060405180910390206113f5565b6001800260001916610e396040805190810160405280601181526020017f72656769737465725465726d537461727400000000000000000000000000000081525085856040518083600019166000191681526020018273ffffffffffffffffffffffffffffffffffffffff1673ffffffffffffffffffffffffffffffffffffffff166c0100000000000000000000000002815260140192505050604051809103902061075a565b6000191614905092915050565b600080600080600091505b6005821015610eab5760056000876000191660001916815260200190815260200160002082600581101515610e8257fe5b01549050848111158015610e9557508281115b15610e9e578092505b8180600101925050610e51565b600460008760001916600019168152602001908152602001600020600084815260200190815260200160002054935050505092915050565b80600760008460001916600019168152602001908152602001600020819055505050565b6000610fa86040805190810160405280601181526020017f72656769737465725465726d537461727400000000000000000000000000000081525084846040518083600019166000191681526020018273ffffffffffffffffffffffffffffffffffffffff1673ffffffffffffffffffffffffffffffffffffffff166c01000000000000000000000000028152601401925050506040518091039020611531565b905092915050565b600080600460008660001916600019168152602001908152602001600020600085815260200190815260200160002054141561105e57600660008560001916600019168152602001908152602001600020549050826005600086600019166000191681526020019081526020016000208260058110151561102d57fe5b0181905550600660008560001916600019168152602001908152602001600020600081548092919060010191905055505b8160046000866000191660001916815260200190815260200160002060008581526020019081526020016000208190555050505050565b60006060600080600093505b600a84101561137f576110b26115cd565b84600a811015156110bf57fe5b602002015192506000835114151561137257600091505b6000836040518082805190602001908083835b60208310151561110e57805182526020820191506020810190506020830392506110e9565b6001836020036101000a0380198251168184511680821785525050505050509050019150509081526020016040518091039020805490508210156112fa576000836040518082805190602001908083835b602083101515611184578051825260208201915060208101905060208303925061115f565b6001836020036101000a0380198251168184511680821785525050505050509050019150509081526020016040518091039020828154811015156111c457fe5b906000526020600020015490506002836040518082805190602001908083835b60208310151561120957805182526020820191506020810190506020830392506111e4565b6001836020036101000a03801982511681845116808217855250505050505090500191505090815260200160405180910390206000826000191660001916815260200190815260200160002060006101000a81549060ff02191690556001836040518082805190602001908083835b60208310151561129d5780518252602082019150602081019050602083039250611278565b6001836020036101000a0380198251168184511680821785525050505050509050019150509081526020016040518091039020600082600019166000191681526020019081526020016000206000905581806001019250506110d6565b6000836040518082805190602001908083835b602083101515611332578051825260208201915060208101905060208303925061130d565b6001836020036101000a03801982511681845116808217855250505050505090500191505090815260200160405180910390206000611371919061170b565b5b83806001019450506110a1565b50505050565b60008090505b60058110156113d0576000600560008460001916600019168152602001908152602001600020826005811015156113be57fe5b0181905550808060010191505061138b565b6000600660008460001916600019168152602001908152602001600020819055505050565b60016002836040518082805190602001908083835b60208310151561142f578051825260208201915060208101905060208303925061140a565b6001836020036101000a03801982511681845116808217855250505050505090500191505090815260200160405180910390206000836000191660001916815260200190815260200160002060006101000a81548160ff0219169083151502179055506000826040518082805190602001908083835b6020831015156114ca57805182526020820191506020810190506020830392506114a5565b6001836020036101000a03801982511681845116808217855250505050505090500191505090815260200160405180910390208190806001815401808255809150509060018203906000526020600020016000909192909190915090600019169055505050565b60006002836040518082805190602001908083835b60208310151561156b5780518252602082019150602081019050602083039250611546565b6001836020036101000a03801982511681845116808217855250505050505090500191505090815260200160405180910390206000836000191660001916815260200190815260200160002060009054906101000a900460ff16905092915050565b6115d561172c565b610140604051908101604052806040805190810160405280601181526020017f726567697374657252657061796d656e7400000000000000000000000000000081525081526020016040805190810160405280601181526020017f72656769737465725465726d53746172740000000000000000000000000000008152508152602001602060405190810160405280600081525081526020016020604051908101604052806000815250815260200160206040519081016040528060008152508152602001602060405190810160405280600081525081526020016020604051908101604052806000815250815260200160206040519081016040528060008152508152602001602060405190810160405280600081525081526020016020604051908101604052806000815250815250905090565b50805460008255906000526020600020908101906117299190611755565b50565b61014060405190810160405280600a905b606081526020019060019003908161173d5790505090565b61177791905b8082111561177357600081600090555060010161175b565b5090565b905600a165627a7a723058208bbe466cb30029c9899dc11ca689a0d25671192823a585826c2787ee19b50f880029",
  "source": "/*\n\n  Copyright 2017 Dharma Labs Inc.\n\n  Licensed under the Apache License, Version 2.0 (the \"License\");\n  you may not use this file except in compliance with the License.\n  You may obtain a copy of the License at\n\n    http://www.apache.org/licenses/LICENSE-2.0\n\n  Unless required by applicable law or agreed to in writing, software\n  distributed under the License is distributed on an \"AS IS\" BASIS,\n  WITHOUT WARRANTIES OR CONDITIONS OF ANY KIND, either express or implied.\n  See the License for the specific language governing permissions and\n  limitations under the License.\n\n*/\n\npragma solidity 0.4.24;\n\nimport \"./MockContract.sol\";\nimport \"../../Collateralizer.sol\";\n\n\ncontract MockCollateralizedTermsContract is MockContract {\n    using SafeMath for uint;\n\n    // Maps from agreementId's to the amount repaid to date\n    mapping (bytes32 => uint) internal amountRepaid;\n    // Maps from agreementId's to a mapping of timestamps to the expected\n    // value repaid at said timestamp\n    mapping (bytes32 => mapping (uint => uint)) internal expectedValueRepaidAtTimestamp;\n    // Maps from agreementId's to a list of timestamps at which\n    // repayments are expected (used primarily for resetting our mocks)\n    mapping (bytes32 => uint[5]) internal expectedRepaymentSchedule;\n    // Maps from agreementId's to the number of repayment dates\n    // expected for that agreement\n    mapping (bytes32 => uint) internal numRepaymentTimestamps;\n    // Maps from agreementId's to the mocked term end timestamp\n    mapping (bytes32 => uint) internal termEndTimestamp;\n\n    function registerRepayment(\n        bytes32 agreementId,\n        address payer,\n        address beneficiary,\n        uint unitsOfRepayment,\n        address tokenAddress\n    )\n        public\n        returns (bool _success)\n    {\n        functionCalledWithArgs(\"registerRepayment\", keccak256(\n                agreementId,\n                payer,\n                beneficiary,\n                unitsOfRepayment,\n                tokenAddress\n            ));\n\n        return getMockReturnValue(\"registerRepayment\", DEFAULT_SIGNATURE_ARGS) == bytes32(1);\n    }\n\n    function getExpectedRepaymentValue(\n        bytes32 agreementId,\n        uint256 timestamp\n    )\n        public\n        view\n        returns (uint256)\n    {\n        uint latestDueDateBeforeTimestamp;\n\n        // Iterate over each mocked repayment timestamp associated with the\n        // agreement ID and find the LATEST timestamp that is BEFORE\n        // the timestamp specified in the functiom arguments\n        for (uint i = 0; i < 5; i++) {\n            uint dueDateTimestamp = expectedRepaymentSchedule[agreementId][i];\n\n            if (dueDateTimestamp <= timestamp &&\n            dueDateTimestamp > latestDueDateBeforeTimestamp) {\n                latestDueDateBeforeTimestamp = dueDateTimestamp;\n            }\n        }\n\n        // Return the expected value repaid at said timestamp\n        return expectedValueRepaidAtTimestamp[agreementId][latestDueDateBeforeTimestamp];\n    }\n\n    function getValueRepaidToDate(bytes32 agreementId)\n        public\n        view\n        returns (uint256)\n    {\n        return amountRepaid[agreementId];\n    }\n\n    function mockRegisterRepaymentReturnValue(bool success)\n        public\n    {\n        mockReturnValue(\"registerRepayment\", DEFAULT_SIGNATURE_ARGS, success ? bytes32(1) : bytes32(0));\n    }\n\n    function wasRegisterRepaymentCalledWith(\n        bytes32 agreementId,\n        address payer,\n        address beneficiary,\n        uint unitsOfRepayment,\n        address tokenAddress\n    )\n        public\n        view\n        returns (bool wasCalled)\n    {\n        return wasFunctionCalledWithArgs(\"registerRepayment\", keccak256(\n                agreementId,\n                payer,\n                beneficiary,\n                unitsOfRepayment,\n                tokenAddress\n            ));\n    }\n\n    function registerTermStart(\n        bytes32 agreementId,\n        address debtor\n    )\n        public\n        returns (bool _registered)\n    {\n        functionCalledWithArgs(\"registerTermStart\", keccak256(agreementId, debtor));\n\n        return getMockReturnValue(\n            \"registerTermStart\",\n            keccak256(agreementId, debtor)\n        ) == bytes32(1);\n    }\n\n    function getTermEndTimestamp(bytes32 agreementId)\n        public\n        view\n        returns (uint256)\n    {\n        return termEndTimestamp[agreementId];\n    }\n\n    function wasRegisterTermStartCalledWith(\n        bytes32 agreementId,\n        address debtor\n    )\n        public\n        view\n        returns (bool _wasCalled)\n    {\n        return wasFunctionCalledWithArgs(\"registerTermStart\", keccak256(agreementId, debtor));\n    }\n\n    /* Dummy functionality used to mock behavior for testing purposes. */\n\n    function mockTermEndTimestamp(\n        bytes32 agreementId,\n        uint timestamp\n    )\n        public\n    {\n        termEndTimestamp[agreementId] = timestamp;\n    }\n\n    function mockDummyValueRepaid(\n        bytes32 agreementId,\n        uint amount\n    )\n        public\n    {\n        amountRepaid[agreementId] = amount;\n    }\n\n    function mockExpectedRepaymentValue(\n        bytes32 agreementId,\n        uint timestamp,\n        uint amount\n    )\n        public\n    {\n        // If timestamp is not mocked already, append it to list of repayment timestamps\n        // associated with agreementId\n        if (expectedValueRepaidAtTimestamp[agreementId][timestamp] == 0) {\n            uint numRepaymentTimestampsForAgreement = numRepaymentTimestamps[agreementId];\n            expectedRepaymentSchedule[agreementId][numRepaymentTimestampsForAgreement] = timestamp;\n            numRepaymentTimestamps[agreementId]++;\n        }\n\n        expectedValueRepaidAtTimestamp[agreementId][timestamp] = amount;\n    }\n\n    function reset(bytes32 agreementId) public {\n        for (uint i = 0; i < 5; i++) {\n            expectedRepaymentSchedule[agreementId][i] = 0;\n        }\n\n        numRepaymentTimestamps[agreementId] = 0;\n    }\n\n    function mockCallCollateralize(\n        address _collateralizer,\n        bytes32 _agreementId,\n        address _debtor\n    )\n        public\n    {\n        Collateralizer collateralizer = Collateralizer(_collateralizer);\n\n        collateralizer.collateralize(\n            _agreementId,\n            _debtor\n        );\n    }\n\n    function getFunctionList()\n        internal\n        returns (string[10] functionNames)\n    {\n        return [\"registerRepayment\", \"registerTermStart\", \"\", \"\", \"\", \"\", \"\", \"\", \"\", \"\"];\n    }\n}\n",
  "sourcePath": "/Users/lixianji/coding/chainboard/contract/contracts/test/mocks/MockCollateralizedTermsContract.sol",
  "compiler": {
    "name": "solc",
    "version": "0.4.24+commit.e67f0147.Emscripten.clang"
  },
  "schemaVersion": "2.0.1",
  "updatedAt": "2018-11-13T08:15:27.202Z"
}