{
  "contractName": "MockDebtKernel",
  "abi": [
    {
      "constant": true,
      "inputs": [
        {
          "name": "functionName",
          "type": "string"
        },
        {
          "name": "argsSignature",
          "type": "bytes32"
        }
      ],
      "name": "getMockReturnValue",
      "outputs": [
        {
          "name": "_mockReturnValue",
          "type": "bytes32"
        }
      ],
      "payable": false,
      "stateMutability": "view",
      "type": "function"
    },
    {
      "constant": false,
      "inputs": [
        {
          "name": "functionName",
          "type": "string"
        },
        {
          "name": "argsSignature",
          "type": "bytes32"
        },
        {
          "name": "returnValue",
          "type": "bytes32"
        }
      ],
      "name": "mockReturnValue",
      "outputs": [],
      "payable": false,
      "stateMutability": "nonpayable",
      "type": "function"
    },
    {
      "constant": false,
      "inputs": [],
      "name": "reset",
      "outputs": [],
      "payable": false,
      "stateMutability": "nonpayable",
      "type": "function"
    },
    {
      "constant": false,
      "inputs": [
        {
          "name": "_agreementId",
          "type": "bytes32"
        }
      ],
      "name": "mockCreateReturnValue",
      "outputs": [],
      "payable": false,
      "stateMutability": "nonpayable",
      "type": "function"
    },
    {
      "constant": false,
      "inputs": [
        {
          "name": "creditor",
          "type": "address"
        },
        {
          "name": "orderAddresses",
          "type": "address[6]"
        },
        {
          "name": "orderValues",
          "type": "uint256[8]"
        },
        {
          "name": "orderBytes32",
          "type": "bytes32[1]"
        },
        {
          "name": "signaturesV",
          "type": "uint8[3]"
        },
        {
          "name": "signaturesR",
          "type": "bytes32[3]"
        },
        {
          "name": "signaturesS",
          "type": "bytes32[3]"
        }
      ],
      "name": "fillDebtOrder",
      "outputs": [
        {
          "name": "_agreementId",
          "type": "bytes32"
        }
      ],
      "payable": false,
      "stateMutability": "nonpayable",
      "type": "function"
    },
    {
      "constant": false,
      "inputs": [
        {
          "name": "creditor",
          "type": "address"
        },
        {
          "name": "orderAddresses",
          "type": "address[6]"
        },
        {
          "name": "orderValues",
          "type": "uint256[8]"
        },
        {
          "name": "orderBytes32",
          "type": "bytes32[1]"
        },
        {
          "name": "signaturesV",
          "type": "uint8[3]"
        },
        {
          "name": "signaturesR",
          "type": "bytes32[3]"
        },
        {
          "name": "signaturesS",
          "type": "bytes32[3]"
        }
      ],
      "name": "fillDebtOrderAsProxy",
      "outputs": [
        {
          "name": "_agreementId",
          "type": "bytes32"
        }
      ],
      "payable": false,
      "stateMutability": "nonpayable",
      "type": "function"
    },
    {
      "constant": true,
      "inputs": [
        {
          "name": "creditor",
          "type": "address"
        },
        {
          "name": "orderAddresses",
          "type": "address[6]"
        },
        {
          "name": "orderValues",
          "type": "uint256[8]"
        },
        {
          "name": "orderBytes32",
          "type": "bytes32[1]"
        },
        {
          "name": "signaturesV",
          "type": "uint8[3]"
        },
        {
          "name": "signaturesR",
          "type": "bytes32[3]"
        },
        {
          "name": "signaturesS",
          "type": "bytes32[3]"
        }
      ],
      "name": "wasFillDebtOrderCalledWith",
      "outputs": [
        {
          "name": "wasCalled",
          "type": "bool"
        }
      ],
      "payable": false,
      "stateMutability": "view",
      "type": "function"
    },
    {
      "constant": true,
      "inputs": [
        {
          "name": "creditor",
          "type": "address"
        },
        {
          "name": "orderAddresses",
          "type": "address[6]"
        },
        {
          "name": "orderValues",
          "type": "uint256[8]"
        },
        {
          "name": "orderBytes32",
          "type": "bytes32[1]"
        },
        {
          "name": "signaturesV",
          "type": "uint8[3]"
        },
        {
          "name": "signaturesR",
          "type": "bytes32[3]"
        },
        {
          "name": "signaturesS",
          "type": "bytes32[3]"
        }
      ],
      "name": "wasFillDebtOrderAsProxyCalledWith",
      "outputs": [
        {
          "name": "wasCalled",
          "type": "bool"
        }
      ],
      "payable": false,
      "stateMutability": "view",
      "type": "function"
    }
  ],
  "bytecode": "0x608060405234801561001057600080fd5b5061184d806100206000396000f30060806040526004361061008e576000357c0100000000000000000000000000000000000000000000000000000000900463ffffffff168063027adbbf1461009357806313101858146102095780634d4971b61461029c57806380da20d414610416578063a0144d311461049b578063c2d96de9146104cc578063d826f88f14610642578063e6488fc914610659575b600080fd5b34801561009f57600080fd5b506101ef600480360381019080803573ffffffffffffffffffffffffffffffffffffffff1690602001909291908060c0019060068060200260405190810160405280929190826006602002808284378201915050505050919291929080610100019060088060200260405190810160405280929190826008602002808284378201915050505050919291929080602001906001806020026040519081016040528092919082600160200280828437820191505050505091929192908060600190600380602002604051908101604052809291908260036020028082843782019150505050509192919290806060019060038060200260405190810160405280929190826003602002808284378201915050505050919291929080606001906003806020026040519081016040528092919082600360200280828437820191505050505091929192905050506107d3565b604051808215151515815260200191505060405180910390f35b34801561021557600080fd5b5061027e600480360381019080803590602001908201803590602001908080601f01602080910402602001604051908101604052809392919081815260200183838082843782019150505050505091929192908035600019169060200190929190505050610996565b60405180826000191660001916815260200191505060405180910390f35b3480156102a857600080fd5b506103f8600480360381019080803573ffffffffffffffffffffffffffffffffffffffff1690602001909291908060c001906006806020026040519081016040528092919082600660200280828437820191505050505091929192908061010001906008806020026040519081016040528092919082600860200280828437820191505050505091929192908060200190600180602002604051908101604052809291908260016020028082843782019150505050509192919290806060019060038060200260405190810160405280929190826003602002808284378201915050505050919291929080606001906003806020026040519081016040528092919082600360200280828437820191505050505091929192908060600190600380602002604051908101604052809291908260036020028082843782019150505050509192919290505050610a25565b60405180826000191660001916815260200191505060405180910390f35b34801561042257600080fd5b50610499600480360381019080803590602001908201803590602001908080601f016020809104026020016040519081016040528093929190818152602001838380828437820191505050505050919291929080356000191690602001909291908035600019169060200190929190505050610c2b565b005b3480156104a757600080fd5b506104ca6004803603810190808035600019169060200190929190505050610d58565b005b3480156104d857600080fd5b50610628600480360381019080803573ffffffffffffffffffffffffffffffffffffffff1690602001909291908060c001906006806020026040519081016040528092919082600660200280828437820191505050505091929192908061010001906008806020026040519081016040528092919082600860200280828437820191505050505091929192908060200190600180602002604051908101604052809291908260016020028082843782019150505050509192919290806060019060038060200260405190810160405280929190826003602002808284378201915050505050919291929080606001906003806020026040519081016040528092919082600360200280828437820191505050505091929192908060600190600380602002604051908101604052809291908260036020028082843782019150505050509192919290505050610de3565b604051808215151515815260200191505060405180910390f35b34801561064e57600080fd5b50610657610fa6565b005b34801561066557600080fd5b506107b5600480360381019080803573ffffffffffffffffffffffffffffffffffffffff1690602001909291908060c001906006806020026040519081016040528092919082600660200280828437820191505050505091929192908061010001906008806020026040519081016040528092919082600860200280828437820191505050505091929192908060200190600180602002604051908101604052809291908260016020028082843782019150505050509192919290806060019060038060200260405190810160405280929190826003602002808284378201915050505050919291929080606001906003806020026040519081016040528092919082600360200280828437820191505050505091929192908060600190600380602002604051908101604052809291908260036020028082843782019150505050509192919290505050611296565b60405180826000191660001916815260200191505060405180910390f35b60008088888888888888604051808873ffffffffffffffffffffffffffffffffffffffff1673ffffffffffffffffffffffffffffffffffffffff166c0100000000000000000000000002815260140187600660200280838360005b8381101561084957808201518184015260208101905061082e565b5050505090500186600860200280838360005b8381101561087757808201518184015260208101905061085c565b5050505090500185600160200280838360005b838110156108a557808201518184015260208101905061088a565b5050505090500184600360200280838360005b838110156108d35780820151818401526020810190506108b8565b5050505090500183600360200280838360005b838110156109015780820151818401526020810190506108e6565b5050505090500182600360200280838360005b8381101561092f578082015181840152602081019050610914565b50505050905001975050505050505050604051809103902090506109886040805190810160405280601481526020017f66696c6c446562744f72646572417350726f78790000000000000000000000008152508261149c565b915050979650505050505050565b60006001836040518082805190602001908083835b6020831015156109d057805182526020820191506020810190506020830392506109ab565b6001836020036101000a03801982511681845116808217855250505050505090500191505090815260200160405180910390206000836000191660001916815260200190815260200160002054905092915050565b60008088888888888888604051808873ffffffffffffffffffffffffffffffffffffffff1673ffffffffffffffffffffffffffffffffffffffff166c0100000000000000000000000002815260140187600660200280838360005b83811015610a9b578082015181840152602081019050610a80565b5050505090500186600860200280838360005b83811015610ac9578082015181840152602081019050610aae565b5050505090500185600160200280838360005b83811015610af7578082015181840152602081019050610adc565b5050505090500184600360200280838360005b83811015610b25578082015181840152602081019050610b0a565b5050505090500183600360200280838360005b83811015610b53578082015181840152602081019050610b38565b5050505090500182600360200280838360005b83811015610b81578082015181840152602081019050610b66565b5050505090500197505050505050505060405180910390209050610bda6040805190810160405280601481526020017f66696c6c446562744f72646572417350726f787900000000000000000000000081525082611538565b610c1d6040805190810160405280601481526020017f66696c6c446562744f72646572417350726f78790000000000000000000000008152506000600102610996565b915050979650505050505050565b6000836040518082805190602001908083835b602083101515610c635780518252602082019150602081019050602083039250610c3e565b6001836020036101000a0380198251168184511680821785525050505050509050019150509081526020016040518091039020829080600181540180825580915050906001820390600052602060002001600090919290919091509060001916905550806001846040518082805190602001908083835b602083101515610cff5780518252602082019150602081019050602083039250610cda565b6001836020036101000a0380198251168184511680821785525050505050509050019150509081526020016040518091039020600084600019166000191681526020019081526020016000208160001916905550505050565b610d9c6040805190810160405280600d81526020017f66696c6c446562744f7264657200000000000000000000000000000000000000815250600060010283610c2b565b610de06040805190810160405280601481526020017f66696c6c446562744f72646572417350726f7879000000000000000000000000815250600060010283610c2b565b50565b60008088888888888888604051808873ffffffffffffffffffffffffffffffffffffffff1673ffffffffffffffffffffffffffffffffffffffff166c0100000000000000000000000002815260140187600660200280838360005b83811015610e59578082015181840152602081019050610e3e565b5050505090500186600860200280838360005b83811015610e87578082015181840152602081019050610e6c565b5050505090500185600160200280838360005b83811015610eb5578082015181840152602081019050610e9a565b5050505090500184600360200280838360005b83811015610ee3578082015181840152602081019050610ec8565b5050505090500183600360200280838360005b83811015610f11578082015181840152602081019050610ef6565b5050505090500182600360200280838360005b83811015610f3f578082015181840152602081019050610f24565b5050505090500197505050505050505060405180910390209050610f986040805190810160405280600d81526020017f66696c6c446562744f72646572000000000000000000000000000000000000008152508261149c565b915050979650505050505050565b60006060600080600093505b600a84101561129057610fc3611674565b84600a81101515610fd057fe5b602002015192506000835114151561128357600091505b6000836040518082805190602001908083835b60208310151561101f5780518252602082019150602081019050602083039250610ffa565b6001836020036101000a03801982511681845116808217855250505050505090500191505090815260200160405180910390208054905082101561120b576000836040518082805190602001908083835b6020831015156110955780518252602082019150602081019050602083039250611070565b6001836020036101000a0380198251168184511680821785525050505050509050019150509081526020016040518091039020828154811015156110d557fe5b906000526020600020015490506002836040518082805190602001908083835b60208310151561111a57805182526020820191506020810190506020830392506110f5565b6001836020036101000a03801982511681845116808217855250505050505090500191505090815260200160405180910390206000826000191660001916815260200190815260200160002060006101000a81549060ff02191690556001836040518082805190602001908083835b6020831015156111ae5780518252602082019150602081019050602083039250611189565b6001836020036101000a038019825116818451168082178552505050505050905001915050908152602001604051809103902060008260001916600019168152602001908152602001600020600090558180600101925050610fe7565b6000836040518082805190602001908083835b602083101515611243578051825260208201915060208101905060208303925061121e565b6001836020036101000a0380198251168184511680821785525050505050509050019150509081526020016040518091039020600061128291906117b2565b5b8380600101945050610fb2565b50505050565b60008088888888888888604051808873ffffffffffffffffffffffffffffffffffffffff1673ffffffffffffffffffffffffffffffffffffffff166c0100000000000000000000000002815260140187600660200280838360005b8381101561130c5780820151818401526020810190506112f1565b5050505090500186600860200280838360005b8381101561133a57808201518184015260208101905061131f565b5050505090500185600160200280838360005b8381101561136857808201518184015260208101905061134d565b5050505090500184600360200280838360005b8381101561139657808201518184015260208101905061137b565b5050505090500183600360200280838360005b838110156113c45780820151818401526020810190506113a9565b5050505090500182600360200280838360005b838110156113f25780820151818401526020810190506113d7565b505050509050019750505050505050506040518091039020905061144b6040805190810160405280600d81526020017f66696c6c446562744f726465720000000000000000000000000000000000000081525082611538565b61148e6040805190810160405280600d81526020017f66696c6c446562744f72646572000000000000000000000000000000000000008152506000600102610996565b915050979650505050505050565b60006002836040518082805190602001908083835b6020831015156114d657805182526020820191506020810190506020830392506114b1565b6001836020036101000a03801982511681845116808217855250505050505090500191505090815260200160405180910390206000836000191660001916815260200190815260200160002060009054906101000a900460ff16905092915050565b60016002836040518082805190602001908083835b602083101515611572578051825260208201915060208101905060208303925061154d565b6001836020036101000a03801982511681845116808217855250505050505090500191505090815260200160405180910390206000836000191660001916815260200190815260200160002060006101000a81548160ff0219169083151502179055506000826040518082805190602001908083835b60208310151561160d57805182526020820191506020810190506020830392506115e8565b6001836020036101000a03801982511681845116808217855250505050505090500191505090815260200160405180910390208190806001815401808255809150509060018203906000526020600020016000909192909190915090600019169055505050565b61167c6117d3565b610140604051908101604052806040805190810160405280600d81526020017f66696c6c446562744f726465720000000000000000000000000000000000000081525081526020016040805190810160405280601481526020017f66696c6c446562744f72646572417350726f78790000000000000000000000008152508152602001602060405190810160405280600081525081526020016020604051908101604052806000815250815260200160206040519081016040528060008152508152602001602060405190810160405280600081525081526020016020604051908101604052806000815250815260200160206040519081016040528060008152508152602001602060405190810160405280600081525081526020016020604051908101604052806000815250815250905090565b50805460008255906000526020600020908101906117d091906117fc565b50565b61014060405190810160405280600a905b60608152602001906001900390816117e45790505090565b61181e91905b8082111561181a576000816000905550600101611802565b5090565b905600a165627a7a723058203c3e3720218e4f403cb1f156bc2d42dd655787b6b99cf00027e70c37058e096b0029",
  "source": "/*\n\n  Copyright 2017 Dharma Labs Inc.\n\n  Licensed under the Apache License, Version 2.0 (the \"License\");\n  you may not use this file except in compliance with the License.\n  You may obtain a copy of the License at\n\n    http://www.apache.org/licenses/LICENSE-2.0\n\n  Unless required by applicable law or agreed to in writing, software\n  distributed under the License is distributed on an \"AS IS\" BASIS,\n  WITHOUT WARRANTIES OR CONDITIONS OF ANY KIND, either express or implied.\n  See the License for the specific language governing permissions and\n  limitations under the License.\n\n*/\n\npragma solidity 0.4.24;\n\nimport \"./MockContract.sol\";\n\n\ncontract MockDebtKernel is MockContract {\n\n    function mockCreateReturnValue(bytes32 _agreementId)\n        public\n    {\n        mockReturnValue(\"fillDebtOrder\", DEFAULT_SIGNATURE_ARGS, bytes32(_agreementId));\n        mockReturnValue(\"fillDebtOrderAsProxy\", DEFAULT_SIGNATURE_ARGS, bytes32(_agreementId));\n    }\n\n    function fillDebtOrder(\n        address creditor,\n        address[6] orderAddresses,\n        uint[8] orderValues,\n        bytes32[1] orderBytes32,\n        uint8[3] signaturesV,\n        bytes32[3] signaturesR,\n        bytes32[3] signaturesS\n    )\n        public\n        returns (bytes32 _agreementId)\n    {\n        bytes32 argsSignature = keccak256(\n            creditor,\n            orderAddresses,\n            orderValues,\n            orderBytes32,\n            signaturesV,\n            signaturesR,\n            signaturesS\n        );\n        functionCalledWithArgs(\"fillDebtOrder\", argsSignature);\n        return getMockReturnValue(\"fillDebtOrder\", DEFAULT_SIGNATURE_ARGS);\n    }\n\n    function fillDebtOrderAsProxy(\n        address creditor,\n        address[6] orderAddresses,\n        uint[8] orderValues,\n        bytes32[1] orderBytes32,\n        uint8[3] signaturesV,\n        bytes32[3] signaturesR,\n        bytes32[3] signaturesS\n    )\n    public\n    returns (bytes32 _agreementId)\n    {\n        bytes32 argsSignature = keccak256(\n            creditor,\n            orderAddresses,\n            orderValues,\n            orderBytes32,\n            signaturesV,\n            signaturesR,\n            signaturesS\n        );\n        functionCalledWithArgs(\"fillDebtOrderAsProxy\", argsSignature);\n        return getMockReturnValue(\"fillDebtOrderAsProxy\", DEFAULT_SIGNATURE_ARGS);\n    }\n\n    function wasFillDebtOrderCalledWith(\n        address creditor,\n        address[6] orderAddresses,\n        uint[8] orderValues,\n        bytes32[1] orderBytes32,\n        uint8[3] signaturesV,\n        bytes32[3] signaturesR,\n        bytes32[3] signaturesS\n    )\n    public\n    view\n    returns (bool wasCalled)\n    {\n        bytes32 argsSignature = keccak256(\n            creditor,\n            orderAddresses,\n            orderValues,\n            orderBytes32,\n            signaturesV,\n            signaturesR,\n            signaturesS\n        );\n        return wasFunctionCalledWithArgs(\"fillDebtOrder\", argsSignature);\n    }\n\n    function wasFillDebtOrderAsProxyCalledWith(\n        address creditor,\n        address[6] orderAddresses,\n        uint[8] orderValues,\n        bytes32[1] orderBytes32,\n        uint8[3] signaturesV,\n        bytes32[3] signaturesR,\n        bytes32[3] signaturesS\n    )\n        public\n        view\n        returns (bool wasCalled)\n    {\n        bytes32 argsSignature = keccak256(\n            creditor,\n            orderAddresses,\n            orderValues,\n            orderBytes32,\n            signaturesV,\n            signaturesR,\n            signaturesS\n        );\n        return wasFunctionCalledWithArgs(\"fillDebtOrderAsProxy\", argsSignature);\n    }\n\n    function getFunctionList()\n        internal\n        returns (string[10] functionNames)\n    {\n        return [\n            \"fillDebtOrder\",\n            \"fillDebtOrderAsProxy\",\n            \"\",\n            \"\",\n            \"\",\n            \"\",\n            \"\",\n            \"\",\n            \"\",\n            \"\"\n        ];\n    }\n}\n",
  "sourcePath": "/Users/jackyshen/prajna/contracts/test/mocks/MockDebtKernel.sol",
  "compiler": {
    "name": "solc",
    "version": "0.4.24+commit.e67f0147.Emscripten.clang"
  },
  "schemaVersion": "2.0.1",
  "updatedAt": "2018-11-14T07:22:14.555Z"
}