{
  "contractName": "MockERC721Token",
  "abi": [
    {
      "constant": true,
      "inputs": [
        {
          "name": "functionName",
          "type": "string"
        },
        {
          "name": "argsSignature",
          "type": "bytes32"
        }
      ],
      "name": "getMockReturnValue",
      "outputs": [
        {
          "name": "_mockReturnValue",
          "type": "bytes32"
        }
      ],
      "payable": false,
      "stateMutability": "view",
      "type": "function"
    },
    {
      "constant": false,
      "inputs": [
        {
          "name": "functionName",
          "type": "string"
        },
        {
          "name": "argsSignature",
          "type": "bytes32"
        },
        {
          "name": "returnValue",
          "type": "bytes32"
        }
      ],
      "name": "mockReturnValue",
      "outputs": [],
      "payable": false,
      "stateMutability": "nonpayable",
      "type": "function"
    },
    {
      "constant": false,
      "inputs": [],
      "name": "reset",
      "outputs": [],
      "payable": false,
      "stateMutability": "nonpayable",
      "type": "function"
    },
    {
      "constant": false,
      "inputs": [
        {
          "name": "_to",
          "type": "address"
        },
        {
          "name": "_tokenId",
          "type": "uint256"
        }
      ],
      "name": "transfer",
      "outputs": [
        {
          "name": "_success",
          "type": "bool"
        }
      ],
      "payable": false,
      "stateMutability": "nonpayable",
      "type": "function"
    },
    {
      "constant": true,
      "inputs": [
        {
          "name": "_to",
          "type": "address"
        },
        {
          "name": "_tokenId",
          "type": "uint256"
        }
      ],
      "name": "wasTransferCalledWith",
      "outputs": [
        {
          "name": "wasCalled",
          "type": "bool"
        }
      ],
      "payable": false,
      "stateMutability": "view",
      "type": "function"
    },
    {
      "constant": false,
      "inputs": [
        {
          "name": "_from",
          "type": "address"
        },
        {
          "name": "_to",
          "type": "address"
        },
        {
          "name": "_tokenId",
          "type": "uint256"
        }
      ],
      "name": "transferFrom",
      "outputs": [
        {
          "name": "_success",
          "type": "bool"
        }
      ],
      "payable": false,
      "stateMutability": "nonpayable",
      "type": "function"
    },
    {
      "constant": true,
      "inputs": [
        {
          "name": "_from",
          "type": "address"
        },
        {
          "name": "_to",
          "type": "address"
        },
        {
          "name": "_tokenId",
          "type": "uint256"
        }
      ],
      "name": "wasTransferFromCalledWith",
      "outputs": [
        {
          "name": "wasCalled",
          "type": "bool"
        }
      ],
      "payable": false,
      "stateMutability": "view",
      "type": "function"
    },
    {
      "constant": true,
      "inputs": [
        {
          "name": "_owner",
          "type": "address"
        }
      ],
      "name": "balanceOf",
      "outputs": [
        {
          "name": "_balance",
          "type": "uint256"
        }
      ],
      "payable": false,
      "stateMutability": "view",
      "type": "function"
    },
    {
      "constant": false,
      "inputs": [
        {
          "name": "_owner",
          "type": "address"
        },
        {
          "name": "_balance",
          "type": "uint256"
        }
      ],
      "name": "mockBalanceOfFor",
      "outputs": [],
      "payable": false,
      "stateMutability": "nonpayable",
      "type": "function"
    },
    {
      "constant": true,
      "inputs": [
        {
          "name": "_tokenId",
          "type": "uint256"
        }
      ],
      "name": "ownerOf",
      "outputs": [
        {
          "name": "_owner",
          "type": "address"
        }
      ],
      "payable": false,
      "stateMutability": "view",
      "type": "function"
    },
    {
      "constant": false,
      "inputs": [
        {
          "name": "_tokenId",
          "type": "uint256"
        },
        {
          "name": "_owner",
          "type": "address"
        }
      ],
      "name": "mockOwnerOfFor",
      "outputs": [],
      "payable": false,
      "stateMutability": "nonpayable",
      "type": "function"
    },
    {
      "constant": true,
      "inputs": [
        {
          "name": "_tokenId",
          "type": "uint256"
        }
      ],
      "name": "getApproved",
      "outputs": [
        {
          "name": "_approved",
          "type": "address"
        }
      ],
      "payable": false,
      "stateMutability": "view",
      "type": "function"
    },
    {
      "constant": false,
      "inputs": [
        {
          "name": "_tokenId",
          "type": "uint256"
        },
        {
          "name": "_approved",
          "type": "address"
        }
      ],
      "name": "mockGetApprovedFor",
      "outputs": [],
      "payable": false,
      "stateMutability": "nonpayable",
      "type": "function"
    },
    {
      "constant": true,
      "inputs": [],
      "name": "implementsERC721",
      "outputs": [
        {
          "name": "_implementsERC721",
          "type": "bool"
        }
      ],
      "payable": false,
      "stateMutability": "pure",
      "type": "function"
    }
  ],
  "bytecode": "0x608060405234801561001057600080fd5b50611427806100206000396000f3006080604052600436106100d0576000357c0100000000000000000000000000000000000000000000000000000000900463ffffffff168063081812fc146100d55780630e81bd9f146101425780631051db34146101a757806313101858146101d657806313d2a2ab1461026957806323b872dd146102b657806351d5d7a91461033b5780636352211e1461038857806370a08231146103f5578063771a70091461044c57806380da20d4146104d1578063a9059cbb14610556578063c9777367146105bb578063d826f88f14610608575b600080fd5b3480156100e157600080fd5b506101006004803603810190808035906020019092919050505061061f565b604051808273ffffffffffffffffffffffffffffffffffffffff1673ffffffffffffffffffffffffffffffffffffffff16815260200191505060405180910390f35b34801561014e57600080fd5b5061018d600480360381019080803573ffffffffffffffffffffffffffffffffffffffff16906020019092919080359060200190929190505050610680565b604051808215151515815260200191505060405180910390f35b3480156101b357600080fd5b506101bc6106d2565b604051808215151515815260200191505060405180910390f35b3480156101e257600080fd5b5061024b600480360381019080803590602001908201803590602001908080601f016020809104026020016040519081016040528093929190818152602001838380828437820191505050505050919291929080356000191690602001909291905050506106db565b60405180826000191660001916815260200191505060405180910390f35b34801561027557600080fd5b506102b460048036038101908080359060200190929190803573ffffffffffffffffffffffffffffffffffffffff16906020019092919050505061076a565b005b3480156102c257600080fd5b50610321600480360381019080803573ffffffffffffffffffffffffffffffffffffffff169060200190929190803573ffffffffffffffffffffffffffffffffffffffff169060200190929190803590602001909291905050506107dc565b604051808215151515815260200191505060405180910390f35b34801561034757600080fd5b50610386600480360381019080803573ffffffffffffffffffffffffffffffffffffffff16906020019092919080359060200190929190505050610832565b005b34801561039457600080fd5b506103b3600480360381019080803590602001909291905050506108c9565b604051808273ffffffffffffffffffffffffffffffffffffffff1673ffffffffffffffffffffffffffffffffffffffff16815260200191505060405180910390f35b34801561040157600080fd5b50610436600480360381019080803573ffffffffffffffffffffffffffffffffffffffff16906020019092919050505061092a565b6040518082815260200191505060405180910390f35b34801561045857600080fd5b506104b7600480360381019080803573ffffffffffffffffffffffffffffffffffffffff169060200190929190803573ffffffffffffffffffffffffffffffffffffffff169060200190929190803590602001909291905050506109c6565b604051808215151515815260200191505060405180910390f35b3480156104dd57600080fd5b50610554600480360381019080803590602001908201803590602001908080601f016020809104026020016040519081016040528093929190818152602001838380828437820191505050505050919291929080356000191690602001909291908035600019169060200190929190505050610a1a565b005b34801561056257600080fd5b506105a1600480360381019080803573ffffffffffffffffffffffffffffffffffffffff16906020019092919080359060200190929190505050610b47565b604051808215151515815260200191505060405180910390f35b3480156105c757600080fd5b5061060660048036038101908080359060200190929190803573ffffffffffffffffffffffffffffffffffffffff169060200190929190505050610b9b565b005b34801561061457600080fd5b5061061d610c0d565b005b60006106756040805190810160405280600b81526020017f676574417070726f766564000000000000000000000000000000000000000000815250836040518082815260200191505060405180910390206106db565b600190049050919050565b60006106ca6040805190810160405280600881526020017f7472616e736665720000000000000000000000000000000000000000000000008152506106c58585610efd565b610f60565b905092915050565b60006001905090565b60006001836040518082805190602001908083835b60208310151561071557805182526020820191506020810190506020830392506106f0565b6001836020036101000a03801982511681845116808217855250505050505090500191505090815260200160405180910390206000836000191660001916815260200190815260200160002054905092915050565b6107d86040805190810160405280600781526020017f6f776e65724f6600000000000000000000000000000000000000000000000000815250836040518082815260200191505060405180910390208373ffffffffffffffffffffffffffffffffffffffff16600102610a1a565b5050565b60006108276040805190810160405280600c81526020017f7472616e7366657246726f6d0000000000000000000000000000000000000000815250610822868686610ffc565b6110a3565b600190509392505050565b6108c56040805190810160405280600981526020017f62616c616e63654f66000000000000000000000000000000000000000000000081525083604051808273ffffffffffffffffffffffffffffffffffffffff1673ffffffffffffffffffffffffffffffffffffffff166c01000000000000000000000000028152601401915050604051809103902083600102610a1a565b5050565b600061091f6040805190810160405280600781526020017f6f776e65724f6600000000000000000000000000000000000000000000000000815250836040518082815260200191505060405180910390206106db565b600190049050919050565b60006109bb6040805190810160405280600981526020017f62616c616e63654f66000000000000000000000000000000000000000000000081525083604051808273ffffffffffffffffffffffffffffffffffffffff1673ffffffffffffffffffffffffffffffffffffffff166c0100000000000000000000000002815260140191505060405180910390206106db565b600190049050919050565b6000610a116040805190810160405280600c81526020017f7472616e7366657246726f6d0000000000000000000000000000000000000000815250610a0c868686610ffc565b610f60565b90509392505050565b6000836040518082805190602001908083835b602083101515610a525780518252602082019150602081019050602083039250610a2d565b6001836020036101000a0380198251168184511680821785525050505050509050019150509081526020016040518091039020829080600181540180825580915050906001820390600052602060002001600090919290919091509060001916905550806001846040518082805190602001908083835b602083101515610aee5780518252602082019150602081019050602083039250610ac9565b6001836020036101000a0380198251168184511680821785525050505050509050019150509081526020016040518091039020600084600019166000191681526020019081526020016000208160001916905550505050565b6000610b916040805190810160405280600881526020017f7472616e73666572000000000000000000000000000000000000000000000000815250610b8c8585610efd565b6110a3565b6001905092915050565b610c096040805190810160405280600b81526020017f676574417070726f766564000000000000000000000000000000000000000000815250836040518082815260200191505060405180910390208373ffffffffffffffffffffffffffffffffffffffff16600102610a1a565b5050565b60006060600080600093505b600a841015610ef757610c2a6111df565b84600a81101515610c3757fe5b6020020151925060008351141515610eea57600091505b6000836040518082805190602001908083835b602083101515610c865780518252602082019150602081019050602083039250610c61565b6001836020036101000a038019825116818451168082178552505050505050905001915050908152602001604051809103902080549050821015610e72576000836040518082805190602001908083835b602083101515610cfc5780518252602082019150602081019050602083039250610cd7565b6001836020036101000a038019825116818451168082178552505050505050905001915050908152602001604051809103902082815481101515610d3c57fe5b906000526020600020015490506002836040518082805190602001908083835b602083101515610d815780518252602082019150602081019050602083039250610d5c565b6001836020036101000a03801982511681845116808217855250505050505090500191505090815260200160405180910390206000826000191660001916815260200190815260200160002060006101000a81549060ff02191690556001836040518082805190602001908083835b602083101515610e155780518252602082019150602081019050602083039250610df0565b6001836020036101000a038019825116818451168082178552505050505050905001915050908152602001604051809103902060008260001916600019168152602001908152602001600020600090558180600101925050610c4e565b6000836040518082805190602001908083835b602083101515610eaa5780518252602082019150602081019050602083039250610e85565b6001836020036101000a03801982511681845116808217855250505050505090500191505090815260200160405180910390206000610ee9919061138c565b5b8380600101945050610c19565b50505050565b60008282604051808373ffffffffffffffffffffffffffffffffffffffff1673ffffffffffffffffffffffffffffffffffffffff166c01000000000000000000000000028152601401828152602001925050506040518091039020905092915050565b60006002836040518082805190602001908083835b602083101515610f9a5780518252602082019150602081019050602083039250610f75565b6001836020036101000a03801982511681845116808217855250505050505090500191505090815260200160405180910390206000836000191660001916815260200190815260200160002060009054906101000a900460ff16905092915050565b6000838383604051808473ffffffffffffffffffffffffffffffffffffffff1673ffffffffffffffffffffffffffffffffffffffff166c010000000000000000000000000281526014018373ffffffffffffffffffffffffffffffffffffffff1673ffffffffffffffffffffffffffffffffffffffff166c010000000000000000000000000281526014018281526020019350505050604051809103902090509392505050565b60016002836040518082805190602001908083835b6020831015156110dd57805182526020820191506020810190506020830392506110b8565b6001836020036101000a03801982511681845116808217855250505050505090500191505090815260200160405180910390206000836000191660001916815260200190815260200160002060006101000a81548160ff0219169083151502179055506000826040518082805190602001908083835b6020831015156111785780518252602082019150602081019050602083039250611153565b6001836020036101000a03801982511681845116808217855250505050505090500191505090815260200160405180910390208190806001815401808255809150509060018203906000526020600020016000909192909190915090600019169055505050565b6111e76113ad565b610140604051908101604052806040805190810160405280600881526020017f7472616e7366657200000000000000000000000000000000000000000000000081525081526020016040805190810160405280600c81526020017f7472616e7366657246726f6d000000000000000000000000000000000000000081525081526020016040805190810160405280600781526020017f6f776e65724f660000000000000000000000000000000000000000000000000081525081526020016040805190810160405280600981526020017f62616c616e63654f66000000000000000000000000000000000000000000000081525081526020016040805190810160405280600b81526020017f676574417070726f7665640000000000000000000000000000000000000000008152508152602001602060405190810160405280600081525081526020016020604051908101604052806000815250815260200160206040519081016040528060008152508152602001602060405190810160405280600081525081526020016020604051908101604052806000815250815250905090565b50805460008255906000526020600020908101906113aa91906113d6565b50565b61014060405190810160405280600a905b60608152602001906001900390816113be5790505090565b6113f891905b808211156113f45760008160009055506001016113dc565b5090565b905600a165627a7a7230582034eeb6b6cceb953a043d0f0903039c13f03b3fabc2af9cec1914ed3d04bb8d470029",
  "source": "/*\n\n  Copyright 2017 Dharma Labs Inc.\n\n  Licensed under the Apache License, Version 2.0 (the \"License\");\n  you may not use this file except in compliance with the License.\n  You may obtain a copy of the License at\n\n    http://www.apache.org/licenses/LICENSE-2.0\n\n  Unless required by applicable law or agreed to in writing, software\n  distributed under the License is distributed on an \"AS IS\" BASIS,\n  WITHOUT WARRANTIES OR CONDITIONS OF ANY KIND, either express or implied.\n  See the License for the specific language governing permissions and\n  limitations under the License.\n\n*/\n\npragma solidity 0.4.24;\n\nimport \"./MockContract.sol\";\n\n\ncontract MockERC721Token is MockContract {\n    function transfer(\n        address _to,\n        uint _tokenId\n    )\n        public\n        returns (bool _success)\n    {\n        functionCalledWithArgs(\"transfer\", getTransferArgsSignature(\n            _to,\n            _tokenId\n        ));\n\n        return true;\n    }\n\n    function wasTransferCalledWith(\n        address _to,\n        uint _tokenId\n    )\n        public\n        view\n        returns (bool wasCalled)\n    {\n        return wasFunctionCalledWithArgs(\"transfer\", getTransferArgsSignature(\n            _to,\n            _tokenId\n        ));\n    }\n\n    function transferFrom(\n        address _from,\n        address _to,\n        uint _tokenId\n    )\n        public\n        returns (bool _success)\n    {\n        functionCalledWithArgs(\"transferFrom\", getTransferFromArgsSignature(\n            _from,\n            _to,\n            _tokenId\n        ));\n\n        return true;\n    }\n\n    function wasTransferFromCalledWith(\n        address _from,\n        address _to,\n        uint _tokenId\n    )\n        public\n        view\n        returns (bool wasCalled)\n    {\n        return wasFunctionCalledWithArgs(\"transferFrom\", getTransferFromArgsSignature(\n            _from,\n            _to,\n            _tokenId\n        ));\n    }\n\n    function balanceOf(address _owner) public view returns (uint _balance) {\n        return uint(getMockReturnValue(\"balanceOf\", keccak256(_owner)));\n    }\n\n    function mockBalanceOfFor(address _owner, uint _balance) public {\n        mockReturnValue(\"balanceOf\", keccak256(_owner), bytes32(_balance));\n    }\n\n    function ownerOf(uint _tokenId) public view returns (address _owner) {\n        return address(getMockReturnValue(\"ownerOf\", keccak256(_tokenId)));\n    }\n\n    function mockOwnerOfFor(uint _tokenId, address _owner) public {\n        mockReturnValue(\"ownerOf\", keccak256(_tokenId), bytes32(_owner));\n    }\n\n    function getApproved(uint _tokenId) public view returns (address _approved) {\n        return address(getMockReturnValue(\"getApproved\", keccak256(_tokenId)));\n    }\n\n    function mockGetApprovedFor(uint _tokenId, address _approved) public {\n        mockReturnValue(\"getApproved\", keccak256(_tokenId), bytes32(_approved));\n    }\n\n    function implementsERC721() public pure returns (bool _implementsERC721) {\n        return true;\n    }\n\n    function getTransferArgsSignature(\n        address _to,\n        uint _tokenId\n    )\n        internal\n        pure\n        returns (bytes32 args)\n    {\n        return keccak256(\n            _to,\n            _tokenId\n        );\n    }\n\n    function getTransferFromArgsSignature(\n        address _from,\n        address _to,\n        uint _tokenId\n    )\n        internal\n        pure\n        returns (bytes32 argsSignature)\n    {\n        return keccak256(\n            _from,\n            _to,\n            _tokenId\n        );\n    }\n\n    function getFunctionList()\n        internal\n        returns (string[10] functionNames)\n    {\n        return [\"transfer\", \"transferFrom\", \"ownerOf\", \"balanceOf\", \"getApproved\", \"\", \"\", \"\", \"\", \"\"];\n    }\n}\n",
  "sourcePath": "/Users/lixianji/coding/chainboard/contract/contracts/test/mocks/MockERC721Token.sol",
  "compiler": {
    "name": "solc",
    "version": "0.4.24+commit.e67f0147.Emscripten.clang"
  },
  "schemaVersion": "2.0.1",
  "updatedAt": "2018-11-14T08:05:16.278Z"
}