{
  "contractName": "MockDebtToken",
  "abi": [
    {
      "constant": true,
      "inputs": [
        {
          "name": "functionName",
          "type": "string"
        },
        {
          "name": "argsSignature",
          "type": "bytes32"
        }
      ],
      "name": "getMockReturnValue",
      "outputs": [
        {
          "name": "_mockReturnValue",
          "type": "bytes32"
        }
      ],
      "payable": false,
      "stateMutability": "view",
      "type": "function"
    },
    {
      "constant": false,
      "inputs": [
        {
          "name": "functionName",
          "type": "string"
        },
        {
          "name": "argsSignature",
          "type": "bytes32"
        },
        {
          "name": "returnValue",
          "type": "bytes32"
        }
      ],
      "name": "mockReturnValue",
      "outputs": [],
      "payable": false,
      "stateMutability": "nonpayable",
      "type": "function"
    },
    {
      "constant": false,
      "inputs": [],
      "name": "reset",
      "outputs": [],
      "payable": false,
      "stateMutability": "nonpayable",
      "type": "function"
    },
    {
      "constant": false,
      "inputs": [
        {
          "name": "_version",
          "type": "address"
        },
        {
          "name": "_beneficiary",
          "type": "address"
        },
        {
          "name": "_debtor",
          "type": "address"
        },
        {
          "name": "_underwriter",
          "type": "address"
        },
        {
          "name": "_underwriterRiskRating",
          "type": "uint256"
        },
        {
          "name": "_termsContract",
          "type": "address"
        },
        {
          "name": "_termsContractParameters",
          "type": "bytes32"
        },
        {
          "name": "_salt",
          "type": "uint256"
        }
      ],
      "name": "create",
      "outputs": [
        {
          "name": "_tokenId",
          "type": "uint256"
        }
      ],
      "payable": false,
      "stateMutability": "nonpayable",
      "type": "function"
    },
    {
      "constant": false,
      "inputs": [
        {
          "name": "_tokenId",
          "type": "uint256"
        }
      ],
      "name": "mockCreateReturnValue",
      "outputs": [],
      "payable": false,
      "stateMutability": "nonpayable",
      "type": "function"
    },
    {
      "constant": true,
      "inputs": [
        {
          "name": "_version",
          "type": "address"
        },
        {
          "name": "_beneficiary",
          "type": "address"
        },
        {
          "name": "_debtor",
          "type": "address"
        },
        {
          "name": "_underwriter",
          "type": "address"
        },
        {
          "name": "_underwriterRiskRating",
          "type": "uint256"
        },
        {
          "name": "_termsContract",
          "type": "address"
        },
        {
          "name": "_termsContractParameters",
          "type": "bytes32"
        },
        {
          "name": "_salt",
          "type": "uint256"
        }
      ],
      "name": "wasCreateCalledWith",
      "outputs": [
        {
          "name": "wasCalled",
          "type": "bool"
        }
      ],
      "payable": false,
      "stateMutability": "view",
      "type": "function"
    },
    {
      "constant": false,
      "inputs": [
        {
          "name": "_to",
          "type": "address"
        },
        {
          "name": "_tokenId",
          "type": "uint256"
        }
      ],
      "name": "transfer",
      "outputs": [
        {
          "name": "success",
          "type": "bool"
        }
      ],
      "payable": false,
      "stateMutability": "nonpayable",
      "type": "function"
    },
    {
      "constant": true,
      "inputs": [
        {
          "name": "_to",
          "type": "address"
        },
        {
          "name": "_tokenId",
          "type": "uint256"
        }
      ],
      "name": "wasTransferCalledWith",
      "outputs": [
        {
          "name": "wasCalled",
          "type": "bool"
        }
      ],
      "payable": false,
      "stateMutability": "view",
      "type": "function"
    },
    {
      "constant": true,
      "inputs": [
        {
          "name": "_tokenId",
          "type": "uint256"
        }
      ],
      "name": "ownerOf",
      "outputs": [
        {
          "name": "_owner",
          "type": "address"
        }
      ],
      "payable": false,
      "stateMutability": "view",
      "type": "function"
    },
    {
      "constant": false,
      "inputs": [
        {
          "name": "_tokenId",
          "type": "uint256"
        },
        {
          "name": "_owner",
          "type": "address"
        }
      ],
      "name": "mockOwnerOfFor",
      "outputs": [],
      "payable": false,
      "stateMutability": "nonpayable",
      "type": "function"
    },
    {
      "constant": true,
      "inputs": [
        {
          "name": "_tokenId",
          "type": "uint256"
        }
      ],
      "name": "exists",
      "outputs": [
        {
          "name": "_exists",
          "type": "bool"
        }
      ],
      "payable": false,
      "stateMutability": "view",
      "type": "function"
    },
    {
      "constant": false,
      "inputs": [
        {
          "name": "_agent",
          "type": "address"
        }
      ],
      "name": "addAuthorizedMintAgent",
      "outputs": [],
      "payable": false,
      "stateMutability": "nonpayable",
      "type": "function"
    },
    {
      "constant": true,
      "inputs": [
        {
          "name": "_agent",
          "type": "address"
        }
      ],
      "name": "wasAddAuthorizedMintAgentCalledWith",
      "outputs": [
        {
          "name": "_wasCalled",
          "type": "bool"
        }
      ],
      "payable": false,
      "stateMutability": "view",
      "type": "function"
    },
    {
      "constant": false,
      "inputs": [],
      "name": "pause",
      "outputs": [],
      "payable": false,
      "stateMutability": "nonpayable",
      "type": "function"
    },
    {
      "constant": true,
      "inputs": [],
      "name": "wasPauseCalled",
      "outputs": [
        {
          "name": "_wasCalled",
          "type": "bool"
        }
      ],
      "payable": false,
      "stateMutability": "view",
      "type": "function"
    }
  ],
  "bytecode": "0x608060405234801561001057600080fd5b506118cc806100206000396000f3006080604052600436106100db576000357c0100000000000000000000000000000000000000000000000000000000900463ffffffff1680630e81bd9f146100e0578063131018581461014557806313d2a2ab146101d85780634f558e79146102255780636352211e1461026a57806380da20d4146102d75780638456cb591461035c57806399f10501146103735780639c0d9c431461046c578063a9059cbb146104af578063b742f56314610514578063c6f5407a14610611578063d826f88f1461066c578063e18b212614610683578063e55f7fd5146106b0575b600080fd5b3480156100ec57600080fd5b5061012b600480360381019080803573ffffffffffffffffffffffffffffffffffffffff169060200190929190803590602001909291905050506106df565b604051808215151515815260200191505060405180910390f35b34801561015157600080fd5b506101ba600480360381019080803590602001908201803590602001908080601f01602080910402602001604051908101604052809392919081815260200183838082843782019150505050505091929192908035600019169060200190929190505050610780565b60405180826000191660001916815260200191505060405180910390f35b3480156101e457600080fd5b5061022360048036038101908080359060200190929190803573ffffffffffffffffffffffffffffffffffffffff16906020019092919050505061080f565b005b34801561023157600080fd5b5061025060048036038101908080359060200190929190505050610881565b604051808215151515815260200191505060405180910390f35b34801561027657600080fd5b50610295600480360381019080803590602001909291905050506108c2565b604051808273ffffffffffffffffffffffffffffffffffffffff1673ffffffffffffffffffffffffffffffffffffffff16815260200191505060405180910390f35b3480156102e357600080fd5b5061035a600480360381019080803590602001908201803590602001908080601f016020809104026020016040519081016040528093929190818152602001838380828437820191505050505050919291929080356000191690602001909291908035600019169060200190929190505050610913565b005b34801561036857600080fd5b50610371610a40565b005b34801561037f57600080fd5b50610456600480360381019080803573ffffffffffffffffffffffffffffffffffffffff169060200190929190803573ffffffffffffffffffffffffffffffffffffffff169060200190929190803573ffffffffffffffffffffffffffffffffffffffff169060200190929190803573ffffffffffffffffffffffffffffffffffffffff16906020019092919080359060200190929190803573ffffffffffffffffffffffffffffffffffffffff169060200190929190803560001916906020019092919080359060200190929190505050610abc565b6040518082815260200191505060405180910390f35b34801561047857600080fd5b506104ad600480360381019080803573ffffffffffffffffffffffffffffffffffffffff169060200190929190505050610cd3565b005b3480156104bb57600080fd5b506104fa600480360381019080803573ffffffffffffffffffffffffffffffffffffffff16906020019092919080359060200190929190505050610d65565b604051808215151515815260200191505060405180910390f35b34801561052057600080fd5b506105f7600480360381019080803573ffffffffffffffffffffffffffffffffffffffff169060200190929190803573ffffffffffffffffffffffffffffffffffffffff169060200190929190803573ffffffffffffffffffffffffffffffffffffffff169060200190929190803573ffffffffffffffffffffffffffffffffffffffff16906020019092919080359060200190929190803573ffffffffffffffffffffffffffffffffffffffff169060200190929190803560001916906020019092919080359060200190929190505050610e08565b604051808215151515815260200191505060405180910390f35b34801561061d57600080fd5b50610652600480360381019080803573ffffffffffffffffffffffffffffffffffffffff169060200190929190505050610fd3565b604051808215151515815260200191505060405180910390f35b34801561067857600080fd5b5061068161106b565b005b34801561068f57600080fd5b506106ae6004803603810190808035906020019092919050505061135b565b005b3480156106bc57600080fd5b506106c56113a5565b604051808215151515815260200191505060405180910390f35b60006107786040805190810160405280600881526020017f7472616e736665720000000000000000000000000000000000000000000000008152508484604051808373ffffffffffffffffffffffffffffffffffffffff1673ffffffffffffffffffffffffffffffffffffffff166c01000000000000000000000000028152601401828152602001925050506040518091039020611426565b905092915050565b60006001836040518082805190602001908083835b6020831015156107ba5780518252602082019150602081019050602083039250610795565b6001836020036101000a03801982511681845116808217855250505050505090500191505090815260200160405180910390206000836000191660001916815260200190815260200160002054905092915050565b61087d6040805190810160405280600781526020017f6f776e65724f6600000000000000000000000000000000000000000000000000815250836040518082815260200191505060405180910390208373ffffffffffffffffffffffffffffffffffffffff16600102610913565b5050565b60008073ffffffffffffffffffffffffffffffffffffffff166108a3836114c2565b73ffffffffffffffffffffffffffffffffffffffff1614159050919050565b60006108cd826114c2565b9050600073ffffffffffffffffffffffffffffffffffffffff168173ffffffffffffffffffffffffffffffffffffffff161415151561090b57600080fd5b809050919050565b6000836040518082805190602001908083835b60208310151561094b5780518252602082019150602081019050602083039250610926565b6001836020036101000a0380198251168184511680821785525050505050509050019150509081526020016040518091039020829080600181540180825580915050906001820390600052602060002001600090919290919091509060001916905550806001846040518082805190602001908083835b6020831015156109e757805182526020820191506020810190506020830392506109c2565b6001836020036101000a0380198251168184511680821785525050505050509050019150509081526020016040518091039020600084600019166000191681526020019081526020016000208160001916905550505050565b610aba6040805190810160405280600581526020017f70617573650000000000000000000000000000000000000000000000000000008152506000604051808260ff167f01000000000000000000000000000000000000000000000000000000000000000281526001019150506040518091039020611523565b565b6000808989898989898989604051808973ffffffffffffffffffffffffffffffffffffffff1673ffffffffffffffffffffffffffffffffffffffff166c010000000000000000000000000281526014018873ffffffffffffffffffffffffffffffffffffffff1673ffffffffffffffffffffffffffffffffffffffff166c010000000000000000000000000281526014018773ffffffffffffffffffffffffffffffffffffffff1673ffffffffffffffffffffffffffffffffffffffff166c010000000000000000000000000281526014018673ffffffffffffffffffffffffffffffffffffffff1673ffffffffffffffffffffffffffffffffffffffff166c010000000000000000000000000281526014018581526020018473ffffffffffffffffffffffffffffffffffffffff1673ffffffffffffffffffffffffffffffffffffffff166c0100000000000000000000000002815260140183600019166000191681526020018281526020019850505050505050505060405180910390209050610c7d6040805190810160405280600681526020017f637265617465000000000000000000000000000000000000000000000000000081525082611523565b610cc06040805190810160405280600681526020017f63726561746500000000000000000000000000000000000000000000000000008152506000600102610780565b6001900491505098975050505050505050565b610d626040805190810160405280601681526020017f616464417574686f72697a65644d696e744167656e740000000000000000000081525082604051808273ffffffffffffffffffffffffffffffffffffffff1673ffffffffffffffffffffffffffffffffffffffff166c010000000000000000000000000281526014019150506040518091039020611523565b50565b6000610dfe6040805190810160405280600881526020017f7472616e736665720000000000000000000000000000000000000000000000008152508484604051808373ffffffffffffffffffffffffffffffffffffffff1673ffffffffffffffffffffffffffffffffffffffff166c01000000000000000000000000028152601401828152602001925050506040518091039020611523565b6001905092915050565b6000610fc56040805190810160405280600681526020017f63726561746500000000000000000000000000000000000000000000000000008152508a8a8a8a8a8a8a8a604051808973ffffffffffffffffffffffffffffffffffffffff1673ffffffffffffffffffffffffffffffffffffffff166c010000000000000000000000000281526014018873ffffffffffffffffffffffffffffffffffffffff1673ffffffffffffffffffffffffffffffffffffffff166c010000000000000000000000000281526014018773ffffffffffffffffffffffffffffffffffffffff1673ffffffffffffffffffffffffffffffffffffffff166c010000000000000000000000000281526014018673ffffffffffffffffffffffffffffffffffffffff1673ffffffffffffffffffffffffffffffffffffffff166c010000000000000000000000000281526014018581526020018473ffffffffffffffffffffffffffffffffffffffff1673ffffffffffffffffffffffffffffffffffffffff166c010000000000000000000000000281526014018360001916600019168152602001828152602001985050505050505050506040518091039020611426565b905098975050505050505050565b60006110646040805190810160405280601681526020017f616464417574686f72697a65644d696e744167656e740000000000000000000081525083604051808273ffffffffffffffffffffffffffffffffffffffff1673ffffffffffffffffffffffffffffffffffffffff166c010000000000000000000000000281526014019150506040518091039020611426565b9050919050565b60006060600080600093505b600a8410156113555761108861165f565b84600a8110151561109557fe5b602002015192506000835114151561134857600091505b6000836040518082805190602001908083835b6020831015156110e457805182526020820191506020810190506020830392506110bf565b6001836020036101000a0380198251168184511680821785525050505050509050019150509081526020016040518091039020805490508210156112d0576000836040518082805190602001908083835b60208310151561115a5780518252602082019150602081019050602083039250611135565b6001836020036101000a03801982511681845116808217855250505050505090500191505090815260200160405180910390208281548110151561119a57fe5b906000526020600020015490506002836040518082805190602001908083835b6020831015156111df57805182526020820191506020810190506020830392506111ba565b6001836020036101000a03801982511681845116808217855250505050505090500191505090815260200160405180910390206000826000191660001916815260200190815260200160002060006101000a81549060ff02191690556001836040518082805190602001908083835b602083101515611273578051825260208201915060208101905060208303925061124e565b6001836020036101000a0380198251168184511680821785525050505050509050019150509081526020016040518091039020600082600019166000191681526020019081526020016000206000905581806001019250506110ac565b6000836040518082805190602001908083835b60208310151561130857805182526020820191506020810190506020830392506112e3565b6001836020036101000a038019825116818451168082178552505050505050905001915050908152602001604051809103902060006113479190611831565b5b8380600101945050611077565b50505050565b6113a26040805190810160405280600681526020017f6372656174650000000000000000000000000000000000000000000000000000815250600060010283600102610913565b50565b60006114216040805190810160405280600581526020017f70617573650000000000000000000000000000000000000000000000000000008152506000604051808260ff167f01000000000000000000000000000000000000000000000000000000000000000281526001019150506040518091039020611426565b905090565b60006002836040518082805190602001908083835b602083101515611460578051825260208201915060208101905060208303925061143b565b6001836020036101000a03801982511681845116808217855250505050505090500191505090815260200160405180910390206000836000191660001916815260200190815260200160002060009054906101000a900460ff16905092915050565b60006115186040805190810160405280600781526020017f6f776e65724f660000000000000000000000000000000000000000000000000081525083604051808281526020019150506040518091039020610780565b600190049050919050565b60016002836040518082805190602001908083835b60208310151561155d5780518252602082019150602081019050602083039250611538565b6001836020036101000a03801982511681845116808217855250505050505090500191505090815260200160405180910390206000836000191660001916815260200190815260200160002060006101000a81548160ff0219169083151502179055506000826040518082805190602001908083835b6020831015156115f857805182526020820191506020810190506020830392506115d3565b6001836020036101000a03801982511681845116808217855250505050505090500191505090815260200160405180910390208190806001815401808255809150509060018203906000526020600020016000909192909190915090600019169055505050565b611667611852565b610140604051908101604052806040805190810160405280600681526020017f637265617465000000000000000000000000000000000000000000000000000081525081526020016040805190810160405280600781526020017f6f776e65724f660000000000000000000000000000000000000000000000000081525081526020016040805190810160405280600881526020017f7472616e7366657200000000000000000000000000000000000000000000000081525081526020016040805190810160405280600681526020017f657869737473000000000000000000000000000000000000000000000000000081525081526020016040805190810160405280601681526020017f616464417574686f72697a65644d696e744167656e740000000000000000000081525081526020016040805190810160405280600581526020017f706175736500000000000000000000000000000000000000000000000000000081525081526020016020604051908101604052806000815250815260200160206040519081016040528060008152508152602001602060405190810160405280600081525081526020016020604051908101604052806000815250815250905090565b508054600082559060005260206000209081019061184f919061187b565b50565b61014060405190810160405280600a905b60608152602001906001900390816118635790505090565b61189d91905b80821115611899576000816000905550600101611881565b5090565b905600a165627a7a72305820045c1b68ec8bdfdf66e553aef52ab7af6aec36d07128461449ec40e9bc4c51000029",
  "source": "/*\n\n  Copyright 2017 Dharma Labs Inc.\n\n  Licensed under the Apache License, Version 2.0 (the \"License\");\n  you may not use this file except in compliance with the License.\n  You may obtain a copy of the License at\n\n    http://www.apache.org/licenses/LICENSE-2.0\n\n  Unless required by applicable law or agreed to in writing, software\n  distributed under the License is distributed on an \"AS IS\" BASIS,\n  WITHOUT WARRANTIES OR CONDITIONS OF ANY KIND, either express or implied.\n  See the License for the specific language governing permissions and\n  limitations under the License.\n\n*/\n\npragma solidity 0.4.24;\n\nimport \"./MockContract.sol\";\nimport \"zeppelin-solidity/contracts/token/ERC20/ERC20.sol\";\n\n\ncontract MockDebtToken is MockContract {\n    function create(\n        address _version,\n        address _beneficiary,\n        address _debtor,\n        address _underwriter,\n        uint _underwriterRiskRating,\n        address _termsContract,\n        bytes32 _termsContractParameters,\n        uint _salt\n    )\n        public\n        returns (uint _tokenId)\n    {\n        bytes32 argsSignature = keccak256(\n            _version,\n            _beneficiary,\n            _debtor,\n            _underwriter,\n            _underwriterRiskRating,\n            _termsContract,\n            _termsContractParameters,\n            _salt\n        );\n\n        functionCalledWithArgs(\"create\", argsSignature);\n\n        return uint(getMockReturnValue(\"create\", DEFAULT_SIGNATURE_ARGS));\n    }\n\n    function mockCreateReturnValue(uint _tokenId)\n        public\n    {\n        mockReturnValue(\"create\", DEFAULT_SIGNATURE_ARGS, bytes32(_tokenId));\n    }\n\n    function wasCreateCalledWith(\n        address _version,\n        address _beneficiary,\n        address _debtor,\n        address _underwriter,\n        uint _underwriterRiskRating,\n        address _termsContract,\n        bytes32 _termsContractParameters,\n        uint _salt\n    )\n        public\n        view\n        returns (bool wasCalled)\n    {\n        return wasFunctionCalledWithArgs(\"create\", keccak256(\n            _version,\n            _beneficiary,\n            _debtor,\n            _underwriter,\n            _underwriterRiskRating,\n            _termsContract,\n            _termsContractParameters,\n            _salt\n        ));\n    }\n\n    function transfer(address _to, uint _tokenId)\n        public\n        returns (bool success)\n    {\n        functionCalledWithArgs(\"transfer\", keccak256(_to, _tokenId));\n\n        return true;\n    }\n\n    function wasTransferCalledWith(address _to, uint _tokenId)\n        public\n        view\n        returns (bool wasCalled)\n    {\n        return wasFunctionCalledWithArgs(\"transfer\", keccak256(_to, _tokenId));\n    }\n\n    function ownerOf(uint _tokenId)\n        public\n        view\n        returns (address _owner)\n    {\n        _owner = _getOwner(_tokenId);\n        require(_owner != address(0));\n        return _owner;\n    }\n\n    function mockOwnerOfFor(uint _tokenId, address _owner)\n        public\n    {\n        mockReturnValue(\"ownerOf\", keccak256(_tokenId), bytes32(_owner));\n    }\n\n    function exists(uint _tokenId)\n        public\n        view\n        returns (bool _exists)\n    {\n        return _getOwner(_tokenId) != address(0);\n    }\n\n    function addAuthorizedMintAgent(address _agent)\n        public\n    {\n        functionCalledWithArgs(\"addAuthorizedMintAgent\", keccak256(_agent));\n    }\n\n    function wasAddAuthorizedMintAgentCalledWith(address _agent)\n        public\n        view\n        returns (bool _wasCalled)\n    {\n        return wasFunctionCalledWithArgs(\"addAuthorizedMintAgent\", keccak256(_agent));\n    }\n\n    function pause()\n        public\n    {\n        functionCalledWithArgs(\"pause\", keccak256(0));\n    }\n\n    function wasPauseCalled()\n        public\n        view\n        returns (bool _wasCalled)\n    {\n        return wasFunctionCalledWithArgs(\"pause\", keccak256(0));\n    }\n\n    function _getOwner(uint _tokenId)\n        private\n        view\n        returns (address _owner)\n    {\n        return address(getMockReturnValue(\"ownerOf\", keccak256(_tokenId)));\n    }\n\n    function getFunctionList()\n        internal\n        returns (string[10] functionNames)\n    {\n        return [\"create\", \"ownerOf\", \"transfer\", \"exists\", \"addAuthorizedMintAgent\", \"pause\", \"\", \"\", \"\", \"\"];\n    }\n}\n",
  "sourcePath": "/Users/lixianji/coding/chainboard/contract/contracts/test/mocks/MockDebtToken.sol",
  "compiler": {
    "name": "solc",
    "version": "0.4.24+commit.e67f0147.Emscripten.clang"
  },
  "schemaVersion": "2.0.1",
  "updatedAt": "2018-11-12T07:00:58.375Z"
}